:100000000C9492030C94AF030C94AF030C94AF03C5
:100010000C94AF030C94AF030C94AF030C94AF0398
:100020000C94AF030C94AF030C94680D0C94FD1169
:100030000C9482200C94AF030C94AF030C94AF0388
:100040000C94AF030C94AF030C94AF030C94AF0368
:100050000C94AF030C943F0E0C94AF030C94AF03BD
:100060000C94AF030C94AF030C94AF030C94AF0348
:100070000C94AF030C94AF030C94AF030C94AF0338
:100080000C94AF030C94AF030C94AF030C94AF0328
:100090000C94AF030C94AF030C94AF030C94AF0318
:1000A0000C94AF030C94AF030C94AF0305010980CB
:1000B000A101850319012AB700150126B700950192
:1000C00075108100C0050C0901A101850419012AE0
:1000D000A002150126A002950175108100C005013E
:1000E0000906A1018505050719E029E71500250185
:1000F0009508750181020507190029EF15002501F2
:1001000095F075018102050819012905950575010C
:100110009102950175039101C005010902A1010930
:1001200001A100050919012905150025019505758D
:10013000018102950175038101050109300931151D
:1001400081257F95027508810609381581257F95DF
:100150000175088106050C0A38021581257F950175
:1001600075088106C0C005010906A101050719E04F
:1001700029E715002501950875018102950175088B
:1001800081010507190029FF150026FF0095067556
:100190000881000508190129059505750191029549
:1001A0000175039101C00000000000000000000084
:1001B000000000000000000000007E0F00D4FFFFE0
:1001C000FFC70000007800000000000000002A2B9C
:1001D00028000000000000000000000000000000F7
:1001E0000029000000002C1E342021222434262760
:1001F000252E362D3738271E1F2021222324252681
:100200003333362E37381F0405060708090A0B0C4E
:100210000D0E0F101112131415161718191A1B1C96
:100220001D2F3130232D350405060708090A0B0C54
:100230000D0E0F101112131415161718191A1B1C76
:100240001D2F3130354C0102E10101300103E10184
:10025000043130307C01012C000102E101012E014A
:1002600003E101043130307C01012C000102E60180
:1002700001300103E601043130307C01012C001310
:100280005064002B0034000151000001511400049F
:100290000054005000075DE2000F001100550051AE
:1002A000002A00E30018000C001C0052000800E1C6
:1002B00000060016000A004F00065DE0000D001960
:1002C000001B00000002512B004F0C0000510000E9
:1002D00000045D4C00500C000052000000055DE47D
:1002E000000E0005001D0000000251E50013000B88
:1002F0000009005000065DE70010001700070051DC
:10030000002C00E2001A0015003700520028002FD0
:10031000003800120036004F00085D2A5D300029C9
:1003200000330001510000010001002302E600013A
:100330000000000100350025143014010001000107
:1003400000350226142E00010001000100251625AB
:10035000023200010021140100261626021F024D60
:10036000000100010032021F1457000000010001CB
:10037000004B0000004E000000010001004A000098
:10038000004D0000000100010020022D0056000079
:100390000001000100240021001E004A00010001AC
:1003A00000250022001F0001002700010026002375
:1003B000002000010001000100300227022202019A
:1003C000000100010001002414E60001000000010A
:1003D000000000FC00FB000100000000000000FA2B
:1003E00000F900010001000100F400F2000000012A
:1003F0000001000100F600F000F100010001000121
:1004000000F500F3000000010001000100FF00FE04
:1004100000FD00000001000100F7000000F80000EE
:1004200000010001000100000001000000010001C6
:100430000000000000000000000100010040003D3D
:10044000003A0001000100010041003E003B0001B4
:10045000000100010042003F003C000100010000DB
:1004600000450044004300010001000100000001BC
:100470000000000100000010501F022B0034000497
:10048000510000045114000400240250000100E255
:10049000000F0011002D0251002A00E00018000C8E
:1004A000001C0052000800E100060016000A004F80
:1004B000000100E3000D0019001B00000005512B96
:1004C000004E0100005100000001004C004B0100F3
:1004D00000520000000100E7000E0005001D0000B2
:1004E000000551E50013000B00090050000100E475
:1004F0000010001700070051002C00E2001A001540
:10050000003700520028002F003800120036004F3C
:100510000001002A5D32002900330004510000016F
:10052000001F022302E60001000000010064002514
:10053000142D5D01000100E200640226142E5D010D
:10054000000100E00024142502320001002102E134
:1005500000271426021F024D000100E30032021F93
:100560001438000000010001004B0000004E0000A4
:1005700000010001004A0000004D0000000100E7FA
:100580000020022D00380000000100E500240021B9
:10059000001E004A000100E400250022001F0001A7
:1005A000002700E2002600230020000100010001D6
:1005B000002F5D27022202010001000100320064C9
:1005C00014E6000100000010501F020100010001AC
:1005D0000000000000010001002D1401000100E2F4
:1005E00000010001001E0201000100E00001000105
:1005F00000010001000100E1000100010001000113
:10060000000100E300010001000100000001000002
:1006100000000000000000000001000000000000D9
:1006200000000000000100E70000000000000000E2
:10063000000100E50040003D003A0001000100E437
:100640000041003E003B0001000100E20042003F8B
:10065000003C00010001000000450044004300018F
:100660000001004600000000000000010000000939
:10067000025400030100A0FA090400000103010173
:100680000009211101000122400007058103080033
:100690000A090401000103010200092111010001FE
:1006A000224D000705820308000A09040200010325
:1006B000000000092111010001226D0007058303DC
:1006C00020000A120100020000000897327449015C
:1006D000000102000116034500720067006F00442C
:1006E000006F007800200045005A00000030035AD7
:1006F0000053004100200054006500630068006E54
:10070000006F006C006F006700790020004C0061F2
:100710000062007300200049006E006300000004C6
:100720000309040011241FBECFEFDAE0DEBFCDBF06
:1007300011E0A0E0B1E0E0E6F6E402C005900D9221
:10074000A835B107D9F725E0A8E5B1E001C01D92B1
:10075000A238B207E1F70E94F01D0C9403230C9419
:100760000000E8EDF0E080818E7F80831092E2004F
:100770001092DA001092E100A0EEB0E08C9181605E
:100780008C9380818F77808319BCA7EDB0E08C912A
:100790008E7F8C9380818F7E808310924C0508958C
:1007A0002091E4003091E50095E6A9012091EC004C
:1007B000822F817020FF06C08091E80080FF06C074
:1007C00080E008952091E80022FD1AC08091710513
:1007D000882389F0853089F08091EB0085FD0FC07A
:1007E0002091E4003091E50042175307F9F291504F
:1007F000E1F684E0089582E0089583E0089581E0C1
:100800000895EF92FF920F931F93CF937C018B017A
:100810000E94D003C82F811117C08091E80085FD88
:100820000BC08091E8008E778093E8000E94D0038F
:10083000882399F3C82F08C0F70181917F01809325
:10084000F1000150110949F78C2FCF911F910F91A1
:10085000FF90EF9008958091730587FF13C08091FA
:10086000E80082FF06C08091E8008B778093E80063
:1008700004C0809171058111F2CF089580917105B6
:100880008823D9F38091E80080FFF8CF8091E800B9
:100890008E77ECCF982F9093E900242F762F50E09D
:1008A000891731F07091EC002091ED005091F0002B
:1008B00021FD07C09F5F973071F78093E90081E0C9
:1008C00008953091EB003E7F3093EB003091ED00C6
:1008D0003D7F3093ED003091EB0031603093EB00C1
:1008E0007093EC002093ED005093F0002091EE0007
:1008F00027FDE0CF80E00895CF92DF92EF92FF9244
:100900000F931F93CF93DF93C8EDD0E088818F7E44
:100910008883E7EDF0E080818160808384E082BF9E
:1009200081E080934C0588818E7F888302EE10E001
:10093000F80110821092DA0081EEC82ED12CF60157
:10094000108288818F7788838881806888838881F6
:100950008F7D888319BC10927105109272051092D8
:10096000700510926F0590EEE92EF12CF701808151
:100970008B7F808388818160888342E060E080E0B3
:100980000E944A04F60180818E7F8083F801808175
:1009900081608083808188608083F70180818E7F81
:1009A0008083888180618883DF91CF911F910F912F
:1009B000FF90EF90DF90CF900895FC018091790532
:1009C00090917A0586179707A0F06115710529F4B3
:1009D0009091E8009E779093E80090E06115710592
:1009E00051F4911108C08091E80082FF34C080E08A
:1009F0000895BC01F2CF809171058823C1F1853043
:100A0000C1F18091E80083FD30C08091E80082FD53
:100A1000EACF8091E80080FFE1CF8091F300209140
:100A2000F200382F6115710519F02830310558F0A2
:100A300091E02830310509F090E02091E8002E7710
:100A40002093E800CBCF81918093F1006150710930
:100A50002F5F3F4FE7CF80917105882341F08530AC
:100A600041F08091E80083FFBECF81E0089582E0ED
:100A7000089583E0089580914E050895909138057A
:100A8000803F59F48091390587FF0DC010923905D8
:100A900091110BC01092340508C0813F81F4809100
:100AA000390518169CF3992381F080913A059091AD
:100AB0003B05892B09F064C0109231050895823FEF
:100AC00049F497FFF0CF10923805809139058111D4
:100AD000ECCFE0CF833F19F41916ACF3E4CF2091AB
:100AE0003A05893F29F41216F4F610923A05DBCF45
:100AF0008A3F19F427FFD7CFF8CF20913B058B3FD2
:100B000029F427FFD0CF10923B05CDCF8C3F19F4AD
:100B10001216CCF3C8CF843F31F4809137058E7F15
:100B200080933705C0CF853F21F4809137058D7FB5
:100B3000F7CF863F21F4809137058B7FF1CF873F38
:100B400021F480913705877FEBCF883F21F4809196
:100B500037058F7EE5CF8D3F31F4809105058E7F7F
:100B600080930505A0CF8E3F21F4809105058D7FF0
:100B7000F7CF8F3F09F097CF809105058B7FF0CF9E
:100B800008958091050580FD1AC081FD14C082FD85
:100B900014C080913105882391F08C3370F427E0E4
:100BA000829FC00111246CE370E00E947621862FA1
:100BB000672B29F0089583E0089587E0089581E088
:100BC00008958091050580FD16C081FD16C082FD47
:100BD00018C080913405882391F08C3390F423E27F
:100BE000829FC00111246CE370E00E947621862F61
:100BF000672B49F0089588E0089581E1089585E024
:100C0000089583E2089581E00895803F31F40E94C1
:100C1000E1058195809339050895813F19F40E947B
:100C2000E105F8CF823F31F40E94E1058195809380
:100C300038050895833F19F40E94E105F8CF893FF4
:100C400029F40E94C10580933A0508958A3F21F452
:100C50000E94C1058195F7CF8B3F31F40E94C105F9
:100C6000819580933B0508958C3F19F40E94C1053E
:100C7000F8CF843F31F48091370581608093370548
:100C80000895853F21F4809137058260F7CF863F34
:100C900021F4809137058460F1CF873F21F4809162
:100CA00037058860EBCF883F21F48091370580615C
:100CB000E5CF8D3F31F48091050581608093050576
:100CC00008958E3F21F4809105058260F7CF8F3F14
:100CD000B9F7809105058460F1CF9C014FB7F89476
:100CE0008091010590910205A0910305B091040542
:100CF0004FBF821B930B0895209116012223C9F048
:100D000020911E0527FF15C0E62FE695E695E6958E
:100D1000EE31D8F4E80FF92FF11D677021E030E0D3
:100D200001C0220F6A95EAF7209582812823228349
:100D30000895FC01329608962191621303C0DF01E9
:100D400011971C92E817F907B9F708952091160139
:100D50002223C1F020911E0527FF14C0E62FE6953F
:100D6000E695E695EE31F8F4E80FF92FF11D67707E
:100D700021E030E001C0220F6A95EAF78281822BE0
:100D800082830895FC0132962FEF30E04191641781
:100D900051F02F3F19F4411101C0232F3F5F36302E
:100DA000A9F72F3F09F40895820F911D27FD9A9509
:100DB000FC01628308958091FC0481111092FC046F
:100DC00008958091FB049091FA04892B9091F90485
:100DD000892B809358019091FC049923A1F0892BD1
:100DE0008093580180911601882341F180911E055E
:100DF00087FF24C08EE1EAE5F1E090E0815000F544
:100E000091110E94DB06E0912005F09121053097B9
:100E1000E1F080911601882359F080911E0587FF2B
:100E200007C0809158018093590185E08093580153
:100E30000280F381E02D88E591E0099486E0DBCF24
:100E400021912223D9F29F5FD9CF0895E92FEE0F88
:100E5000E90FEE0F8E0F982F9770869586958695E1
:100E600025E0829FF0011124EF53FB4F50E040E05A
:100E700080E0219130E0092E02C0369527950A9432
:100E8000E2F721703327042E01C0220F0A94EAF7FB
:100E9000822B4F5F5F4F4530510559F70895E92F79
:100EA000EE0FE90FEE0F8E0F982F977041E001C003
:100EB000440F9A95EAF786958695869595E0899FE1
:100EC000F0011124EF53FB4F30E020E070E051912E
:100ED000DF011197CB01022E02C0969587950A94E7
:100EE000E2F7817081958527842385278C932F5F76
:100EF0003F4F2530310559F708958091C0049091F6
:100F00008F04981301C008958F5F8770FACF8823EC
:100F100041F080959091FB0489238093FB040C940D
:100F2000E1060895882339F09091FB04982B909363
:100F3000FB040C94E1060895209182013091830115
:100F40002817390771F09093830180938201E09113
:100F50002005F0912105309721F00084F185E02DE6
:100F60000994089520918001309181012817390753
:100F700071F09093810180938001E0912005F091C0
:100F80002105309721F00680F781E02D099408951E
:100F9000E0912005F0912105309721F00190F0813A
:100FA000E02D099480E0089590911E0592FF06C0FF
:100FB000282F28712830F9F4877F846093FF06C0BA
:100FC000282F28712831F1F4877E846120911F0534
:100FD00020FF06C0382F38713830D9F4877F816000
:100FE00021FF06C0282F28712831D1F4877E816126
:100FF00094FD877E0895282F24712430F9F68B7F85
:101000008860DCCF282F2471243101F78B7E886122
:10101000DDCF382F3171313019F78E7F8860E0CF06
:10102000282F2171213121F78E7E8861E1CFCF9366
:10103000DF93972F70E026E0929F600D711D1124C1
:10104000FB0134E5839FE00DF11D1124EE0FFF1F1E
:10105000E158FD4FC591D491CE01C238D105B9F107
:10106000E8F5C133D10509F499C050F5C932D1056D
:1010700009F48DC0CA32D10509F497C0C11521E524
:10108000D20708F0BFC0C11530E5D30708F016C17C
:10109000C83ED10508F09DC0C03ED10568F5C83AEC
:1010A000D10508F089C0C53AD10508F0FFC0C130AC
:1010B000D10511F1209709F443C02497E8F440C00A
:1010C000C533D10509F45CC0C933D105B9F6209107
:1010D0001E05237089F080EE90E00EC0C33ED1055E
:1010E00091F168F4C03ED105F9F0C23ED10531F668
:1010F00020911E0522FD20C0DF91CF910895C63EAC
:10110000D10561F1C73ED10581F1C43ED10509F099
:10111000B5CF20911F0521FFEFCF80911E0584FDE3
:101120000FC087EE90E0E8CF20911E0520FD12C190
:1011300030911F0530FFE0CF83EE90E024FFDCCF3D
:1011400090E080E0D9CF20911E0522FD06C13091AC
:101150001F0530FDC0CF24FFCFCFF2CF20911E0559
:1011600023FFCACF24FDECCFDCCF20911E0523FD49
:10117000F7C030911F0531FFEECF84EE90E0BCCF79
:1011800020911E0525FFB8CF89E290E0B5CF2091D0
:101190001E0525FFB1CF85E390E0AECF20911E055F
:1011A00026FFAACF8AE290E0A7CF20911E0526FF56
:1011B000A3CF81E390E0A0CFCF3BD10508F6C85A7A
:1011C000D0E0CC0FDD1FC65EDE4F8881998194642C
:1011D00093CFC11520E2D20760F4C11531E0D307E7
:1011E00008F08ACFCE019065C03FD10508F084CFCA
:1011F000A7CFC11580E4D80708F4A2CFCE019F7015
:10120000906A7ACFC11595E5D90710F5C11524E587
:10121000D20708F088C0C11533E5D30708F06FC0C6
:10122000C11582E5D80708F465C09E0123703327F5
:1012300081E090E002C0880F991F2A95E2F7C695D9
:10124000C69520E2C29FE00111248C2B9D2B50C03B
:10125000C11599E5D907A0F4C11528E5D20708F012
:1012600067C0C11536E5D30708F06ACF8C2F0E94FE
:10127000D40790E0982F882788279F7190623CCFF1
:10128000C1158AE5D80708F458C0CE0190568115DB
:10129000904208F055CF8D2F8F710E94D40790E0B7
:1012A000982F882788279F718C2BE8CFC55AD0E0CC
:1012B000C95EDE4F888190E090641ECF9E01E4E01D
:1012C00036952795EA95E1F723708C2F86958695BC
:1012D000837030E2839FC0011124922BC37021E000
:1012E00030E002C0220F331FCA95E2F7822B932B06
:1012F0009C6802CF9C2F8827816F906AFDCE9E014B
:101300002370332781E090E002C0880F991F2A954F
:10131000E2F7C695C69530E2C39FE00111248C2BFD
:101320009D2B9A68E9CE9C2F8827846F906AE4CE23
:101330009C2F8827806F906ADFCE8C2F8F700E9441
:10134000D40734E0D695C7953A95E1F7CF709C2F36
:101350009069D2CE89E390E0CFCE82EE90E0CCCE01
:1013600086EE90E0C9CEBF92CF92DF92EF92FF92CD
:101370000F931F93CF93DF938C01C0901A05D090E9
:101380001B05E0901C05F0901D058091FD049091D7
:10139000FE04A091FF04B0910005C82AD92AEA2AC8
:1013A000FB2ACFE1D0E0BC2ED701C6010C2E04C031
:1013B000B695A795979587950A94D2F780FD0EC0AC
:1013C000219788F7B12C8B2DDF91CF911F910F9131
:1013D000FF90EF90DF90CF90BF900895B8018C2FD1
:1013E0000E941708019761F3EECFCF93DF93EC01D2
:1013F0000E94B309BE01DF91CF910C9417080E949F
:10140000F509292F2F7092959F7092509E3078F495
:10141000E92FF0E0EB5FFC4D0C948A21803F19F03E
:1014200020F4883E20F481E00895843FE1F380E0D9
:101430000895883EC0F3813FD1F7F5CF822F86957E
:1014400086958695089527982F98089526982E9822
:10145000089525982D98089556985E980895279A8E
:101460002F9A0895269A2E9A0895259A2D9A0895CE
:10147000CF92DF92EF92FF92CF936B017C01C70175
:10148000AA27BB27C0E10097A105B10519F4D70130
:10149000CB01C0E0492F5A2F6B2F772741155105FB
:1014A0006105710519F0C85FDB01CA01AC01BD011E
:1014B000E4E07695679557954795EA95D1F74115FC
:1014C00051056105710519F0CC5FDB01CA01AC0162
:1014D000BD0132E076956795579547953A95D1F7D6
:1014E000411551056105710519F0CE5FDB01CA0197
:1014F000B695A79597958795892B8A2B8B2B09F005
:10150000CF5F0E942C0A0E94290A0E94260A0E948C
:10151000230AC150C73040F4EC2FF0E0ED5EFC4DE3
:101520000C948A210E94350AC701B601CF91FF9021
:10153000EF90DF90CF9008950E94350A0E94320A02
:10154000F3CF0E94350A0E942F0AEECF0E94350A7F
:101550000E94320AF8CF209828982198299822983A
:101560002A9823982B9852985A9853985B983E98AB
:10157000469808958098889A8198899A84988C9A38
:1015800085988D9A86988E9A87988F9A0895CF938A
:1015900084E090E00E949021C82F81E290E00E94B8
:1015A0009021982F8C2FCF910895CF93DF9300D067
:1015B0000F92CDB7DEB790917105943019F58983FC
:1015C0007B836A8383E08093E9008FEF9091E8004A
:1015D000815095FD06C095ED9A95F1F700008111B7
:1015E000F5CF8091E80085FF0DC050E040E063E05A
:1015F00070E0CE0101960E9401048091E8008E7790
:101600008093E8000F900F900F90DF91CF91089595
:10161000BC0184E00C94D50ABC0183E00C94D50A8B
:101620009C0182E08093E9009FEF8091E800915057
:1016300085FD06C085ED8A95F1F700009111F5CF83
:101640008091E80085FF0CC050E040E065E070E06C
:10165000C9010E9401048091E8008E778093E80020
:101660000895CF93DF93EC01809116018823B1F1A7
:1016700080911E0587FF32C060E283E08093E9001D
:101680008FEF9091E800815095FD06C095ED9A95F9
:10169000F1F700008111F5CF8091E80085FF1BC0B4
:1016A0008091160170E050E040E0811104C050E0EC
:1016B00040E068E070E0CE010E9401048091E80003
:1016C0008E778093E80080E2FE01AFE4B5E0019000
:1016D0000D928A95E1F7DF91CF91089568E081E05E
:1016E000CDCFEF92FF920F931F93CF93DF930E9482
:1016F0002C0A0E94290A0E94260A0E94230A88E8CE
:10170000E82EF12C8FEF90E0F701918380830AE8B7
:1017100010E0F80191838083CCE8D0E0998388833E
:101720000E94350AFFEF20E782E0F1502040804020
:10173000E1F700C000000E94320A9FEFE0E7F2E00C
:101740009150E040F040E1F700C000000E942F0AF5
:101750002FEF80E792E0215080409040E1F700C0F9
:1017600000000E94290AEFEFF0E722E0E150F0408C
:101770002040E1F700C000000E94260A8FEF90E7AA
:10178000E2E081509040E040E1F700C000000E949C
:10179000230A809108058770FFEF8F9FC0011124F5
:1017A00095958795959587959927F70191838083DE
:1017B000F80191838083998388830E942C0A0E9478
:1017C000290A0E94260ADF91CF911F910F91FF9065
:1017D000EF900C94230A6FEE7EEF90E080E00E9481
:1017E000C22160E082E090E00E94A42160E083E0FA
:1017F00090E00E94A4211092FD041092FE04109229
:10180000FF041092000560E084E090E00E94A421B3
:1018100060E081E290E00E94A42160E085E090E039
:101820000E94A42160E086E090E00E94A4216FEF76
:1018300087E090E00E94A42140E050E0BA0188E0F7
:1018400090E00E94B62160E08DE090E00E94A4212B
:1018500040E050E0BA0188E190E00E94B62160E0EB
:1018600087E190E00E94A42140E050E0BA018CE1C1
:1018700090E00E94B62160E080E290E00E94A42106
:1018800040E050E0BA0188E190E00E94B621109259
:1018900008051092090510920A0510920B0584E0C4
:1018A0008061809308054091080550910905609179
:1018B0000A0570910B058FE090E00E94B62140E090
:1018C00050E0BA0183E190E00C94B621CF93C82F89
:1018D000873070F580910A0190910B01892B89F571
:1018E00064E670E080E40E94AF2090930B01809347
:1018F0000A01892BD1F464E670E082E10E940B2199
:1019000090930B0180930A01892B79F481E090E098
:1019100001C0880FCA95EAF764E670E080950E94DE
:101920000B2190930B0180930A01CF910C945E21BF
:101930008A30B9F040F4883071F0893079F0209A1B
:101940002898CF9108958C3091F070F08D30B9F7D0
:101950003E9A4698F6CF219A2998F3CF229A2A9850
:10196000F0CF239A2B98EDCF529A5A98EACF539AF8
:101970005B98E7CF80E290E090930B0180930A019F
:101980008091780181110EC00E94A92081E080938E
:1019900078012FEF83ED90E3215080409040E1F7F4
:1019A00000C0000064E670E080E40E94AF209093E5
:1019B0000B0180930A01892B09F04EC064E670E0A8
:1019C00080E00E940B2190930B0180930A01892BE8
:1019D00009F042C064E670E080E00E940B21909321
:1019E0000B0180930A01892BB9F564E670E08FE35F
:1019F0000E940B2190930B0180930A01892B61F5C2
:101A00000E945E2164E670E080E40E94AF20909323
:101A10000B0180930A01892BF9F464E670E08CE0F5
:101A20000E940B2190930B0180930A01892BA1F452
:101A300064E670E080E00E940B2190930B0180939C
:101A40000A01892B49F464E670E08FE30E940B21C0
:101A500090930B0180930A010E945E2180910A01FC
:101A60000895CF93873050F580910A0190910B0132
:101A7000C0E0892B71F464E670E081E40E94AF203D
:101A800090930B0180930A01892B31F0C0E00E94F2
:101A90005E218C2FCF91089584E690E00E943A2138
:101AA00097FF05C090930B0180930A01EFCFC82FD9
:101AB000C09510920B0110920A01E9CFCFB18FB1FE
:101AC000869586958C73C3708C2BC82FC095E1CFFB
:101AD0001F920F920FB60F9211242F933F934F93A3
:101AE0005F936F937F938F939F93AF93BF93EF9386
:101AF000FF938091E10082FF09C08091E20082FFA4
:101B000005C08091E1008B7F8093E1008091DA0035
:101B100080FF24C08091D80080FF20C08091DA002F
:101B20008E7F8093DA008091D90080FF9BC080E196
:101B300089BD82E189BD09B400FEFDCF81E08093BB
:101B4000710580914C05811109C00E94B1030E946A
:101B50007C048091E20084608093E2008091E10047
:101B600080FF17C08091E20080FF13C08091E200E7
:101B70008E7F8093E2008091E20080618093E2009A
:101B80008091D80080628093D80019BC85E0809352
:101B900071058091E10084FF29C08091E20084FFFB
:101BA00025C080E189BD82E189BD89B5982F9170FA
:101BB00080FFFBCF8091D8008F7D8093D8008091EB
:101BC000E1008F7E8093E1008091E2008F7E809320
:101BD000E2008091E20081608093E20080917205D2
:101BE000882309F445C084E0809371058091E10069
:101BF00083FF27C08091E20083FF23C08091E10032
:101C0000877F8093E10082E08093710510927205D6
:101C10008091E1008E7F8093E1008091E2008E7FD1
:101C20008093E2008091E20080618093E20042E0D4
:101C300060E080E00E944A048091F0008860809318
:101C4000F000FF91EF91BF91AF919F918F917F91A4
:101C50006F915F914F913F912F910F900FBE0F9019
:101C60001F90189519BC1092710510924C0576CFF3
:101C70008091E30087FD93E090937105B7CF78944E
:101C80001F921FB61F9211248F939F93AF93BF9300
:101C90008091010590910205A0910305B091040582
:101CA0000196A11DB11D8093010590930205A0939B
:101CB0000305B0930405BF91AF919F918F911F9041
:101CC0001FBE1F9018952FB7F89480910105909131
:101CD0000205A0910305B09104052FBF08950E944D
:101CE000630E9C019091380580913905982B21F065
:101CF000309336052093350590913A0580913B0548
:101D0000982B21F03093330520933205E091200584
:101D1000F0912105309731F00480F581E02D87E3C3
:101D200095E0099408951092FA041092F9040E9423
:101D3000E10685E0E7E3F5E0DF011D928A95E9F72A
:101D40001092340510923105109205050E946F0E15
:101D500090E080E00E94B20790E080E00C949C0745
:101D60000E94380A60931A0570931B0580931C0526
:101D700090931D050C94930E0F931F9341E050E038
:101D800060E070E004C0440F551F661F771F8A95FE
:101D9000D2F7CB01BA01609570958095909500912E
:101DA0001A0510911B0520911C0530911D0560231B
:101DB0007123822393231F910F910C94B00E909165
:101DC000F804809589238093F804282F277071F4F4
:101DD000282F082E000C330B9217130639F0859527
:101DE000859585950E94BC0E1092F80408950F9376
:101DF0001F9341E050E060E070E004C0440F551FC5
:101E0000661F771F8A95D2F780911A0590911B055E
:101E1000A0911C05B0911D058A019B01082B192B6F
:101E20002A2B3B2BC901B8011F910F910C94B00EC6
:101E300060E070E0CB010C94B00E6093FD047093F1
:101E4000FE048093FF04909300050C94930E10926F
:101E5000FB0480911601EAE5F1E0882359F08091B6
:101E60001E0587FF07C08EE1DF011D928A95E9F705
:101E70000C94930E86E0F8CF1F93CF93DF93CDB7EA
:101E8000DEB7AA970FB6F894DEBF0FBECDBF83E7CB
:101E900095E02091F100DC012D93CD01B5E08B3769
:101EA0009B07B9F780917405833009F471C0B8F4C9
:101EB000813009F448C0823009F4B2C08091E80052
:101EC00083FF83C280917305909174059A3008F066
:101ED0007CC2E92FF0E0E65EFC4D0C948A218A304A
:101EE00009F48DC08B3009F470C0893039F78091C6
:101EF0007305813219F780917705909178050097E5
:101F000011F00297D9F68091E800877F8093E8006E
:101F10008091E80082FF37C09091F3008091F20039
:101F2000029729F48091F1008B7F813021F4809118
:101F3000F10080934E058091E8008B778093E80054
:101F40000E942B04BBCF80917305813A09F0B6CF74
:101F50008091E800877F8093E800809177059091D9
:101F60007805892B61F460E28FE495E070E00E94CF
:101F7000DD048091E8008B778093E8009FCF60E0DC
:101F800090E080E0F3CF809171058111C1CF96CFB1
:101F900080917305813A09F091CF809177059091F6
:101FA0007805892B09F08ACF8091E800877F80939C
:101FB000E8008091E80080FFFCCF809116018093BB
:101FC000F1008091E8008E77B9CF8091730581325E
:101FD00009F074CF8091770590917805892B09F0ED
:101FE0006DCF8091E800877F8093E8000E942B04EA
:101FF00080917505809316010E94270F5FCF809115
:102000007305813209F05ACF8091E800877F809371
:10201000E8000E942B048091760580934D054ECFF9
:1020200080917305813A09F049CF8091E800877F5C
:102030008093E8008091E80080FFFCCF80914D05FF
:10204000BECF803899F0823809F0BFC18091770502
:102050008F70873008F0B9C18093E9008091EB0060
:1020600085FB882780F91092E90006C080916F05F2
:1020700090917005911182609091E800977F909304
:10208000E8008093F1001092F1008091E8008E77D3
:1020900098C1882309F486C1823009F096C18091E5
:1020A0007505811189C1809177058F702FEF280FF9
:1020B000263008F08AC18093E9002091EB0020FFD0
:1020C0007BC1933031F48091EB0080628093EB0010
:1020D00073C19091EB0090619093EB0021E030E0B0
:1020E00001C0220F8A95EAF72093EA001092EA00D5
:1020F0008091EB008860EACF811167C1109175056E
:102100001F778091E3008078812B8093E30080919A
:10211000E800877F8093E8000E942B048091E8000C
:1021200080FFFCCF8091E30080688093E30082E031
:10213000111183E08093710548C18058823008F006
:1021400044C120917505309176052C3DE3E03E07B2
:10215000A1F583E08A838AE289834FB7F894DE0190
:10216000139620E03EE051E2E32FF0E05093570059
:10217000E49120FF03C0E295EF703F5FEF708E2F78
:1021800090E0EA30C0F0C7968D939D932F5F243185
:1021900059F74FBF8091E800877F8093E8006AE29B
:1021A00070E0CE0101960E94DD048091E8008B77FB
:1021B0008093E8000AC1C096E7CF8091770590919F
:1021C0007805432F55274330510509F44AC078F567
:1021D0004130510509F47AC084E590E0EFE6F6E07D
:1021E0004230510509F0F1C02091E800277F20938B
:1021F000E8002091790530917A058217930708F459
:102200009C0140E02115310509F065C0411163C012
:102210008091E80082FDC9CF80917105882329F261
:10222000853019F28091E80083FFF2CFBECF4132B2
:10223000510509F43CC04232510509F0C6C0833053
:10224000910508F0C2C0FC01EE0FFF1FE55BFE4FD9
:102250000190F081E02D885B9E4FDC018C9190E035
:102260001AC0332721303105D1F02115310561F035
:102270002230310509F0A9C0E5EDF6E0E4918E2F9A
:1022800090E0E5EDF6E007C0EFE1F7E0E4918E2F96
:1022900090E0EFE1F7E0009709F497C0A5CFEDEEED
:1022A000F6E0E4918E2F90E0EDEEF6E0F4CF83308F
:1022B000910508F08AC0880F991FFC01EF5AFE4F64
:1022C0000190F081E02D89E090E08ECF82E190E0F6
:1022D000E3ECF6E089CF80917105882309F465CF9E
:1022E000853009F462CF8091E80083FD5ECF809154
:1022F000E80082FD8DCF8091E80080FF83CF909130
:10230000F3008091F2002115310519F08830910514
:1023100050F041E0089709F040E08091E8008E77A6
:102320008093E8006FCF44914093F10031962150A3
:1023300031090196E8CF803809F047C08091E80064
:10234000877F8093E800809172058093F1009DCE95
:1023500081113BC0109175051230B8F58091E800ED
:10236000877F8093E800109372050E942B0411234D
:1023700011F084E005C08091E30087FDFACF81E091
:102380008093710542E061EC81E00E944A0442E0E2
:1023900061EC82E00E944A0442E261EC83E00E9428
:1023A0004A0413C080917505813079F481E093303F
:1023B00009F080E0809370051092E9008091E800B8
:1023C000877F8093E8000E942B048091E80083FFC0
:1023D0000AC08091E800877F8093E8008091EB003D
:1023E00080628093EB00AA960FB6F894DEBF0FBE12
:1023F000CDBFDF91CF911F9108951F920F920FB61D
:102400000F9211242F933F934F935F936F937F937A
:102410008F939F93AF93BF93CF93DF93EF93FF93EC
:10242000D091E900DF708091EC00C82FC17080FD71
:10243000C0E81092E9008091F000877F8093F0005F
:1024400078940E943C0F1092E9008091F00088601F
:102450008093F000CD2BCF70C093E900FF91EF91F6
:10246000DF91CF91BF91AF919F918F917F916F91AC
:102470005F914F913F912F910F900FBE0F901F9042
:1024800018958823B1F19CEF980F913A38F4682F92
:1024900088E591E00E947C060C94E10690E2980F9A
:1024A000983088F4877021E030E0A90102C0440F21
:1024B000551F8A95E2F7CA0180959091FB04892304
:1024C0008093FB04E9CF9BE5980F933020F490E0D4
:1024D00080E00C94B20798E5980F973120F490E0D3
:1024E00080E00C949C07803F20F00E943E050C94F5
:1024F0006F0E0895CF93C82F882309F46EC08CEF18
:102500008C0F813AB8F580911601882311F18091E2
:102510001E0587FF1EC0EC2FE695E695E695F0E0D8
:10252000E85AFE4F828190E04C2F477021E030E066
:1025300002C0220F331F4A95E2F782239323892B8F
:1025400089F06C2F88E591E00E947C060E94E106EC
:1025500009C0EAE5F1E08191C81799F381E0E0361E
:10256000F807C9F76C2F88E591E00E94A606CF9185
:102570000C94E10680E28C0F883068F4C77021E08B
:1025800030E001C0220FCA95EAF78091FB04822B4C
:102590008093FB04ECCFEBE5EC0FE33040F4F0E08C
:1025A000E95EFE4F808190E0CF910C94B207E8E5A0
:1025B000EC0FE73150F4F0E0EE0FFF1FE65EFE4F48
:1025C00080819181CF910C949C07C03F30F08C2F7B
:1025D0000E940506CF910C946F0ECF910895CF9372
:1025E000C82F0E947A12C93349F42FEF87EE93E087
:1025F000215080409040E1F700C000008C2FCF9127
:102600000C9441120F931F93CF93DF93C62FD42FB7
:10261000022FFC0182818823A1F060937D050E9436
:10262000630E90937C0580937B05C77081E001C0A9
:10263000880FCA95EAF7DF91CF911F910F910C9403
:10264000920780917D05681335C080917B0590913C
:102650007C050E946D06883C910560F510E21D0F17
:10266000CD17B9F080E28C0F883040F4C77081E05C
:1026700001C0880FCA95EAF70E948707183048F40E
:1026800081E09D2F977001C0880F9A95EAF70E940C
:102690009207802F0E94EF12183098F4D77081E0D3
:1026A00001C0880FDA95EAF7DF91CF911F910F9162
:1026B0000C948707C77081E001C0880FCA95EAF7BC
:1026C000F3CFDF91CF911F910F910895CF92DF92B9
:1026D000EF92FF920F931F93CF93DF93EC018AE069
:1026E000C82EFE018491882309F481C0813009F04D
:1026F0003EC031968491813039F42296FE01849156
:102700000E94EF122196EDCF823031F42296FE0125
:1027100084910E947A12F6CF833031F42296FE0122
:1027200084910E944112EECF843009F05EC022965F
:10273000FE01249190E080E0FE0131962053330B9E
:102740002A30310548F00197E8F2EFE9FFE03197D0
:10275000F1F700C00000F7CFC89EA001C99E500D40
:102760001124C901840F951F2491EF01E5CFE82FB3
:10277000F0E0EA53FE4FD490082F06950695069593
:1027800010E0F801EA54FE4FE4908770F12C082E17
:1027900002C0F594E7940A94E2F721E0E222FF24D4
:1027A0000A551E4FF801049110E002C015950795D7
:1027B0008A95E2F701701127E114F10419F081EE16
:1027C0000E947A120115110519F086EE0E947A1204
:1027D0008D2D0E94EF12012B19F086EE0E944112FE
:1027E000EF2809F48FCF81EE9CCFEF018BCFDF91E3
:1027F000CF911F910F91FF90EF90DF90CF900895B0
:102800004F925F926F927F928F929F92AF92BF9200
:10281000CF92DF92EF92FF920F931F93CF93DF93AC
:1028200000D000D00F92CDB7DEB77C01FC018381D0
:102830009481892B39F01081D180812F8D218F3F98
:1028400009F005C60F900F900F900F900F90DF9139
:10285000CF911F910F91FF90EF90DF90CF90BF909D
:10286000AF909F908F907F906F905F904F90089562
:102870000E94B309082F682F89819A810E944F070F
:10288000E12FF0E026E0D29EE00DF11D112434E5A9
:10289000039FE00DF11D1124EE0FFF1FE158FD4FC6
:1028A0000591149180918704811133C1F7018281D0
:1028B00081110CC00530FDE51F0709F4EFC008F0D9
:1028C00092C004303DE5130709F4B3C00A322DE588
:1028D000120709F0C5C1F70182818823C9F18091EF
:1028E000080591E0980F9770887F953008F4892B40
:1028F00080930805809108058770FFEF8F9FC001C6
:10290000112495958795959587959927909389009A
:102910008093880090938B0080938A0090938D0021
:1029200080938C00409108055091090560910A053B
:1029300070910B058FE090E00E94B62160911A051E
:1029400070911B0580911C0590911D050E94380A0D
:10295000F7018281882309F48BC510927D0502302E
:10296000FCE51F0708F4C4C206312CE5120738F055
:1029700098012B5F3C452730310508F0B9C20E9411
:10298000C70A90931F0580931E050F303CE513077F
:1029900009F48FC208F009C208309CE5190709F450
:1029A00072C208F0DEC10430FCE51F0709F45FC203
:1029B00008F0C4C102303CE5130709F450C20330EB
:1029C0001C4509F450C260911E0510911F0584E05A
:1029D00090E00E94A421612F81E290E00E94A42156
:1029E0000E94270F39C007308DE5180709F46BC026
:1029F00008309DE5190709F069CFC0900601D09015
:102A0000070180901A0590901B05A0901C05B090BE
:102A10001D050E94270F0E94180F0FE714E0C01633
:102A2000D10609F465C0C8010E94001406501109BE
:102A3000F6CF11E0109384010E94630E0E94350AC4
:102A40000E94270F0E94180F85E891E0909386045A
:102A500080938504109387048091F804877009F4AB
:102A6000F1CEF7018281882309F4ECCE82E00F9049
:102A70000F900F900F900F90DF91CF911F910F91BA
:102A8000FF90EF90DF90CF90BF90AF909F908F908E
:102A90007F906F905F904F900C94DF0E81E0809359
:102AA00084010E94630E0E94350A0E94270F0E9433
:102AB000180F8FE794E0909386048093850482E05A
:102AC00080938704C9CFC0900801D09009018090FD
:102AD0001A0590901B05A0901C05B0901D050E9442
:102AE000270F0E94180F05E811E0C016D10659F40F
:102AF0000E94270F80921A0590921B05A0921C0538
:102B0000B0921D05A9CFC8010E9400140A5F1F4F93
:102B1000ECCF980124503D452330310508F051C0D9
:102B200091E006301D4509F490E0F7012281291754
:102B300009F492CF813029F0823019F11092870484
:102B40008BCF0091850410918604109284016091CE
:102B50001A0570911B0580911C0590911D050E941E
:102B6000380AF1E005381F0729F0F801369782810D
:102B7000811105C01093090100930801DFCF8F0177
:102B8000F0CF009185041091860410928401609129
:102B90001A0570911B0580911C0590911D050E94DE
:102BA000380A24E00F37120729F0F801369682819F
:102BB000811105C01093070100930601BFCF8F015B
:102BC000F0CF813031F1823009F080CE20910801C0
:102BD00030910901A0918504B0918604F7018281AA
:102BE000811105C0F4E0AF37BF0709F46FCECD0106
:102BF00006962817390709F469CE86E0F701019097
:102C00000D928A95E1F7809185049091860406974C
:102C100022C02091060130910701A0918504B09156
:102C20008604F7018281811105C0F1E0A538BF0754
:102C300009F44CCECD0106972817390709F446CE82
:102C400086E0F70101900D928A95E1F78091850465
:102C5000909186040696909386048093850436CEE0
:102C60000F322DE51207D1F1E8F40D328DE518078A
:102C700019F10E329DE5190749F1043FFCE51F07E4
:102C800009F44DC0D0F5093D3CE5130709F443C0F4
:102C90000A3D8CE5180709F44EC0083D9CE519076C
:102CA00049F056CE0033EDE51E0701F10133FDE595
:102CB0001F0719F726E21BC0F7018281882309F458
:102CC00047CE8CE692E00E94661342CEF7018281E5
:102CD000882309F43DCE89E592E0F5CFF7018281A2
:102CE000882309F435CE86E492E0EDCF25E241EE6B
:102CF00061EEC7010E940213AFCE063FECE51E074E
:102D0000B1F088F0073F2CE5120709F021CE27E249
:102D100045EE66EEEECF27E245EE65EEEACF26E21F
:102D200041EE60EEE6CF27E245EE64EEE2CF26E22A
:102D300041EE62EEDECF28E241E0EFCF80911E054A
:102D4000806106309CE5190709F447C080911E0593
:102D5000886007301C4508F440C080911E058062E1
:102D60003CC00B30FCE51F0709F49BC068F4093038
:102D70003CE5130709F48BC00A301C4509F023CE4B
:102D800080911E058C6029C080911E058B7F0D30BF
:102D90009CE5190711F180911E058D7F0E301C45B1
:102DA000E0F080911E05877F18C00B3FFCE51F07F0
:102DB00009F461C060F502313CE5130709F481C0F4
:102DC00078F400319CE5190709F477C080911E055D
:102DD0008F7B01311C4509F0F6CD80931E05F3CDA4
:102DE0000431FCE51F0709F47AC008F470C005310E
:102DF0001C4509F0E8CD80911E0582FB992790F9CA
:102E000021E0922790FB82F990FB83F9E6CF0E3FF9
:102E10008CE5180709F449C070F40C3FECE51E0777
:102E200071F180911F058E7F0D3F1C4509F0CBCDC0
:102E300080931F05C8CD01152DE5120709F44BC07D
:102E400060F101301D4509F0BECD80911F05982F1E
:102E5000909591708E7F892B90FB81F9E9CF8091BD
:102E60001E058160BACF80911E058260B6CF809129
:102E70001E058460B2CF80911F058160D9CF8091FB
:102E80001F058260D5CF80911E058064A6CF0E9469
:102E9000270F80911E058068A0CF80911F05836059
:102EA000C7CF80911E058E7F98CF80911F058D7FA3
:102EB000BFCF80911E058F7E90CF80911E058F7DA4
:102EC0008CCF0E94270F80911E058F7786CF80912F
:102ED0001E05837F82CF80911F058C7FA9CF0E9422
:102EE000270F90911E05892F97FB87F9805875CF82
:102EF00006319CE5190709F0C8C28091FB048A7A63
:102F000091E009F490E09093880469E2811165E30F
:102F100088E591E00E94A6060E94E1069DCD0E94F0
:102F2000270FEFEFF4E32CE0E150F0402040E1F711
:102F300000C00000F89481E08093E00080E280937C
:102F4000D8001092C9008FE19EE40197F1F700C00C
:102F500000001DBA109268001CBC10BE1FBA10926F
:102F60007A0010926E0010926F0010927100109211
:102F700072001092C9001092BC0014B817B81AB8A9
:102F80001DB810BA1092BC0015B818B81BB81EB8FE
:102F900011BA0C94003F60CD0E94EB0B5DCDC801CF
:102FA0000E942607D82E88C2212F2F70A22E107FB4
:102FB00019F0A29420EFA222DD20C9F0AA2069F026
:102FC00080E2800F883010F081100BC08091FB04EC
:102FD000A82AA092FB040E94E106802F0E947A1288
:102FE00018C08091FA04A82AA092FA04F4CF802F86
:102FF0000E944112AA2069F0A094005E083010F0EF
:10300000811046C08091FB04A822A092FB040E947C
:10301000E1062B2D2850330B2430310510F40E948B
:10302000C807CC20A9F08091F80480FD11C0F701F9
:1030300012828595859585950E94F70EC7010E949D
:1030400000148091F8048595859585950E94BC0EA5
:1030500085E0F701DE01119601900D928A95E1F766
:1030600089819A810E9426079A81E981F0E026E011
:10307000929FE00DF11D112434E5839FE00DF11DB9
:103080001124EE0FFF1FE158FD4F85919491DACB8B
:103090008091FA04A822A092FA04B9CF312F3F7090
:1030A000932E107F103219F0929490EF992288207D
:1030B00041F081E0881631F1DD2079F1AA2041F15B
:1030C0008CCFDD2091F09091FC04892F8929A110EB
:1030D00003C00E9492079DCFE1E0AE12FACF98178D
:1030E00009F497CF8093FC0494CFA11006C00E94EE
:1030F000DB06892D0E9487078CCFF1E0AF1609F41B
:1031000088CFF5CFDD2031F021E02A1508F481CFFA
:10311000892DDFCFA1107DCFECCFAA2051F339E369
:1031200083128EC18FEF97EEE3E081509040E04034
:10313000E1F700C0000084C1812F869586958370D9
:1031400061F0813009F065CFC8019370D11002C0E1
:1031500090E080E00E949C075CCFC8019370D11082
:1031600002C090E080E00E94B20753CF802FDD20A4
:1031700029F00E9405060E946F0E4BCF0E943E056B
:10318000FACF812F837009F066C0D11042CF802F13
:10319000829586958770880F880F602F6F70462EF6
:1031A000512C712C612C082E04C0440C551C661C3B
:1031B000771C0A94D2F740E050E0BA0104FF0FC038
:1031C0004FE050E060E070E004C0440F551F661F00
:1031D000771F8A95D2F74095509560957095812F0D
:1031E000869586958370823019F1D8F40091FD049C
:1031F0001091FE042091FF0430910005813069F0A8
:103200004429552966297729CB01BA016023712306
:10321000822393230E941D0FFCCE402A512A622A4A
:10322000732ACB01BA016429752986299729F2CF1F
:1032300044295529662977290091FD041091FE043F
:103240002091FF0430910005CB01BA01602771275E
:1032500082279327DFCF8695DD2011F0812F8170A3
:10326000882309F4D6CE802F829586958770880FA3
:10327000880F602F6F70462E512C712C612C082EF8
:1032800004C0440C551C661C771C0A94D2F740E01D
:1032900050E0BA0104FF0FC04FE050E060E070E082
:1032A00004C0440F551F661F771F8A95D2F74095BB
:1032B000509560957095812F8695869583708230A4
:1032C00019F1D8F400911A0510911B0520911C05E5
:1032D00030911D05813069F04429552966297729E7
:1032E000CB01BA0160237123822393230E94B00E85
:1032F00090CE402A512A622A732ACB01BA0164294E
:10330000752986299729F2CF4429552966297729D5
:1033100000911A0510911B0520911C0530911D0587
:10332000CB01BA016027712782279327DFCF1F7057
:10333000DD2029F0812F0E94F70E802FCACE802F2A
:103340000E948707812F0E94BC0E63CE802FF2EF70
:103350008F1609F44EC0F81578F020EF821619F197
:1033600031EF831609F43DC0DD2009F464C0A110DB
:1033700034CE812F8F713AC093EF891609F43EC085
:10338000E4EF8E12F1CFDD2009F44AC01F71812FC6
:103390000E94F70E28E0129FC001112483608093E1
:1033A000F804812F23C0DD20B9F0A11032CE1F71A7
:1033B00061E070E080E090E004C0660F771F881F36
:1033C000991F1A95D2F700911A0510911B052091AB
:1033D0001C0530911D05A6CFF1E0FA1508F419CEB1
:1033E000E6CF812F8F71DD2009F4ADCF0E94F70E5B
:1033F00010CE812F8F71DD20C9F3A5CFDD2069F0BC
:103400001F7161E070E080E090E004C0660F771FFC
:10341000881F991F1A95D2F769CF0E94180FF9CD0E
:1034200081E00E94DF0E31E03A1508F0F2CD82E033
:103430000E94DF0EEECDAA2039F0893309F472CE56
:10344000802F0E944112E5CD812F8F717CCF85E0C6
:10345000DE01119601900D928A95E1F7F701228124
:1034600089819A81211104CA0E942607082F08CA5F
:1034700006311C4599F48091880469E2811165E365
:1034800088E591E00E947C0647CD01152CE51207E6
:1034900009F445CD0F3D1C4509F47ECDF7010081AF
:1034A0001181882309F47BCDC8010E94B309D82E6D
:1034B000682FC8010E944F07B8018D2D0E94170880
:1034C0008C01882EF701A580A2944FE0A422D2801F
:1034D000D1101092FA048091F804877099F0DD20E1
:1034E00089F0812F807F803421F080E2800F883046
:1034F00048F082E00E94DF0E8091F8048770CC24AF
:10350000C3948111C12CB12EB2943FE0B322FBE0F1
:10351000FB1508F47ECDEB2DF0E0EC5DFC4D0C943A
:103520008A211F93CF93DF9380918E04807FA9F42B
:1035300080918B04882389F08091C004D0918F04FE
:103540006091890470918A04A0918C04B0918D04DB
:10355000C62FC72316E0D81304C0DF91CF911F9167
:10356000089590E0109711F0CF3F19F401968770FD
:10357000F2CF189F9001199F300D1124F901E057E7
:10358000FB4F41814713F2CF40814613EFCF428179
:103590004111ECCF438154814A1B5B0B483C5105E0
:1035A00028F780918E048F70806180938E04F901DA
:1035B000EB56FB4F80818F708061808389E894E0B7
:1035C0000E940014DF91CF911F910C947D07AF9260
:1035D000BF92CF92DF92EF92FF920F931F93CF9300
:1035E000DF93CDB7DEB761970FB6F894DEBF0FBE9D
:1035F000CDBF8C0185E0F801DE011D9601900D9292
:103600008A95E1F7F80180819181E28029E8A22E74
:1036100024E0B22E60918C0470918D0461157105C7
:1036200009F43EC13091890440918A04232F242358
:103630002F3F09F435C1C380D480F0908B04F6018C
:10364000E61BF70BFF2009F4FBC020918E04522FDC
:10365000507FE83CF10508F0BBC0511178C0FE2C4A
:10366000491321C038131FC0E1101DC02F70206105
:1036700020938E04C5010E94001480918E04F801ED
:1036800085838F2D61960FB6F894DEBF0FBECDBF38
:10369000DF91CF911F910F91FF90EF90DF90CF902E
:1036A000BF90AF900895CD2829F0282F29232F3FD0
:1036B00009F014C120E0F22FF170DF2E20FF3DC091
:1036C0002091C00440918F0456E0241315C08D87CB
:1036D0009E878D859E850E94F509292F22952F7042
:1036E0002230F8F0243020F59F70F9F0F801958130
:1036F000907FD9F4D12C1FC030E0529FF001539F2E
:10370000F00D1124E057FB4F6181961306C06081D4
:10371000861303C06281E61210C02F5F3F4F2770EF
:10372000D4CF9F7011F0882329F3805E883010F386
:10373000C8010E940014FD2CA4CFEE2009F4A1CFF3
:1037400080918E04816080938E04F12C9ACF49136E
:1037500012C0381310C0E1100EC0F8012583C80153
:103760000E94001486E0F801A9E8B4E001900D92EF
:103770008A95E1F786CF8D879E878D859E850E94ED
:10378000FF09882309F1EE20F9F080918E04803240
:1037900070F02091890430918A0438872F8319862C
:1037A000DB86CA868C87CE0107960E94001486E0CD
:1037B000F801A9E8B4E001900D928A95E1F70E9422
:1037C000911AFF24F3945DCFC8010E940014F9CF31
:1037D00051110AC089E894E00E94001486E0F501C6
:1037E00011928A95E9F7B1CF49130FC038130DC074
:1037F000E1100BC0F8012583C8010E94001486E087
:10380000F50111928A95E9F73CCF8D879E878D85CA
:103810009E850E94FF098823B9F2EE20A9F28091CB
:103820008E04803220F22091890430918A043A83F8
:1038300029831B82DD82CC828E83CE010196B5CF97
:10384000E83CF105E0F6FE2CEE2009F4BDCF49136B
:1038500016C0381314C080918E0480FD83CF982F3A
:10386000907F09F47FCFF8018583903F09F477CFEB
:10387000982F907F905F8F70892B858370CF8D8775
:103880009E878D859E850E94FF09811190CF809132
:103890008E04816080938E04C8010E940014F1CED2
:1038A000EE2009F491CF8D879E878D859E850E949D
:1038B000FF09F82E882309F487CF86E0F801A9E8EC
:1038C000B4E001900D928A95E1F78091890490917E
:1038D0008A040E94F5090E94911AD3CE21E02E2578
:1038E000EACE1F93CF93DF93CDB7DEB767970FB6BE
:1038F000F894DEBF0FBECDBF4B8B5C8B6D8B7E8B88
:103900008F8B1A8A198A85E0FE017396DE011D9657
:1039100001900D928A95E1F786E0FE013D96DE0169
:10392000179601900D928A95E1F7CE0107960E94B5
:10393000E71A811112C086E0FE013796DE0111966A
:1039400001900D928A95E1F78A859B85892B29F054
:103950008F81988589238F3FB1F516E08091C0044F
:1039600090918F0489131DC067960FB6F894DEBF3F
:103970000FBECDBFDF91CF911F91089596E0929F2A
:10398000D001939FB00D1124A057BB4FFE0131967B
:1039900001900D929A95E1F780938F040E947D0724
:1039A000DCCF819FC001112480579B4F0E94E71AF2
:1039B0008823D1F28091C00490E001968770992706
:1039C0008093C004CBCF20918F0430E0C9010196D1
:1039D000877099274091C0044817190679F60E940C
:1039E000270F10928F041092C00486E0E9E8F4E0FB
:1039F000DF011D928A95E9F7B0CF8F929F92BF9217
:103A0000CF92DF92EF92FF920F931F93CF93DF93AA
:103A100080910A0190910B01892B91F0809179019D
:103A20008F5F8093790181110BC00E94BA0C90E0E6
:103A300090930B0180930A01892B11F40E94710B62
:103A40002CE0822E25E0922E740110E000E097E039
:103A5000C92EC00E802F0E94660C8C2D0E94660C11
:103A6000802F0E94310DE70199917E01D12C891799
:103A700029F0FE0131978083DD24D3948C2D0E94A0
:103A8000310DF7019681891709F47AC0868381E0A8
:103A90008D29182B0E94AB0A0F5F0730C1F60E94D8
:103AA000630E60917B0170917C0190937C01809307
:103AB0007B0120917A0130E0261B370B820F931F88
:103AC0006BEF70E00E946221E82E392F082F80935F
:103AD0007A01F0907E01FF2009F45EC010927E0111
:103AE000E0910605F0910705AF01425F5F4F20E0CE
:103AF0008BEFB82E6BEF70E0A191AB3F99F0CA2E1F
:103B0000D12C8E2D932F0A17E8F18C199D09092EBF
:103B1000000CAA0BBB0B4E97A105B105C8F1DF0144
:103B20001197BC92E417F50739F720937E01111124
:103B300002C0211133C010927D01A0910605B09101
:103B4000070590917E01E3E2F5E080E03191E40128
:103B500029914E01321751F03C913B3FD9F40C931F
:103B6000AF0141505109EA01288391E01196D5E057
:103B7000E133FD0759F790937E0180937D0112C0D8
:103B800080E086CFDB01AC19BD098A0F9B1FBFCF38
:103B90002F2DC8CF81E0EACF1111CDCF80917D01CB
:103BA0008111C9CF80918401882369F00E94290A7C
:103BB00080917F018F5F80937F01853610F00E9496
:103BC000350A0E94630E812FDF91CF911F910F91D3
:103BD000FF90EF90DF90CF90BF909F908F900895CF
:103BE000CDB7DEB72F970FB6F894DEBF0FBECDBFAF
:103BF00084B7877F84BF0FB6F894A8958091600042
:103C0000886180936000109260000FBE80E890E0B1
:103C10000FB6F89480936100909361000FBE85B752
:103C2000806885BF85B7806885BF0E94B1030E9408
:103C30007C048091E20084608093E200789480911B
:103C400071058823A1F01091E9001F709091EC009C
:103C5000892F817090FD80E8182B1092E9008091E7
:103C6000E80083FD0E943C0F1F701093E90082E082
:103C700084BD93E095BD9AEF97BD80936E000E943E
:103C8000BA0C90E090930B0180930A010E94AB0A5A
:103C90000E94BA0AECE0F5E08AE195E0A3E2B5E023
:103CA00011921D928E179F07D9F78EE090E00E9427
:103CB000D8218093060590930705FC010E962BEF03
:103CC00021938E179F07E1F790E080E00E949E21EC
:103CD0008F3E9E4F11F00E94EB0B89EA809380008B
:103CE00089E08093810024982C983F988AB18F7C3A
:103CF0008AB96E98479A8BB180638BB9769A8FE0B8
:103D000090E00E94982160930805709309058093C4
:103D10000A0590930B0567704FEF649FB001112463
:103D2000759567957595679577277093890060936A
:103D3000880070938B0060938A0070938D0060936D
:103D40008C000E94710B90E080E00E949E218F3ECB
:103D50009E4F11F00E94EB0B82E090E00E949021B8
:103D600080933D050E94C70A90931F0580931E050E
:103D700083E090E00E949021682F70E090E080E066
:103D80000E941D0F60911A0570911B0580911C0502
:103D900090911D050E94380A8CE091E090932105D6
:103DA0008093200598E1E92EF12C21E3C22E25E035
:103DB000D22E83E295E03EE0B32EB80E80E4A82E2A
:103DC0008091710500E112E1853009F446C10E943D
:103DD000FD1CEEE3F5E0A3E2B5E010E000E0302FDB
:103DE0008D912191281709F447C190E0992493946B
:103DF0002827422F492109F43AC19E833F83892114
:103E000091E009F490E098870E94630E8160782F1A
:103E10009A8789874E815F8168858A850E94711C97
:103E2000F801E25CFA4F80819826908285E0E7E312
:103E3000F5E0DE01119601900D928A95E1F79090E0
:103E400038058090390510913A0500913B05109294
:103E500038051092390510923A0510923B05892DCC
:103E6000882909F448C080913505909136050E9453
:103E70006D069C0190913405992309F43FC12531C9
:103E80003105C8F19F3F19F09F5F90933405992049
:103E900059F00E94E1059FEF19140CF491E0899FFD
:103EA000802D112480933805882059F00E94E10567
:103EB0009FEF18140CF491E0899F802D11248093BA
:103EC0003905309138053323B1F02091390522238B
:103ED00091F045EB3403C0011124992309F4E3C0A8
:103EE0009093380545EB240390011124332309F402
:103EF000DEC030933905812F802B09F448C08091B2
:103F00003205909133050E946D069C019091310518
:103F1000992309F4EEC025313105C8F19F3F19F00E
:103F20009F5F90933105112359F00E94C1059FEFC7
:103F300011160CF491E0899F802D112480933A058D
:103F4000002359F00E94C1059FEF10160CF491E078
:103F5000899F802D112480933B0530913A053323AE
:103F6000B1F020913B05222391F045EB3403C001D1
:103F70001124992309F49FC090933A0545EB24033B
:103F800090011124332309F49AC030933B058091AA
:103F9000380590913905892B90913A05892B90919C
:103FA0003B05892B11F00E946F0E85E0FE013196D2
:103FB000A7E3B5E001900D928A95E1F70E94C8074A
:103FC00090913C05891709F4FBCE0E94C8078093A5
:103FD0003C05F4CE80917105843009F110922205E0
:103FE0000FB6F894A895E09260000FBEA092600012
:103FF00083B7817F846083BF83B7816083BF7894F8
:10400000889583B78E7F83BF0FB6F894A89580916B
:104010006000886180936000109260000FBE809104
:1040200070058823D1F00E94BA0C90E090930B01A8
:1040300080930A010E94AB0A0E94BA0AE3E2F5E00B
:104040001192CE16DF06E1F70E94FD1CE3E2F5E0D7
:104050008191811138C0BE12FBCF809171058530EE
:1040600009F4B8CF0E94270F0E94C807B0CE9F5F07
:10407000990C963009F0BDCE0F5F1F4F0E30110521
:1040800009F0ADCE8FEF8B878C871D860E94630E63
:104090008160782F9F878E874B855C856D858F85A6
:1040A0000E94711CC3CE81E0809338051BCF81E054
:1040B0008093390520CF81E080933A055FCF81E07E
:1040C00080933B0564CF09BD19BD09B400FEFDCF47
:1040D0008091D8008F7D8093D8008091E00082602D
:1040E0008093E0008091E00081FDFCCF0E94270FCB
:1040F000B4CF2139314008F013CF49CF232B09F039
:10410000C3CEF9CE1F921FB61F9211248F939F9397
:10411000AF93BF9380912205811113C08091010557
:1041200090910205A0910305B09104054196A11D4F
:10413000B11D8093010590930205A0930305B093F0
:104140000405BF91AF919F918F911F901FBE1F904B
:1041500018951092B9008CE08093B8000895EF9202
:10416000FF920F931F93CF93DF93182FEB011092C1
:10417000BC0084EA8093BC000E94630E7C018091A5
:10418000BC0087FF27C08091B900887F883029F064
:104190008091B900887F8031D9F51093BB0084E805
:1041A0008093BC000E94630E8C018091BC0087FF4D
:1041B00024C02091B900287F90E080E02831B1F040
:1041C00081E090E0203411F490E080E091958195B9
:1041D00091090CC0CF3FDC0791F20E94630E8E194B
:1041E0009F098C179D0758F28EEF9FEFDF91CF91BB
:1041F0001F910F91FF90EF900895CF3FDC07A9F238
:104200000E94630E801B910B8C179D0770F2ECCF00
:104210008FEF9FEFEBCF0F931F93CF93DF93EB01C4
:104220008093BB0084E88093BC000E94630E8C01E5
:104230008091BC0087FF11C02091B900287F81E0E8
:1042400090E0283211F490E080E0919581959109F9
:10425000DF91CF911F910F910895CF3FDC0741F37C
:104260000E94630E801B910B8C179D0708F38EEF45
:104270009FEFEECF0F931F93CF93DF93EC0184E872
:104280008093BC000E94630E8C018091BC0087FF6C
:1042900008C08091BB0090E0DF91CF911F910F91FA
:1042A0000895CF3FDC0789F30E94630E801B910BBA
:1042B0008C179D0750F38EEF9FEFEECF84E980932C
:1042C000BC000895AA1BBB1B51E107C0AA1FBB1F5E
:1042D000A617B70710F0A61BB70B881F991F5A9592
:1042E000A9F780959095BC01CD01089597FB072E05
:1042F00016F4009407D077FD09D00E94622107FCD4
:1043000005D03EF4909581959F4F089570956195E5
:104310007F4F0895EE0FFF1F0590F491E02D099453
:10432000F999FECF92BD81BDF89A992780B508957D
:10433000A6E1B0E044E050E00C94CA21A8E1B0E06E
:1043400042E050E00C94CA21262FF999FECF92BD8D
:1043500081BDF89A019700B4021639F01FBA20BD4A
:104360000FB6F894FA9AF99A0FBE08950396272F7C
:104370000E94A5210E94A421252F0E94A521242F5F
:104380000C94A5210196272F0E94A5210C94A4210D
:10439000DC01CB01FC01F999FECF06C0F2BDE1BD05
:1043A000F89A319600B40D9241505040B8F70895F4
:1043B0000F931F93CF93DF938230910510F482E027
:1043C00090E0E0918005F091810530E020E0B0E0E0
:1043D000A0E0309799F42115310509F447C0281B56
:1043E000390B24303105C0F58A819B816115710537
:1043F00071F1FB0193838283FE0111C040815181E1
:104400000281138148175907F8F04817590799F4A2
:10441000109761F012960C93129713961C93329694
:10442000CF01DF91CF911F910F91089500938005E7
:1044300010938105F4CF2115310519F04217530768
:1044400018F49A01BD01EF01DF01F801C2CF90938A
:10445000810580938005D0CFFE01E20FF31F819389
:1044600091932250310939832883DACF20917E0538
:1044700030917F05232B41F42091020130910301FB
:1044800030937F0520937E0520910001309101013A
:104490002115310541F42DB73EB7409104015091EB
:1044A0000501241B350B40917E0550917F05421775
:1044B000530708F0B5CF241B350B2817390708F42C
:1044C000AFCFBC016E5F7F4F2617370708F4A8CF28
:1044D000640F751F70937F0560937E05FA018193C9
:1044E00091939ECFCF93DF930097E9F0FC01329731
:1044F00013821282C0918005D0918105DE0130E0E7
:1045000020E02097A1F420813181820F931F209118
:104510007E0530917F052817390709F067C0F093B1
:104520007F05E0937E05DF91CF910895DA01AE1704
:10453000BF0708F040C012964D915C9113979D0102
:104540004115510599F7D9011396FC93EE931297F3
:104550004D915D91A40FB51FEA17FB0779F4808197
:1045600091810296840F951FD90111969C938E9389
:104570008281938113969C938E931297B0E0A0E072
:104580008A819B810097B9F5FE0181919191E80F95
:10459000F91F80917E0590917F058E179F0719F670
:1045A000109761F51092810510928005D0937F05D8
:1045B000C0937E05B8CFB383A28340815181840F1D
:1045C000951FA817B90771F44E5F5F4F8D919C91AD
:1045D0001197480F591F5183408312968D919C91DA
:1045E000938382832115310509F0ADCFF0938105C6
:1045F000E093800598CFDE01EC01C2CF13961C92A8
:104600001E921297D3CFF894FFCF0E0A0E0A170A04
:10461000170A190A170A170A170A0E0A0E0A1E0A9B
:10462000170A170A1E0A920A9E0AA30A9C0AA10ADE
:10463000A80AA60A21104910E5114910E5117C10BD
:104640009D10E5119B11A811D417D4174E184E18C0
:104650009C18B61809180918C1189719A619A6198F
:104660000000820520007F04850120003B05310BFE
:10467000100B0C0B080B01818283E200E900EA00B9
:10468000B500B600B700CD008301CC008A019201CD
:1046900094012102230224022502260227022A0273
:1046A000B300B4006F007000404D6D66011901AC9D
:0846B0000081069A06B3060022
:00000001FF
