:100000000C9412030C942F030C942F030C942F03C5
:100010000C942F030C942F030C942F030C942F0398
:100020000C942F030C942F030C94E8210C94BA2207
:100030000C945D1A0C942F030C942F030C942F0333
:100040000C942F030C942F030C942F030C942F0368
:100050000C942F030C94C51A0C942F030C942F03AB
:100060000C942F030C942F030C942F030C942F0348
:100070000C942F030C942F030C942F030C942F0338
:100080000C942F030C942F030C942F030C942F0328
:100090000C942F030C942F030C942F030C942F0318
:1000A0000C942F030C942F030C942F0387038A03C3
:1000B0008D039003930396039903B506BA06C4060D
:1000C000B806BD06C206C0061E0820082B08220876
:1000D0002408260828082A082D082F0831083C087B
:1000E00033083508370839083B083E08AF0FAF0F13
:1000F000E10FE10F18103810A111FF117A10FF1154
:10010000271127119811FF11FF11F9113411341122
:1001100034113411341134113411341134113411B7
:100120003411341134113411341134114511521178
:10013000591160116A118C128C129E129E12951226
:100140009E129E129E128C128C129A129E129E1257
:100150009A1227234E2340244E2340249A23BD2362
:100160004024132422246572676F646F785F657A78
:100170002F32393963383237323232303534383809
:100180006161343336204020302E362E3232302D0D
:10019000362D673438346338352D646972747900CC
:1001A0000000F0A1650056002B0034000151000052
:1001B000350014000400540050005100E2000F000C
:1001C00011006F0051002A00E00018000C001C0014
:1001D00052000800E100060016000A004F004E0021
:1001E000E3000D0019001B000000025146004B0007
:1001F00000004E0000004B0048004C0000003F0093
:1002000000004A00E7000E0005001D00000002513A
:10021000E50013000B00090050004D00E400100041
:100220001700070051002C00E2001A0015003700EB
:10023000520028002F003800120036004F005200F4
:100240006500570029003300015100000100010042
:100250006A000100010000000100640059006C0008
:1002600001000100010068005A002E000100010099
:1002700001005F005C0031000100620001006000CD
:100280005D006D004D000100010055006B006E0027
:100290000000010049000100000001000000010011
:1002A00001000100000001000000010001006900E0
:1002B0002D003000000001000100240021001E007C
:1002C0004A0001000100250022001F000100270054
:1002D0000100260023002000010001000100610050
:1002E00027025B0001000100010001005E00010027
:1002F0000100000001000100FB00FC000100000003
:1003000001000100F900FA0001000100FD000100F8
:10031000F200010001000100FE00F000F400F10015
:1003200001000100FF000100F300010001000100D5
:1003300001000100F500F600000001000100F700D7
:100340000000F800000001000100010000000100B1
:100350000000010001000100010001000000010097
:10036000010040003D003A00010001000100410091
:100370003E003B0001000100010042003F003C0044
:10038000010001000100450044004300010001009C
:100390000100010001000100010000000000000058
:1003A000000000002A2B28000000000000000000D0
:1003B0000000000000000029000000002C1E342076
:1003C000212224342627252E362D3738271E1F209C
:1003D0002122232425263333362E37381F040506E1
:1003E0000708090A0B0C0D0E0F1011121314151625
:1003F0001718191A1B1C1D2F3130232D3504050623
:100400000708090A0B0C0D0E0F1011121314151604
:100410001718191A1B1C1D2F3130354C0000000015
:1004200000000000000000000000000000000000CC
:1004300000000000000000000000000000010101B9
:1004400001010100010101010000000000000000A5
:100450000000000000000100010001010101010194
:10046000010101010101010101010101010101017C
:100470000101010101010100000001010000000073
:10048000000000000000000000000000000000006C
:100490000000000000000001010101000403300021
:1004A000000016034500720067006F0044006F00F3
:1004B0007800200045005A00000016034500720035
:1004C00067006F0044006F007800200045005A006C
:1004D00000000403090409023B00020100A0FA091C
:1004E0000400000103010100092111010001224063
:1004F000000705810308000A090401000103000048
:100500000009211101000122C0000705820320001B
:100510000A1201100100000008EDFE07130100019E
:1005200002030105010902A10185020901A10005DB
:100530000919012905150025019505750181029507
:1005400001750381010501093009311581257F9568
:10055000027508810609381581257F950175088186
:1005600006050C0A38021581257F9501750881065C
:10057000C0C005010980A101850316010026030002
:100580001A81002A8300751095018100C0050C09AD
:1005900001A1018504160100269C021A01002A9C73
:1005A00002751095018100C005010906A1018505AC
:1005B000050719E029E71500250195087501810255
:1005C0000508190129059505750191029501750325
:1005D00091010507190029EF1500250195F0750116
:1005E0008102C005010906A101050719E029E715E7
:1005F00000250195087501810295017508810105A5
:100600000819012905950575019102950175039158
:10061000010507190029FF150026FF00950675083A
:100620008100C00011241FBECFEFDAE0DEBFCDBFD6
:1006300011E0A0E0B1E0ECECF9E402C005900D920D
:10064000AC3BB107D9F723E0ACEBB1E001C01D92A0
:10065000A134B207E1F70E940C1F0C94E4240C941F
:10066000000080B38C7080BB81B3836F81BB089521
:1006700084B1807F84B985B1807F85B98AB1837F59
:100680008AB98BB1837F8BB93E9846980895CF93F2
:10069000E82F873090F58091000190910101892B1E
:1006A00009F049C0CE2F64E670E080E40E94C804DF
:1006B0009093010180930001892BD1F464E670E0EE
:1006C00082E10E941F059093010180930001892B14
:1006D00079F481E090E001C0880FCA95EAF764E6FA
:1006E00070E080950E941F059093010180930001A6
:1006F00084E690E0CF910C94740590E0FC0137976C
:10070000E730F105C0F4EA5AFF4F0C948824209A90
:10071000289811C0219A29980EC0229A2A980BC0B5
:10072000239A2B9808C0529A5A9805C0539A5B98FE
:1007300002C03E9A4698CF910895089508950C946A
:100740009E03CF93DF930E94060690E090930101F1
:10075000809300010E9438030E943103A1E1B2E0BE
:100760002DEB31E0EFE1F2E04EE04E0F11921D92E1
:1007700080E090E0E901C80FD91F18820196863009
:100780009105C1F72A5F3F4F4E13F0CFDF91CF9114
:100790000C942D070E94060690E09093010180932F
:1007A00000010E9438030E943103EFE1F2E08EE085
:1007B0008E0F11928E13FDCF0895CF93DF93E62F06
:1007C000F0E0EF5EFD4F40814827808386E0689F20
:1007D000F0011124E354FE4F20E030E080E061E0BE
:1007E00070E050E0AAE0B22F9081992319F0915067
:1007F000908307C0EB01022E01C0CC0F0A94EAF7E8
:100800008C2BEA0102C0D595C795BA95E2F7C0FDD9
:10081000A0832F5F3F4F31962630310521F7DF91BE
:10082000CF910895CF93DF93D82F873008F040C041
:100830008091000190910101892B09F042C064E68A
:1008400070E080E40E94C80490930101809300014D
:10085000892B11F0C0E027C064E670E083E10E94BC
:100860001F059093010180930001892B99F764E69D
:1008700070E081E40E94C80490930101809300011C
:10088000892B41F784E690E00E944F0597FF05C051
:100890009093010180930001DDCFC82FC095109285
:1008A00001011092000184E690E00E9474050AC0E4
:1008B0009FB1CFB1C07FC695C6959370C92BC09527
:1008C00001C0C0E06D2F8C2F0E94DD03282F2095E2
:1008D000ED2FF0E0E15EFD4F908192238C23892B78
:1008E000DF91CF910895EF92FF920F931F93CF93D3
:1008F000DF938091000190910101892B91F080910B
:10090000BC018F5F8093BC0181110BC00E94060661
:1009100090E09093010180930001892B11F40E94D3
:1009200098058FE1E82E82E0F82E06E212E0C0E0A2
:100930008C2F0E944703D7E0DC0F8D2F0E944703C6
:100940008C2F0E941204F70181937F018D2F0E944A
:100950001204F80181938F010E943803CF5FC730E2
:1009600039F70E94370781E0DF91CF911F910F91F6
:10097000FF90EF900895E82FF0E0E15EFD4F808159
:10098000089508951092B9008CE08093B8000895FE
:10099000EF92FF920F931F93CF93DF93182FEB01EA
:1009A0001092BC0084EA8093BC000E948F1A7C01E4
:1009B0009091BC0097FD0EC0CF3F8FEFD807C1F3D9
:1009C0000E948F1A8E199F098C179D0788F38EEF4E
:1009D0009FEF2EC09091B900987F983041F0909190
:1009E000B900987F903119F08FEF9FEF21C01093DD
:1009F000BB0084E88093BC000E948F1A8C01909108
:100A0000BC0097FD0CC0CF3F8FEFD807C1F30E9409
:100A10008F1A801B910B8C179D0788F3D8CF80917C
:100A2000B900887F883111F08034F1F680E090E0E1
:100A3000DF91CF911F910F91FF90EF9008950F9349
:100A40001F93CF93DF93EB018093BB0084E88093E7
:100A5000BC000E948F1A8C019091BC0097FD0EC0C3
:100A6000CF3F8FEFD807C1F30E948F1A801B910BE5
:100A70008C179D0788F38EEF9FEF0CC02091B90073
:100A8000287F81E090E0283211F480E090E0919599
:100A900081959109DF91CF911F910F9108950F9347
:100AA0001F93CF93DF93EC0184E88093BC000E94F6
:100AB0008F1A8C019091BC0097FD0EC0CF3F8FEF35
:100AC000D807C1F30E948F1A801B910B8C179D07CA
:100AD00088F38EEF9FEF03C08091BB0090E0DF9121
:100AE000CF911F910F9108950F931F93CF93DF9391
:100AF000EC0184E98093BC000E948F1A8C019091D4
:100B0000BC0094FF0EC0CF3F8FEFD807C1F30E9407
:100B10008F1A801B910B8C179D0788F38EEF9FEF28
:100B200002C080E090E0DF91CF911F910F91089576
:100B300056985E9825982D9826982E9827982F9845
:100B40008FEF90E0909389008093880090938B00C2
:100B500080938A0090938D0080938C00259A2D9A23
:100B60002FEF80E792E0215080409040E1F700C0F5
:100B70000000269A2E9A2FEF80E792E021508040C5
:100B80009040E1F700C00000279A2F9A2FEF80E7EE
:100B900092E0215080409040E1F700C0000025988D
:100BA0002D982FEF80E792E0215080409040E1F7B0
:100BB00000C0000026982E982FEF80E792E0215089
:100BC00080409040E1F700C0000027982F98569889
:100BD0005E9825982D9826982E9827982F980895F6
:100BE00089EA8093800089E08093810024982C9882
:100BF0003F988AB18F7C8AB96E98479A8BB180638F
:100C00008BB9769A0E9498050C949D0380E290E03F
:100C1000909301018093000180912D0281110EC0FB
:100C20000E94C20481E080932D022FEF83ED90E3B8
:100C3000215080409040E1F700C0000064E670E081
:100C400080E40E94C8049093010180930001892BE5
:100C500009F050C064E670E080E00E941F059093A8
:100C6000010180930001892B09F044C064E670E023
:100C700080E00E941F059093010180930001892B61
:100C8000C9F564E670E08FE30E941F0590930101AF
:100C900080930001892B71F584E690E00E94740531
:100CA00064E670E080E40E94C804909301018093A0
:100CB0000001892BF9F464E670E08CE00E941F05C6
:100CC0009093010180930001892BA1F464E670E008
:100CD00080E00E941F059093010180930001892B01
:100CE00049F464E670E08FE30E941F0590930101D0
:100CF0008093000184E690E00E94740580910001D9
:100D00000895611108C0FC018281882321F086E6E4
:100D100091E00E942A0780E090E00895863E9C457D
:100D200041F4FB018281882329F00E947B1980E035
:100D3000089581E00895CF92DF92EF92FF926B01C8
:100D40007C010E94BD1856985E9825982D9826988B
:100D50002E9827982F9890E0FC013197E730F10505
:100D6000A8F4E35AFF4F0C948824259A2D9A0EC0BC
:100D7000259A2D9A269A2E9A09C0259A2D9A04C052
:100D8000259A2D9A269A2E9A279A2F9AC701B6014C
:100D9000FF90EF90DF90CF90089581E008950C943C
:100DA0008E06CF93282F30E0F901E456FC4FC49112
:100DB000F901E45EFB4F2491222359F081EE0E9459
:100DC000DF0D8C2F0E94DF0D8C2F0E94FD0E81EE17
:100DD00004C08C2F0E94DF0D8C2FCF910C94FD0E40
:100DE0000F931F93CF93DF93EC01062FFE018491A5
:100DF000882359F19E012F5F3F4F813041F4E90173
:100E0000F9011491812F0E94DF0D812F0DC08230D6
:100E100031F4E901F90184910E94DF0D0AC08330A9
:100E200031F4E901F90184910E94FD0E02C00E9493
:100E3000D1062196802F8823C9F2EFE9FFE0319790
:100E4000F1F700C000008150F6CFDF91CF911F91E4
:100E50000F91089560E00C94F0060E940D19811125
:100E600002C00E947B190E94830B0C94F0050C9425
:100E70009F03282F2F7041F0822F90E02A3010F42A
:100E80004D9608950697089587E290E00895089595
:100E90000C9447070C94480708950E947A120E9408
:100EA0004C072FEF84E39CE0215080409040E1F715
:100EB00000C000000C94EB1AFF920F931F93CF9386
:100EC000DF938C01FC01C081D18180915902811195
:100ED00013C08281882349F0CE010E94AD17F82EFD
:100EE000682FCE010E94501704C0CE010E948017C7
:100EF000F82EBE018F2D04C0CE010E94AD17BE0199
:100F00000E94F508EC01B8010E94CF06882309F47D
:100F100064C1B801CE010E94FE0B882309F45DC1B3
:100F2000C63DFCE5DF0761F5F8018281882351F0B9
:100F3000109233020E948F1A9093300280932F02F6
:100F400082E03BC00E947E1885FF05C081E080934F
:100F50003302809334028091330281110FC080915B
:100F60002F02909130020E949B1A883C910530F428
:100F700086E20E94DF0D86E20E94FD0E82E02FC015
:100F8000C73D8CE5D80770F1CB3D8CE5D80709F457
:100F9000D6C008F0DBC0C73DFCE5DF0709F0F4C0B0
:100FA000F8018281882361F0109234020E948F1A26
:100FB000909332028093310280E20E946D0F0DC146
:100FC0000E947E1881FF05C081E0809333028093E8
:100FD000340280913402882309F4C5C080E20E9463
:100FE000740FFBC0C531ECE5DE0708F07EC0C230EF
:100FF000FCE5DF0708F452C0F8018281882309F478
:1010000059C00E940D19811102C00E947B190E94D3
:10101000201990E09093330380933203FE01E35054
:10102000FC45E231F10530F4EC59FF4F8091320379
:101030000C94882480913203816027C0826025C08F
:10104000846023C0806121C080621FC080641DC095
:1010500080681BC08460886018C08E7F16C08D7F3A
:1010600014C08B7F12C08F7E10C08F7D0EC08F7B0F
:101070000CC08F770AC08B7F877F07C087FB222732
:1010800020F991E0922790FB87F9809332038091B9
:1010900032030E9424190E947A129FC0C1158CE568
:1010A000D80781F0C130DC45A9F081E0809333029C
:1010B00080933402C801DF91CF911F910F91FF906F
:1010C0000C94CD06F8018281882309F486C00E9421
:1010D0004D0783C0F8018281882309F47EC0809186
:1010E000F80281608093F80278C0C631DC45E9F6E9
:1010F0000E947E18282FF8018281409102015091B0
:101100000301882379F02A7A91E009F490E0909322
:101110002E02911102C069E201C065E3CA010E947A
:10112000E2190AC080912E02811102C069E201C059
:1011300065E3CA010E94ED190E944B184EC0F801E8
:101140008281882309F449C080E00AC0CC3DECE5E7
:10115000DE07D1F5F8018281882309F43EC082E0E0
:101160000E94AB1F3AC080913102909132020E94DE
:101170009B1A883C910508F031CF87E20E94DF0D71
:1011800087E20E94FD0E2ACFC83DDC4509F08DCFD5
:10119000F8018281811108CF8091340281111ECF24
:1011A00080913102909132020E949B1A883C9105F5
:1011B00008F014CF80E20E94740F88E20E94DF0DD5
:1011C00088E20E94FD0E09C0CD3DDC4509F06DCFDF
:1011D000F801828181110E947B1980E0DF91CF911B
:1011E0001F910F91FF900895089596E0799FF00167
:1011F000112494E5899FE00DF11D1124E60FF11DE6
:10120000EE0FFF1FEC55FE4F859194910895880FC6
:10121000991FFC01E056FE4F859194910895CF935C
:10122000DF930E94F5080E94CC0AEC01811520E5AD
:101230009207F0F5811530E4930708F029C1883E44
:10124000910500F5803E910508F0A2C1883A91050C
:1012500070F4853A910508F0A3C08130910509F436
:1012600097C108F448C1049708F092C144C18F3B6C
:10127000910508F4A0C0803C910508F43CC1805C55
:101280009109F8C08115904258F4C11581E0D80742
:1012900008F07EC1C03FD10508F42DC1D06578C1EA
:1012A000C11590E3D90708F0E9C0CE019F70E2C0F4
:1012B000811525E5920708F043C0811534E59307B1
:1012C00008F0FDC0811542E5940708F5C11581E5D8
:1012D000D80708F0E0C02C2F237081E090E002C016
:1012E000880F991F2A95E2F79C689E0174E0369555
:1012F00027957A95E1F72370922BCF70C695C69506
:1013000040E2C49FE0011124C82BD92B41C186952E
:1013100086959E0123703327C115D34508F0C0C0C0
:1013200040E2849FC0011124C1E0D0E002C0CC0F94
:10133000DD1F2A95E2F78C2B9D2BEC01DC6828C180
:1013400081152AE5920798F4811539E5930708F08D
:10135000C1C08115964508F4B7C0C11588E5D80706
:1013600008F4C9C0DC2FCC27C06FD06A11C1C115E9
:101370009BE5D90708F4BFC0C1152CE5D20708F4D6
:10138000B7C0CE0190568115904208F0B4C08D2FA1
:101390008F710E94490BDD27D0628F71D82BF8C066
:1013A000853A910509F4AAC0863A910509F0A9C0C9
:1013B000C2E8D0E4EDC0883A910509F4A5C0893AA5
:1013C000910509F4A4C08A3A910509F4A3C08B3AA7
:1013D000910509F4A2C08C3A910509F4A1C08B3B98
:1013E000910509F4A0C08C3B910509F49FC08D3A8A
:1013F000910509F49EC0803B910509F49DC08E3A89
:10140000910509F49CC08F3A910509F49BC0813B7A
:10141000910509F49AC0823B910509F499C0833B78
:10142000910509F498C0843B910509F497C0853B68
:10143000910509F496C0863B910509F495C0873B58
:10144000910509F494C0883B910509F493C0893B48
:10145000910509F492C08D3B910509F491C08E3B32
:10146000910509F490C08A3B910509F48FC0C0E052
:10147000D4E48EC00E940709EC018AC0CE019927EE
:10148000D3FF03C0EC01D86C83C0EC01D06C80C0EA
:10149000DF70D06A7DC0DC2FCC27C16FD06A78C0E6
:1014A00040E2849FC0011124C1E0D0E002C0CC0F13
:1014B000DD1F2A95E2F7C82BD92BDA6869C0D82F2F
:1014C000CC27C46FD06A64C0CF71DD27DC2FCC2756
:1014D000D0625EC08F70806E90E0906A24E0D695F6
:1014E000C7952A95E1F7CF709C013C2BE90150C0CC
:1014F000DD27D0664DC0C0E0D0E04AC0C1E8D0E4EE
:1015000047C0C3E8D0E444C0C2EED4E441C0C9EE51
:10151000D4E43EC0CAEED4E43BC0C5EBD4E438C04A
:10152000C6EBD4E435C0C3EBD4E432C0C4EBD4E49E
:101530002FC0C7EBD4E42CC0CCECD4E429C0CDEC54
:10154000D4E426C0C3E8D5E423C0CAE8D5E420C06B
:10155000C2E9D5E41DC0C4E9D5E41AC0C1E2D6E4AD
:1015600017C0C3E2D6E414C0C4E2D6E411C0C5E299
:10157000D6E40EC0C6E2D6E40BC0C7E2D6E408C08B
:10158000CFE6D4E405C0C0E7D4E402C0CAE2D6E4A2
:10159000CE01DF91CF9108958238910549F1B0F4E1
:1015A0008133910509F458C048F48932910509F452
:1015B0004EC08A32910509F454C0089585339105CF
:1015C00009F440C08933910599F00895833E91054F
:1015D00029F138F4803E910591F0823E9105A1F009
:1015E0000895863E9105F9F0873E910531F1089501
:1015F0002091320320FD3AC021FD38C0089580912A
:10160000320380FD35C032C08091320382FF32C088
:101610008091320384FD30C083EE39C08091320363
:1016200082FD28C0F5CF8091320383FF27C08091CF
:10163000320384FD21C087EE2AC08091320383FDEE
:101640001DC0F5CF8091320385FD1AC01BC080916B
:10165000320385FD17C014C08091320386FD14C08B
:1016600015C08091320386FD11C00EC080EE0FC000
:1016700089E30DC082EE0BC080E009C086EE07C092
:1016800089E205C085E303C08AE201C081E390E0FE
:1016900008959091320392FF0DC0282F28712830B1
:1016A00019F4877F846006C0282F2471243011F438
:1016B0008B7F886093FF0DC0282F2871283119F483
:1016C000877E846106C0282F2471243111F48B7E1B
:1016D000886194FD877E0895CF93DF93813020E861
:1016E000920768F0FB012281222349F0EC010E945D
:1016F000990BCE019F770E94E10B0E94CE0B81E0F7
:10170000DF91CF9108958CE090E00E94A22490E0B8
:10171000A0E0B0E08093280390932903A0932A03CC
:10172000B0932B030895609128038CE090E00C9413
:10173000B0240E947E18809335020E9491188091F7
:101740002803813071F048F08230D9F08430F9F408
:1017500086EE0E94650F88E118C082EE0E94DF0DC0
:1017600016C080EE0E94DF0D81EE0E94DF0D88E141
:101770000E94650F81EE0E94FD0E80EE0E94FD0E1C
:1017800006C082EE0E94DF0D87E50E94650F8FE3A1
:101790009CE90197F1F700C00000089580912803AB
:1017A000813021F038F0823029F007C08CE20E94AD
:1017B000650F03C082EE0E94FD0E809135020C94ED
:1017C0008E180F931F93CF93DF938C01CCE0D0E062
:1017D000C8010C2E02C0969587950A94E2F78F7087
:1017E0000E9439070E94650F2497CC3F8FEFD807DE
:1017F00079F7DF91CF911F910F9108950F931F9368
:10180000CF93DF93EC018B01FB018281882319F1D7
:10181000C23EFCE5DF07C1F050F4C03EECE5DE0758
:1018200081F0C13EFCE5DF07B1F481E010C0C33EAA
:101830008CE5D80759F0C43EECE5DE0761F484E09E
:1018400006C01092280305C082E001C083E08093A7
:1018500028030E94930BB801CE01DF91CF911F9115
:101860000F910C946C0B90933B0280933A02089575
:10187000E0913A02F0913B02309721F00190F08123
:10188000E02D099480E00895E0913A02F0913B0246
:10189000309799F020911301222359F020913203BF
:1018A00027FF07C0DC012C9111962C93119725E09E
:1018B0002C930280F381E02D09940895E0913A027F
:1018C000F0913B02309739F022E0DC012C93048048
:1018D000F581E02D09940895209138023091390264
:1018E0008217930771F09093390280933802E09148
:1018F0003A02F0913B02309721F00680F781E02D0B
:101900000994089520913602309137028217930787
:1019100071F09093370280933602E0913A02F09191
:101920003B02309721F00084F185E02D0994089561
:1019300085B7806885BF85B7806885BF089508959D
:101940000E94980C0C949F0C81E008950E94861AC6
:101950000E94A1030C941D1BCF92DF92EF92FF9285
:101960000F931F93CF93DF93CDB7DEB72B970FB6AF
:10197000F894DEBF0FBECDBF0E9473040E94A40C7A
:10198000811111C08FEF89838A831B820E948F1A75
:101990008160782F9D838C8349815A816B818D81F1
:1019A0000E94900D56C08DE3C82E82E0D82E00E034
:1019B00010E0E02E802F0E94BB04F60141916F01E0
:1019C000F42EF82631F40F5F1F4F0E30110589F702
:1019D000D9CF9091F80291FF04C08B870E94C10477
:1019E0008B8520E030E04F2D50E0922FBA01022E7F
:1019F00002C0759567950A94E2F760FF24C02E83B4
:101A0000EF8221E030E0690102C0CC0CDD1C9A9528
:101A1000E2F790E08C219D21892B09F420E02887B2
:101A20000E948F1A8160782F9A8789874E815F8103
:101A300068858A850E94900DF801E35CFD4F8081E6
:101A4000C826C08206C02F5F3F4F2630310569F699
:101A5000BACF0E94B01C10913C020E94380C18179B
:101A6000A1F00E94380C80933C022B960FB6F8949C
:101A7000DEBF0FBECDBFDF91CF911F910F91FF90C1
:101A8000EF90DF90CF900C944A072B960FB6F89406
:101A9000DEBF0FBECDBFDF91CF911F910F91FF90A1
:101AA000EF90DF90CF900895DC0111962C91119763
:101AB0008C91682F70E041E050E001C0440F8A959E
:101AC000EAF712968C91129730E0882329F08091E2
:101AD0005B028823E9F006C0F901E55BFD4F9081C8
:101AE0009423B1F086E0829FF001839FF00D1124D2
:101AF000E60FF71FEE0FFF1FEC5EFE4F8081918116
:101B00008D939C93F901E55BFD4F8081482B06C0C6
:101B1000F901E55BFD4F409580814823408308959E
:101B2000CF93DF93CDB7DEB72B970FB6F894DEBF18
:101B30000FBECDBF942F4F83252F588769877A8793
:101B40008B874A855B85452B21F02F3F09F59F3F09
:101B5000F9F4DE01119686E0FD0111928A95E9F70C
:101B600085E0FE01379601900D928A95E1F7498153
:101B70005A816B817C818D819E810E9421152B96DB
:101B80000FB6F894DEBF0FBECDBFDF91CF910895A1
:101B9000CE0107960E94540DDCCFFC01808191811B
:101BA0000E94EC1792959F70963041F480915B02F1
:101BB00091E0892780935B0290935A0208958823CD
:101BC00009F41AC18238C1F40E94380C81FD14C195
:101BD00069E380910201909103010E94E2190E9441
:101BE0004B182FEF81EE94E0215080409040E1F7B8
:101BF00000C0000069E319C08338F9F40E94380C72
:101C000080FDFAC063E580910201909103010E947A
:101C1000E2190E944B182FEF81EE94E02150804092
:101C20009040E1F700C0000063E5809102019091CF
:101C300003010E94ED190C944B188438C1F40E94E2
:101C4000380C82FDD9C067E48091020190910301B4
:101C50000E94E2190E944B182FEF81EE94E0215070
:101C600080409040E1F700C0000067E4DECF9CEFC9
:101C7000980F913A40F4682F8091020190910301EE
:101C80000E94E219D8CF90E2980F983050F48770F4
:101C900091E001C0990F8A95EAF7892F0E94811877
:101CA000CACF9BE5980F933070F4853A29F0863AB5
:101CB00031F083E890E005C081E890E002C082E85E
:101CC00090E00C946C0C98E5980F973108F08EC05A
:101CD000883A09F445C0893A09F445C08A3A09F4BA
:101CE00045C08B3A09F445C08C3A09F445C08B3B9A
:101CF00009F445C08C3B09F445C08D3A09F445C050
:101D0000803B09F445C08E3A09F445C08F3A09F486
:101D100045C0813B09F445C0823B09F445C0833B83
:101D200009F445C0843B09F445C0853B09F445C02E
:101D3000863B09F445C0873B09F445C0883B09F45C
:101D400045C0893B09F445C08D3B09F445C08E3B35
:101D500009F445C08A3B09F445C080E090E044C0E6
:101D600082EE90E041C089EE90E03EC08AEE90E0C5
:101D70003BC085EB90E038C086EB90E035C083EB4C
:101D800090E032C084EB90E02FC087EB90E02CC055
:101D90008CEC90E029C08DEC90E026C083E891E0C7
:101DA00023C08AE891E020C082E991E01DC084E967
:101DB00091E01AC081E292E017C083E292E014C081
:101DC00084E292E011C085E292E00EC086E292E0E9
:101DD0000BC087E292E008C08FE690E005C080E784
:101DE00090E002C08AE292E00C94820C803F20F0E6
:101DF0000E94B81B0C94A51C0895882309F464C0A4
:101E0000823879F40E94380C81FF5EC069E38091CA
:101E10000201909103010E94E2190E944B1869E3AC
:101E200010C08338B1F40E94380C80FF4DC063E5C8
:101E300080910201909103010E94E2190E944B18C7
:101E400063E580910201909103010E94ED190C94C9
:101E50004B18843879F40E94380C82FF35C067E44F
:101E600080910201909103010E94E2190E944B1897
:101E700067E4E7CF9CEF980F913A10F4682FE1CF19
:101E800090E2980F983050F4877091E001C0990F5C
:101E90008A95EAF7892F0E948718D9CF9BE5980F7A
:101EA000933020F480E090E00C946C0C98E5980F4F
:101EB000973120F480E090E00C94820C803F20F079
:101EC0000E94201C0C94A51C0895CF93C82F0E943B
:101ED000DF0D8C2FCF910C94FD0E882321F00E94F2
:101EE00081180C944B180895882321F00E948718BC
:101EF0000C944B1808958F929F92AF92BF92DF92ED
:101F0000EF92FF920F931F93CF93DF937C01D62F15
:101F1000C72FFC01058102950F70128111110E94DB
:101F2000A1180E944418882379F0112369F080E2F7
:101F30008D0F883048F082E00E942D180E944418CE
:101F400091E0D82ED92601C0D12CAC2EA2948FE0DE
:101F5000A822B12CF501EA58FF4F0C9488248C2F4D
:101F6000807FCF70882311F0C295C07F112399F034
:101F7000CC2309F4C8C180E28D0F883010F0D11154
:101F800004C08C2F0E94811803C08C2F0E949418CB
:101F90000E944B18B8C18D2F0E94FD0ECC2309F46E
:101FA0002EC280E28D0F883010F0D11104C08C2F2A
:101FB0000E94871803C08C2F0E949A180E944B1809
:101FC0001EC28C2F807FCF70803211F0C295C07FEF
:101FD000DD2319F0D130C9F021C0112371F00023A5
:101FE00041F0013031F40E94BA188C2B0E94B418D1
:101FF00006C20E94BA188C2B3FC1002319F0013091
:1020000009F4FDC10E94B71811C0112321F002305C
:1020100008F0F5C107C00111F2C108C0112321F079
:10202000011171C18C2F28C101117EC18C2F2AC1D1
:102030008C2F86958695837090E0009719F0019714
:1020400061F0DDC1112321F08D2F9C2F937002C010
:1020500080E090E00E946C0CE2C1112321F08D2FF2
:102060009C2F937002C080E090E00E94820CD7C148
:102070001123F9F0D53F51F0D63F71F0D43FA9F4C8
:1020800080912C0390912D0381600BC080912C03D3
:1020900090912D03826005C080912C0390912D03B7
:1020A000846090932D0380932C038D2F0E94B81B86
:1020B0001EC0D53F51F0D63F71F0D43FA9F48091B6
:1020C0002C0390912D038E7F0BC080912C03909157
:1020D0002D038D7F05C080912C0390912D038B7F64
:1020E00090932D0380932C038D2F0E94201C0E941F
:1020F000A51C95C18C2F837009F050C011118BC1A4
:102100008D2F829586958770880F880F9D2F9F70E1
:10211000892E912CA12CB12C082E04C0880C991C5E
:10212000AA1CBB1C0A94D2F7D4FF14C00FE010E025
:1021300020E030E0B901A80104C0440F551F661F1C
:10214000771F8A95D2F7CB01BA016095709580957B
:10215000909503C060E070E0CB01C695C695C37052
:10216000D0E0C230D10561F0C330D10581F06829DB
:1021700079298A299B29219771F00E9466164BC103
:10218000682979298A299B290E94781644C10E94CE
:102190006616C501B4010E9454163DC1112319F001
:1021A0008C2F817001C08695882309F434C18D2F4E
:1021B000829586958770880F880F9D2F9F70892E36
:1021C000912CA12CB12C082E04C0880C991CAA1C9F
:1021D000BB1C0A94D2F7D4FF14C00FE010E020E03B
:1021E00030E0B901A80104C0440F551F661F771FD6
:1021F0008A95D2F7CB01BA0160957095809590953C
:1022000003C060E070E0CB01C695C695C3704C2F4B
:1022100050E04230510569F04330510589F068299A
:1022200079298A299B294130510571F00E942B1789
:10223000F2C0682979298A299B290E943D17EBC0A1
:102240000E942B17C501B4010E941917E4C08D2FFD
:1022500090E0FC01E05EF109E531F10508F04FC0C6
:10226000EA57FF4F0C948824DF708C2F8F71112355
:1022700031F00E94B2168D2F0E946D0FC0C00E94D7
:10228000D3168D2F0E94740FBAC0112339F001119B
:10229000B6C08C2F8F710E94F816B1C0023008F0C2
:1022A000AEC0F7CF112339F08C2F8F710E94B21678
:1022B000A6C01123C9F38C2F8F710E94D3169FC023
:1022C000112329F08C2F8F710E949D1698C00E94B7
:1022D000981695C0112349F0CF718C2F0E94B21629
:1022E00063E08C2F0E9424188AC081E00E942D1880
:1022F000023008F484C082E00E942D1880C01123AF
:1023000031F0002389F28D2F0E94DF0D78C0002369
:1023100091F2D93349F45FEF67EE73E051506040BA
:102320007040E1F700C000008D2F0E94FD0E67C0D5
:102330004C2F4F706D2FC7010E9481060E94C5155A
:102340006EC0D23FB1F028F4D03F49F0D13FF9F050
:1023500028C0D43FB9F058F0D53F71F022C0112306
:1023600009F447C090915B0281E0892708C081E0B1
:10237000182710935B023DC011113BC081E0809390
:102380005B0237C0111135C010925B0232C01123BD
:1023900029F080915A02882329F329C0002311F3E0
:1023A00028C080915A020023C1F0882341F0909107
:1023B0005B0281E0892780935B0210925A028D2F85
:1023C000112319F00E94DF0D14C00E94FD0E86E05B
:1023D000F70111928A95E9F70CC0882351F0111189
:1023E00008C090915B0281E0892780935B02109284
:1023F0005A024C2F4F706D2FC7010E94F408F8E06D
:10240000AF16B10441F05CF04AE0A41AB10852E002
:10241000A516B10420F40E94380C0E944A07DD2062
:10242000E1F00E94201880FD18C0F70112820E947E
:102430001A180E94B216C7010E9439120E941A1877
:10244000DF91CF911F910F91FF90EF90DF90BF90A0
:10245000AF909F908F900C94D316DF91CF911F91E6
:102460000F91FF90EF90DF90BF90AF909F908F9073
:1024700008950F931F93CF93DF93EC018881998187
:102480002B813C81232BB9F09F3F11F48F3F99F0B2
:10249000CE010E945C07882371F0688179818A816E
:1024A0000E94F7178C010E944F170E945116B80125
:1024B000CE010E947B0FDF91CF911F910F91089564
:1024C0000E94A1180E94B1180E944B180E944B1D37
:1024D0000E94A51C80E090E00E946C0C80E090E0DF
:1024E0000C94820C80910201909103010E94F819D2
:1024F0000C9460120E9491180C9472120E94EC17B6
:10250000E92FE295EF70F0E03297EE30F105B0F48C
:10251000E556FF4F0C948824803F91F018F4803EDC
:1025200068F40EC0843F51F40BC0803E48F0813FF8
:1025300029F406C093FB882780F9089580E0089568
:1025400081E00895CF93DF9300D000D01F92CDB7E4
:10255000DEB70F900F900F900F900F90DF91CF91FB
:102560000895CF93DF9300D000D000D0CDB7DEB771
:1025700026960FB6F894DEBF0FBECDBFDF91CF9188
:1025800008951F93CF93DF93C0915C0216E0809172
:102590005D02C81799F0D0E01C9FF0011D9FF00D5F
:1025A0001124E25AFD4F40815181628173818481FF
:1025B00095810E94B1122196C770E9CFDF91CF912A
:1025C0001F91089540918E0250918F026091900268
:1025D0007091910280919202909193020C94B112A9
:1025E0008091930282958F7009F054C0809190027F
:1025F000882309F44FC080915C02A0915D02609134
:102600008E0270918F024091910250919202B6E039
:102610008A1709F43FC090E041155105C1F17F3F91
:1026200011F46F3FA1F1B89FF001B99FF00D112493
:10263000E25AFD4F218172132AC02081621327C004
:102640002281211124C0238134812417350710F4FD
:1026500021503109241B350B283C3105C0F4209151
:1026600093022F7020612093930226E0289FF001AF
:10267000299FF00D1124ED59FD4F80818F708061ED
:1026800080838EE892E00E9439120C94C112019668
:102690008770BECF0895CF92DF92EF92FF920F9393
:1026A0001F93CF93DF93CDB7DEB762970FB6F89441
:1026B000DEBF0FBECDBF8C0185E0F801DE011D96A7
:1026C00001900D928A95E1F7D8014C9111965C9199
:1026D000119712966C9112971396CD90DC901497E7
:1026E00030918E0270918F028091910290919202AE
:1026F000009709F46BC17F3F19F43F3F09F466C1AD
:10270000E0909002EE2009F4C0C020919302C81618
:10271000D90628F0F601E81BF90BCF0104C080951B
:1027200090958C0D9D1DFF24F394883C910578F0C5
:10273000F12C207F09F0C6C07C2DD98AC88A8989EE
:102740000E94A2128EE892E00E943912B1C0822F3C
:10275000807F09F046C0751314C0341312C0611194
:1027600010C02F702061209393020E94E2128EE825
:1027700092E00E94391280919302D80115968C93B1
:102780002EC0CD2819F15F3F11F44F3FF9F0F62E1E
:1027900061111CC080915C0220915D0236E08217BD
:1027A00009F45AC090E0389FF001399FF00D1124D0
:1027B000E25AFD4F7181571306C07081471303C061
:1027C0007281711103C001968770E9CFF62E6623DE
:1027D00009F427C180919302816080939302F12CC8
:1027E00020C1751308C0341306C0611104C0809164
:1027F0009302D801C3C04D875E878D859E856A8B05
:102800000E947E126A898823E1F16623D1F120912A
:102810009302822F82958F7090E0029774F08091DE
:102820008E0290918F0298878F831986DB86CA86E5
:102830002C87CE0107960E94391286E0F801AEE897
:10284000B2E001900D928A95E1F70E94F0120E9489
:10285000E212FF24F394E5C04D875E878D859E8547
:102860000E94EC17292F22952F7030E0223031057D
:102870000CF0CBC09F7009F0C5C0805E883008F4B2
:10288000D0C0C8010E943912E4CFC816D90608F496
:1028900053C0F601E81BF90BCF01883C910508F401
:1028A00050C0F12C7C2DD98AC88A89890E94A21235
:1028B000EEE8F2E086E0DF011D928A95E9F70E94DA
:1028C000E212AFC0751314C0341312C0611110C0EE
:1028D00080919302F8018583C8010E94391286E035
:1028E000EEE8F2E0DF011D928A95E9F7FE2C99C02F
:1028F0004D875E878D859E856A8B0E947E126A89D0
:10290000882309F4BECF662309F4BBCF209193023C
:10291000822F82958F7090E002970CF48ECF809179
:102920008E0290918F029A8389831B82DD82CC82F2
:102930002E83CE0101967FCF809590958C0D9D1DA5
:10294000ACCFF62E662309F49CCF75132EC034133A
:102950002CC02091930220FD1FC0822F82958F7082
:10296000D9F0D80115962C9315978F3049F08F5FC9
:10297000982F9295907F822F8F70892B15968C932C
:10298000C8010E94391286E0F801AEE8B2E0019079
:102990000D928A95E1F793CF86E0F801AEE8B2E0B8
:1029A00001900D928A95E1F73CC04D875E878D8539
:1029B0009E850E947E12811140CF8091930281609A
:1029C00080939302C8010E9439122BC0662309F438
:1029D00058CF4D875E878D859E850E947E12F82E8A
:1029E000882309F44ECF86E0F801AEE8B2E001900A
:1029F0000D928A95E1F78EE892E00E94CD0D0E943B
:102A0000F0125DCF811139CF0CC0243031050CF0AC
:102A100038CF9F7009F431CFF8019581907F09F08C
:102A20002CCF8F2D62960FB6F894DEBF0FBECDBFB0
:102A3000DF91CF911F910F91FF90EF90DF90CF909A
:102A400008951F93CF93DF93CDB7DEB72C970FB6C2
:102A5000F894DEBF0FBECDBF4F83588769877A8752
:102A60008B879C87CE0107960E944B13882369F0C1
:102A70008F8198852A853B85232BF1F19F3F09F0B3
:102A800063C08F3F09F060C037C086E0FE01379613
:102A9000DE01119601900D928A95E1F76F8178859C
:102AA000EA85FB85309741F17F3F11F46F3F21F1BB
:102AB00020915D0230E0C90101968770992740910D
:102AC0005C0250E08417950709F447C069837A8354
:102AD000FD83EC8396E0929FD001939FB00D11246B
:102AE000A25ABD4FFE01319601900D929A95E1F7E1
:102AF00080935D020E94C11216E080915C02909169
:102B00005D028917C1F1189FC0011124825A9D4F9F
:102B10000E944B13882379F1E0915C021E9FF00123
:102B20001124E25AFD4F4081518162817381848179
:102B300095810E94B11280915C0290E001968770AD
:102B4000992780935C02D9CF4F81588569857A8512
:102B50008B859C850E94B112CFCF0E947A12109271
:102B60005D0210925C02EEE8F2E086E0DF011D9269
:102B70008A95E9F7C1CF2C960FB6F894DEBF0FBE49
:102B8000CDBFDF91CF911F910895EF92FF920F93E8
:102B90001F93CF93DF938C01892B09F46CC0F12C28
:102BA000EE24E394E8012196F8018491843740F4FF
:102BB000843008F051C0813081F0823019F15BC05F
:102BC000853709F444C0A8F19CE7980F903708F0C6
:102BD00052C08F770E94FD0E41C00E5F1F4FFE0155
:102BE000C49180E28C0F883048F4C7708E2D01C0EC
:102BF000880FCA95EAF70E94A41814C08C2F0E946F
:102C0000DF0D2DC00E5F1F4FFE01C49180E28C0FBF
:102C1000883058F4C7708E2D01C0880FCA95EAF726
:102C20000E94AA180E944B181AC08C2F0E94FD0EF9
:102C300016C00E5F1F4FFE01C491CC2381F08FE9B7
:102C40009FE00197F1F700C00000C150F6CF0E5F82
:102C50001F4FFE01F49003C00E94DF0D8E018F2DE7
:102C6000882309F49FCFEFE9FFE03197F1F700C027
:102C700000008150F5CFDF91CF911F910F91FF9010
:102C8000EF90089508950C9442160E9443166093A5
:102C9000CF027093D0028093D1029093D2020C9411
:102CA000601208950C9445160F931F930091CF0264
:102CB0001091D0022091D1023091D202602B712B61
:102CC000822B932B1F910F910C9445160F931F93FA
:102CD0000091CF021091D0022091D1023091D20206
:102CE00060237123822393231F910F910C94451627
:102CF0000F931F930091CF021091D0022091D10227
:102D00003091D20260277127822793271F910F915C
:102D10000C9445160C949B060E948A166093CB0275
:102D20007093CC028093CD029093CE020C946012EB
:102D300060E070E0CB010C948C160F931F9341E080
:102D400050E060E070E08A019B0104C0000F111F99
:102D5000221F331F8A95D2F7C901B8011F910F9125
:102D60000C948C160F931F9341E050E060E070E0EC
:102D700004C0440F551F661F771F8A95D2F78091B4
:102D8000CB029091CC02A091CD02B091CE028A01EB
:102D90009B01082B192B2A2B3B2BC901B8011F9132
:102DA0000F910C948C160F931F9341E050E060E05C
:102DB00070E004C0440F551F661F771F8A95D2F735
:102DC00040955095609570958091CB029091CC0282
:102DD000A091CD02B091CE028A019B010823192354
:102DE0002A233B23C901B8011F910F910C948C1623
:102DF0000F931F9341E050E060E070E004C0440F87
:102E0000551F661F771F8A95D2F78091CB0290914C
:102E1000CC02A091CD02B091CE028A019B0108277D
:102E200019272A273B27C901B8011F910F910C943C
:102E30008C160F931F930091CB021091CC0220911E
:102E4000CD023091CE02602B712B822B932B1F91E0
:102E50000F910C948C160F931F930091CB0210913D
:102E6000CC022091CD023091CE02602371238223C7
:102E700093231F910F910C948C160F931F93009125
:102E8000CB021091CC022091CD023091CE0260276E
:102E90007127822793271F910F910C948C16089508
:102EA000292F220F920F990F890FA82FA695A6956B
:102EB000A695877051E001C0550F8A95EAF785E025
:102EC000A89FD001112420E030E070E0F901EA0F62
:102ED000FB1FEC56FD4F4081CB01022E02C09695A0
:102EE00087950A94E2F78170992781958427852335
:102EF000842780832F5F3F4F2530310539F70895B0
:102F0000292F220F920F990F890F682F66956695CA
:102F10006695982F977085E0689FB001112440E076
:102F200050E080E0FA01E60FF71FEC56FD4F2081DC
:102F300030E0092E02C0369527950A94E2F72170F9
:102F40003327042E01C0220F0A94EAF7822B4F5F29
:102F50005F4F4530510531F70895CF92DF92EF92E0
:102F6000FF920F931F93CF93DF938C01C090CF02FA
:102F7000D090D002E090D102F090D2028091CB02AA
:102F80009091CC02A091CD02B091CE02C82AD92A4C
:102F9000EA2AFB2ACFE1D0E0D701C6010C2E04C0FB
:102FA000B695A795979587950A94D2F780FF06C0A6
:102FB000B8018C2F0E940F09019721F4219760F727
:102FC00080E001C08C2FDF91CF911F910F91FF9076
:102FD000EF90DF90CF900895CF93DF93EC010E94A4
:102FE000AD17BE010E940F09DF91CF9108951F9385
:102FF000CF93DF93EB0190915902992321F0CB01FC
:103000000E94EC1713C0882349F0CB010E94AD1732
:10301000182F682FCE010E94501704C0CB010E94C8
:103020008017182FBE01812F0E940F09DF91CF91C9
:103030001F9108958091D302859585958595089572
:103040008091D3028770089598E0899F90011124A0
:10305000262B2093D3020C94B2162091D302809594
:1030600082238093D302982F977069F430E0482F21
:10307000082E000C550B2417350729F085958595EA
:1030800085950C94D31608959091D302977081E0A2
:1030900009F480E00895E0910201F091030180912C
:1030A000F7028083E0910201F09103019081809109
:1030B000F602892B8083E0910201F0910301908157
:1030C0008091F502892B80838091D402882381F03E
:1030D000E0910201F09103019081892B808380911E
:1030E0000201909103010E947D1981111092D40276
:1030F00080910201909103010C94440C8091F7029D
:1031000008959091F702892B8093F7020895809596
:103110009091F70289238093F70208958093F70234
:1031200008951092F70208959091F602892B8093EA
:10313000F602089580959091F60289238093F60215
:1031400008951092F60208959091F502892B8093CC
:10315000F502089580959091F50289238093F502F8
:1031600008951092F50208958093D4020895109264
:10317000D40208958091D4020895CF92DF92EF9205
:10318000FF926C01EE24FF24C114D104E104F10488
:1031900021F0C701B60120E101C020E0C72ED82EE2
:1031A000E92EFF24C114D104E104F10419F0285FD1
:1031B000C701B6016B017C0154E0F694E794D79403
:1031C000C7945A95D1F7C114D104E104F10419F060
:1031D0002C5FC701B6016B017C0142E0F694E794D5
:1031E000D794C7944A95D1F7C114D104E104F104EE
:1031F00019F02E5FC701B601DC01CB01B695A7958A
:1032000097958795892B8A2B8B2B09F02F5F822F1F
:10321000FF90EF90DF90CF90089580E090E00E94C3
:10322000AA2421E08D3E9E4F09F020E0822F0895D0
:1032300082E090E00C94A22483E090E00C94A2241D
:1032400084E090E00C94A224682F84E090E00C9439
:10325000B024AB01BC018FE090E00C94C224AB0120
:10326000BC0183E190E00C94C22460E070E0CB01EB
:103270000C942F1960E070E0CB010E9429190C9486
:1032800035196DEE7EEF80E090E00E94CE2460E084
:1032900082E090E00E94B02460E083E090E00E9431
:1032A000B0241092CF021092D0021092D10210924C
:1032B000D20260E084E090E00E94B02460E085E00B
:1032C00090E00E94B02460E086E090E00E94B0248C
:1032D0006FEF87E090E00E94B02440E050E0BA0138
:1032E00088E090E00E94C22460E08DE090E00E94BF
:1032F000B0240C943A190C944119FC013296809137
:103300001301882331F08091320387FF02C09EE1D0
:1033100001C096E080E0915028F021912223D9F35A
:103320008F5FF9CF08959C01FC0132969FEF80E0FA
:103330004191461789F09F3F19F4411101C0982F20
:103340008F5F8630A9F79F3F39F0F901E90FF11D32
:1033500097FDFA95628308950895FC0132960896C8
:103360002081261301C010823196E817F907C1F7B2
:103370000895262F2695269526952E3168F4FC0172
:10338000E20FF11D677021E030E001C0220F6A9565
:10339000EAF78281282B22830895262F26952695E9
:1033A00026952E3170F4FC01E20FF11D677021E0CB
:1033B00030E001C0220F6A95EAF720958281282328
:1033C0002283089520911301222329F020913203B2
:1033D00027FD0C94B9190C94931920911301222301
:1033E00029F02091320327FD0C94CD190C94AD19CE
:1033F00020911301FC013296222331F08091320397
:1034000087FF02C08EE101C086E0DF011D928A9530
:10341000E9F7089508950C940A1A0E940B1A8091F6
:103420003803843049F11092F90220E488E190E0F9
:103430000FB6F894A895809360000FBE20936000AB
:1034400080E00E944A070E940B1A83B7817F846044
:1034500083BF83B7816083BF7894889583B78E7F5D
:1034600083BF0FB6F894A89580916000886180931F
:103470006000109260000FBE08950895CF930E94DF
:10348000CA030E9473040E943D1AC0E08C2F0E9460
:10349000BB04811104C0CF5FCE30C1F701C081E011
:1034A000CF91089508950C94521A0E947A120E94A6
:1034B000380C0E944A070C94531A1F920F920FB6B1
:1034C0000F9211248F939F93AF93BF938091F90232
:1034D000811113C080912E0390912F03A09130038E
:1034E000B09131034196A11DB11D80932E0390939D
:1034F0002F03A0933003B0933103BF91AF919F91FD
:103500008F910F900FBE0F901F90189582E084BD91
:1035100093E095BD9AEF97BD80936E0008952FB705
:10352000F89480912E0390912F03A0913003B091D5
:1035300031032FBF0895CF92DF92EF92FF920F9346
:103540001F932FB7F89440912E0350912F03609151
:103550003003709131032FBF6A017B01EE24FF24F9
:103560008C0120E030E0C016D106E206F30610F42C
:10357000415051099A01281B390BC9011F910F9124
:10358000FF90EF90DF90CF90089578941F920F9264
:103590000FB60F9211248F939F93AF93BF93809197
:1035A0002E0390912F03A0913003B0913103019627
:1035B000A11DB11D80932E0390932F03A093300380
:1035C000B0933103BF91AF919F918F910F900FBE38
:1035D0000F901F901895F89481E08093E00080E2AE
:1035E0008093D800E9ECF0E010828FE19EE401972F
:1035F000F1F700C000001DBA109268001CBC10BE9C
:103600001FBA10927A0010926E0010926F00109202
:103610007100109272001082ECEBF0E0108214B88E
:1036200017B81AB81DB810BA108215B818B81BB858
:103630001EB811BA0C94003F08950E940D19811113
:1036400002C00E947B190E9418198093F8020E9400
:10365000201990E090933303809332030E941C1949
:10366000682F70E080E090E00C9452168091FD028B
:1036700080FF0BC06091070185E0689FB0011124B5
:1036800075956795759567952BC081FF09C0609109
:10369000070185E0689FB00111247595679520C0EA
:1036A00082FF07C06091070185E0689FB001112487
:1036B00017C09091FE029923D1F0609106019617F0
:1036C00088F72091070185E0289F90011124929F9F
:1036D000A001939F500D112470E0CA010E94742430
:1036E0006038710540F46115710539F002C065E07C
:1036F00070E0862F08958FE7089581E00895809106
:10370000FD0280FF08C06091050170E07595679526
:103710007595679521C081FF06C06091050170E035
:103720007595679519C082FF04C06091050170E02E
:1037300010C09091FE029923C1F060910401961788
:10374000A0F780910501899FC001112470E00E94BB
:1037500074246038710528F46115710521F0862FF5
:1037600008958FE7089581E0089561E070E0F4CF57
:10377000803F21F40E94361B819504C0813F29F4CB
:103780000E94361B809302030895823F21F40E9419
:10379000361B819504C0833F29F40E94361B809319
:1037A00001030895893F19F40E947F1B05C08A3FD9
:1037B00031F40E947F1B81958093030308958B3F12
:1037C00021F40E947F1B819504C08C3F29F40E9444
:1037D0007F1B809304030895843F21F480910003AC
:1037E000816017C0853F21F480910003826011C081
:1037F000863F21F48091000384600BC0873F21F451
:1038000080910003886005C0883F31F480910003F7
:1038100080618093000308958D3F21F48091FD0223
:1038200081600BC08E3F21F48091FD02826005C053
:103830008F3F29F48091FD0284608093FD020895FA
:10384000803F39F48091020387FF6CC0109202031D
:1038500069C0813F29F4809102031816BCF362C04D
:1038600090910103823F29F497FF5CC010920103FD
:1038700059C0833F19F41916CCF354C0893F41F461
:103880008091030318160CF04DC0109203034AC038
:103890008A3F29F48091030387FF44C0F6CF8B3F12
:1038A00039F48091040387FF3DC0109204033AC0AD
:1038B0008C3F29F4809104031816BCF333C0843F75
:1038C00021F4809100038E7F17C0853F21F4809101
:1038D00000038D7F11C0863F21F4809100038B7F10
:1038E0000BC0873F21F480910003877F05C0883F8C
:1038F00031F4809100038F7E8093000313C08D3FCD
:1039000021F48091FD028E7F0BC08E3F21F48091C7
:10391000FD028D7F05C08F3F29F48091FD028B7FD2
:103920008093FD028091010381110EC080910203FA
:1039300081110AC080910303811106C080910403A4
:10394000811102C01092FE0208958FEF92E00E9452
:103950005E0C0E948F1A9093FB028093FA020895E6
:103960001F93CF93DF938091FA029091FB020E9404
:103970009B1AAC019091FE02992321F0209108013D
:1039800030E006C02091FC028AE0289F90011124BB
:103990004217530708F47BC080910103C0910203D2
:1039A000D091030310910403811107C0C1116BC0B2
:1039B000D11169C0111167C06AC09F3F19F09F5FA4
:1039C0009093FE02181624F40E94361B8093010384
:1039D0008091010387FF05C00E94361B819580936B
:1039E00001031C1624F40E94361B8093020380916D
:1039F000020387FF05C00E94361B81958093020356
:103A0000309101033323E1F0209102032223C1F01E
:103A100045EB3403C0011124892F990F990B0097AE
:103A200009F481E08093010335EB2303C0011124E5
:103A3000892F990F990B009709F481E08093020375
:103A40001D1624F40E947F1B8093030380910303BF
:103A500087FF05C00E947F1B819580930303111689
:103A600024F40E947F1B809304038091040387FF4A
:103A700005C00E947F1B819580930403DF91CF9145
:103A80001F910C94A51C9F3F09F099CFA1CFDF9106
:103A9000CF911F910895EFEFF2E086E0DF011D92D4
:103AA0008A95E9F71092FE021092FD020895809126
:103AB000250308950F931F93CF93DF9300D01F9298
:103AC000CDB7DEB78C010E94BB1F823011F084306D
:103AD00021F584E089831B830A8382E08093E900D7
:103AE0008FEF9091E800815095FD06C095ED9A9575
:103AF000F1F700008111F5CF8091E80085FF0DC03E
:103B000040E050E063E070E0CE0101960E94D81FD3
:103B10008091E8008E778093E8000F900F900F90CF
:103B2000DF91CF911F910F910895CF93DF9300D034
:103B30001F92CDB7DEB720913803243031F523E052
:103B40002983805891099B838A8382E08093E900CE
:103B50008FEF9091E800815095FD06C095ED9A9504
:103B6000F1F700008111F5CF8091E80085FF0DC0CD
:103B700040E050E063E070E0CE0101960E94D81F63
:103B80008091E8008E778093E8000F900F900F905F
:103B9000DF91CF910895CF93DF93EC010E94BB1F7B
:103BA000823011F08430F9F482E08093E9009FEFD5
:103BB0008091E800915085FD06C085ED8A95F1F76A
:103BC00000009111F5CF8091E80085FF0CC040E026
:103BD00050E066E070E0CE010E94D81F8091E800BE
:103BE0008E778093E800DF91CF910895CF93DF9394
:103BF000EC010E94BB1F823011F08430D9F5809116
:103C00001301882339F08091320387FF03C060E2FB
:103C100082E002C068E081E08093E9008FEF90913C
:103C2000E800815095FD06C095ED9A95F1F70000EA
:103C30008111F5CF8091E80085FF1CC080911301B0
:103C4000811105C040E050E068E070E003C070E022
:103C500040E050E0CE010E94D81F8091E8008E77AE
:103C60008093E80080E2FE01A5E0B3E001900D92B0
:103C70008A95E1F7DF91CF91089580913703811103
:103C800009C00E946D210E94CA218091E2008460D7
:103C90008093E200089510923703089508950895DF
:103CA0000C94551A42E061EC81E00E94E72042E268
:103CB00061EC82E00C94E72080913A03833009F4B0
:103CC00053C030F4813071F0823009F48CC0089513
:103CD0008A3009F478C08B3009F45EC0893009F06D
:103CE0009AC020C080913903813A09F094C0809134
:103CF000E800877F8093E80080913D0390913E0328
:103D0000892B21F460E285E093E003C060E080E06D
:103D100090E070E00E9423208091E8008B778093F0
:103D2000E800089580913903813209F074C08091D0
:103D30003D0390913E03029708F06DC08091E8002A
:103D4000877F8093E8008091E80082FD05C0809124
:103D500038038111F8CF5FC08091F1008093250373
:103D60008091E8008B7753C080913903813A09F044
:103D700052C080913D0390913E03892B09F04BC0C6
:103D80008091E800877F8093E8008091E80080FFC1
:103D9000FCCF8091130136C0809139038132D9F56F
:103DA00080913D0390913E03892BA9F58091E80015
:103DB000877F8093E8000E941C2180913B038093C1
:103DC00013010C947A1280913903813221F580918C
:103DD000E800877F8093E8000E941C2180913C03CB
:103DE00080932603089580913903813AA1F480914C
:103DF000E800877F8093E8008091E80080FFFCCF97
:103E0000809126038093F1008091E8008E77809363
:103E1000E8000C941C21089584B7877F84BF0FB6F7
:103E2000F894A8958091600088618093600010925A
:103E300060000FBE80E880936100109261000E94D4
:103E4000A00C0E946D210E94CA218091E200846032
:103E50008093E20078940E9459240E94A60C89E085
:103E600091E00E94330C80913803853069F40E9400
:103E70000D1A809136038823B1F30E943E1A8823DD
:103E800091F30E94C21FEFCF0E94AC0CECCF0C94B8
:103E9000491F292F332723303105C9F064F421301D
:103EA000310581F02230310509F04CC08BE390E000
:103EB00026ED34E04BC02132310521F122323105AB
:103EC00089F140C082E190E021E135E03FC09927CF
:103ED0008130910571F02CF4892BA1F5E2EDF4E02D
:103EE0000DC08230910541F0039761F5ECE9F4E0F3
:103EF00005C0EAEBF4E002C0E2EAF4E0849190E06D
:103F00009F0124C06115710541F061307105D1F444
:103F100089E090E021E035E019C089E090E028EEEA
:103F200034E014C06115710541F06130710551F440
:103F300080EC90E023E235E009C080E490E023EEDD
:103F400035E004C080E090E020E030E0FA01318309
:103F5000208308950895CF93C82F0E94AA1FC0936D
:103F60002703CF91089580913803843011F081E0C8
:103F7000089582E0089580912703811102C00C9476
:103F8000B31F089580E189BD82E189BD09B400FEB7
:103F9000FDCF8091D8008F7D8093D8008091E00084
:103FA00082608093E0008091E00081FDFCCF089565
:103FB000CF92DF92EF92FF920F931F93CF93DF93F5
:103FC000EC018B016A010E943B21811133C0C114B5
:103FD000D10439F0F60180819181081B190BC80FBB
:103FE000D91FE12CF12C0115110519F18091E80080
:103FF00085FD16C08091E8008E778093E800C1149B
:10400000D10449F0F60180819181E80EF91EF18218
:10401000E08285E00FC00E943B21882321F30AC083
:1040200089918093F10001501109FFEFEF1AFF0A07
:10403000DACF80E0DF91CF911F910F91FF90EF9049
:10404000DF90CF90089520913F03309140032617D1
:10405000370748F06115710539F42091E8002E7793
:104060002093E80001C0B90140E061157105A9F194
:1040700020913803222309F443C0253009F442C0BB
:104080002091E80023FD40C02091E80022FD32C0CD
:104090002091E80020FFE9CF4091F3002091F20049
:1040A00030E0342BFC01CF016115710559F0283047
:1040B000310540F481918093F100615071092F5FC7
:1040C0003F4FF1CF41E02830310509F040E0209129
:1040D000E8002E772093E800C8CF4111C9CF0AC06D
:1040E00080913803882361F0853061F08091E80089
:1040F00083FD0AC08091E80082FFF2CF80E008953E
:1041000082E0089583E0089581E0089520913F03BF
:10411000309140032617370748F06115710539F4CF
:104120002091E8002E772093E80001C0B901FC013E
:1041300020E06115710591F180913803882309F41D
:1041400040C0853009F43FC08091E80083FD3DC048
:104150008091E80082FD2FC08091E80080FFE9CFC8
:104160002091F3008091F20090E0922B611571058F
:1041700059F08830910540F424912093F100319654
:10418000615071090196F2CF21E0089709F020E013
:104190008091E8008E778093E800CBCF2111CCCFBF
:1041A0000AC080913803882361F0853061F08091E6
:1041B000E80083FD0AC08091E80082FFF2CF80E032
:1041C000089582E0089583E0089581E00895982F8E
:1041D000973058F59093E900981739F07091EC00FA
:1041E0002091ED005091F00003C0242F762F50E075
:1041F00021FF19C03091EB003E7F3093EB003091EE
:10420000ED003D7F3093ED003091EB003160309355
:10421000EB007093EC002093ED005093F0002091A0
:10422000EE0027FF07C09F5FD3CF8F708093E90018
:1042300081E0089580E008958091390387FF11C0DF
:104240008091E80082FD05C0809138038111F8CF8C
:1042500011C08091E8008B770BC0809138038823D0
:1042600049F08091E80080FFF8CF8091E8008E77D8
:104270008093E80008952091E4003091E50095E6F0
:104280004091EC00842F817040FF22C08091E800B3
:1042900080FD1CC080913803882391F0853091F017
:1042A0008091EB0085FD10C04091E4005091E50045
:1042B0004217530729F39A01915011F784E00895AA
:1042C00082E0089583E0089581E0089580E00895F4
:1042D0004091E80042FFDECF08950E94DB210E945A
:1042E000E321E0EEF0E0808181608083E8EDF0E0A2
:1042F00080818F77808319BCA7EDB0E08C918E7F91
:104300008C9380818F7E80831092370308950F9362
:104310001F93CF93DF930E94DB210E94E321C8ED1E
:10432000D0E088818F7788838881806888838881BE
:104330008F7D888319BC1092380310923403109239
:1043400036031092350300EE10E0F80180818B7F78
:10435000808388818160888342E060E080E00E9401
:10436000E720E1EEF0E080818E7F8083E2EEF0E0F6
:10437000808181608083808188608083F801808172
:104380008E7F8083888180618883DF91CF911F91A8
:104390000F910895E8EDF0E080818F7E8083E7ED56
:1043A000F0E080818160808384E082BF81E080933F
:1043B00037030C948721E8EDF0E080818E7F8083C5
:1043C0001092E20008951092DA001092E100089530
:1043D0001F920F920FB60F9211242F933F934F937A
:1043E0005F936F937F938F939F93AF93BF93EF935D
:1043F000FF938091E10082FF0BC08091E20082FF79
:1044000007C08091E1008B7F8093E1000E945824D7
:104410008091DA0080FF1FC08091D80080FF1BC010
:104420008091DA008E7F8093DA008091D90080FF3E
:104430000DC080E189BD82E189BD09B400FEFDCFD8
:1044400081E0809338030E943D1E05C019BC109284
:1044500038030E944B1E8091E10080FF19C08091BB
:10446000E20080FF15C08091E2008E7F8093E20021
:104470008091E20080618093E2008091D8008062A8
:104480008093D80019BC85E0809338030E944F1EAA
:104490008091E10084FF30C08091E20084FF2CC055
:1044A00080E189BD82E189BD09B400FEFDCF809124
:1044B000D8008F7D8093D8008091E1008F7E80931B
:1044C000E1008091E2008F7E8093E2008091E20023
:1044D00081608093E20080913403882311F084E0AE
:1044E00007C08091E30087FD02C081E001C083E046
:1044F000809338030E94501E8091E10083FF29C001
:104500008091E20083FF25C08091E100877F809346
:10451000E10082E080933803109234038091E1003F
:104520008E7F8093E1008091E2008E7F8093E20095
:104530008091E20080618093E20042E060E080E0F0
:104540000E94E7208091F00088608093F0000E9434
:104550004E1EFF91EF91BF91AF919F918F917F91EF
:104560006F915F914F913F912F910F900FBE0F90E0
:104570001F9018951F920F920FB60F9211242F9330
:104580003F934F935F936F937F938F939F93AF93DB
:10459000BF93CF93DF93EF93FF93C091E900CF7068
:1045A0008091EC00D82FD17080FDD0E81092E90006
:1045B0008091F000877F8093F00078940E94FE2223
:1045C0001092E9008091F00088608093F000CD2B7C
:1045D000CF70C093E900FF91EF91DF91CF91BF9130
:1045E000AF919F918F917F916F915F914F913F918B
:1045F0002F910F900FBE0F901F9018951F93CF9380
:10460000DF93CDB7DEB7AA970FB6F894DEBF0FBE23
:10461000CDBFE9E3F3E088E08E0F9091F100919334
:104620008E13FBCF0E945C1E8091E80083FF28C19F
:104630008091390390913A03492F50E04A30510557
:1046400008F01EC1FA01E755FF4F0C94882480380A
:1046500021F0823809F014C108C08091350390918F
:104660003603992389F082600FC080913D038F70DB
:10467000873008F005C18093E9008091EB0085FB4D
:10468000882780F91092E9009091E800977F909335
:10469000E8008093F1001092F100D0C0282F2D7F08
:1046A00009F0EEC0882319F0823061F0E9C08091F2
:1046B0003B03813009F0E4C0933009F080E080933F
:1046C00036032EC080913B0381112AC080913D03A7
:1046D0008F702FEF280F263008F0D2C08093E900AA
:1046E0002091EB0020FF1CC0933021F48091EB005F
:1046F000806214C09091EB0090619093EB0021E0F8
:1047000030E0A90102C0440F551F8A95E2F740939B
:10471000EA001092EA008091EB0088608093EB0041
:104720001092E9008091E800877F8093E8000E9462
:104730001C21A6C08111A4C010913B031F7780915A
:10474000E3008078812B8093E3008091E800877FED
:104750008093E8000E941C218091E80080FFFCCF3C
:104760008091E30080688093E300111102C082E031
:1047700001C083E08093380383C08058823008F002
:104780007FC080913B0390913C038C3D53E09507A3
:1047900079F583E08A838AE289834FB7F894DE0152
:1047A000139620E03EE051E2E32FF0E050935700F3
:1047B000E49120FF03C0E295EF703F5FEF708E2F12
:1047C00090E0EA3010F0C79601C0C0968D939D939B
:1047D0002F5F243149F74FBF8091E800877F809396
:1047E000E8006AE270E0CE0101960E94232015C025
:1047F00060913D0370913E03AE014F5F5F4F0E9499
:10480000471FBC01892BE1F19091E800977F9093BD
:10481000E80089819A810E9486208091E8008B7748
:104820008093E8002DC0803859F58091E800877F9B
:104830008093E800809134038093F1008091E80038
:104840008E7773CF81111CC090913B039230C0F4DE
:104850008091E800877F8093E800909334030E9462
:104860001C2180913403811106C08091E30087FDF3
:1048700002C081E001C084E0809338030E94521E90
:104880008091E80083FF0AC08091E800877F8093D1
:10489000E8008091EB0080628093EB00AA960FB64F
:1048A000F894DEBF0FBECDBFDF91CF911F91089569
:1048B0000895CF93809138038823A1F0C091E90037
:1048C000CF709091EC00892F817090FD80E8C82B0B
:1048D0001092E9008091E80083FD0E94FE22CF70D3
:1048E000C093E900CF91089597FB072E16F400942A
:1048F00007D077FD09D00E948E2407FC05D03EF436
:10490000909581959F4F0895709561957F4F08957B
:10491000EE0FFF1F0590F491E02D0994AA1BBB1B1D
:1049200051E107C0AA1FBB1FA617B70710F0A61BAF
:10493000B70B881F991F5A95A9F780959095BC01D0
:10494000CD010895F999FECF92BD81BDF89A9927BE
:1049500080B50895A8E1B0E042E050E00C94D62480
:10496000262FF999FECF92BD81BDF89A019700B428
:10497000021639F01FBA20BD0FB6F894FA9AF99AC8
:104980000FBE08950396272F0E94B1240E94B024E1
:10499000252F0E94B124242F0C94B1240196272F97
:1049A0000E94B1240C94B024DC01CB01FC01F999E4
:1049B000FECF06C0F2BDE1BDF89A319600B40D926B
:0C49C00041505040B8F70895F894FFCF24
:1049CC002000D50228083C0714571DF61DCB1D9559
:1049DC001D5A1D01000D010D020D030D040D050DD9
:1049EC00000C010C020C030C040C050C000B010B4D
:1049FC00020B030B040B050B000A010A020A030A43
:104A0C00040A050A00090109020903090409050938
:104A1C00000801080208030804080508000701073C
:104A2C000207030704070507000601060206030632
:104A3C000406050600050105020503050405050528
:104A4C00000401040204030404040504000301032C
:104A5C000203030304030503000201020202030222
:104A6C000402050200010101020103010401050118
:0C4A7C000000010002000300040005001F
:00000001FF
