:100000000C945A020C9477020C9477020C947702A9
:100010000C9477020C9477020C9477020C9477027C
:100020000C9477020C9477020C9496140C94D213CF
:100030000C94F9170C9477020C9477020C947702C5
:100040000C9477020C9477020C9477020C9477024C
:100050000C9477020C9487170C9477020C94770217
:100060000C9477020C9477020C9477020C9477022C
:100070000C9477020C9477020C9477020C9477021C
:100080000C9477020C9477020C9477020C9477020C
:100090000C9477020C9477020C9477020C947702FC
:1000A0000C9477020C9477020C9477026305650533
:1000B0007005670569056B056D056F0572057405AB
:1000C0007605810578057A057C057E058005830522
:1000D0000F060F064D064D069606B6068A08E3087B
:1000E000F806E407F607F607560A590A5C0A5F0A9B
:1000F000620A650A680A870E8C0E960E8A0E8F0EAB
:10010000940E920EE3110A12AA130A12AA135212A3
:100110007512AA13731386130F1E0F1E221E221EA2
:10012000181E221E221E221E0F1E0F1E1D1E221E04
:10013000221E1D1E650056002B00340001510000D8
:1001400035001400040054005000FE5CE2000F0073
:1001500011006F0051002A00E00018000C001C0084
:1001600052000800E100060016000A004F00FD5C86
:10017000E3000D0019001B000000025146004B0077
:1001800000004E000000FB5C48004C0000003F00F7
:100190000000FC5CE7000E0005001D00000002519D
:1001A000E50013000B0009005000FD5CE4001000A6
:1001B0001700070051002C00E2001A00150037005C
:1001C000520028002F003800120036004F00FF5C5C
:1001D00065005700290033000151000001000100B3
:1001E0006A000100010000000100640059006C0079
:1001F00001000100010068005A002E00010001000A
:1002000001005F005C00310001006200010060003D
:100210005D006D004D000100010055006B006E0097
:100220000000010047000100000001000000010083
:100230004900010000000100000001000100690008
:100240002D003000000001000100240021001E00EC
:100250004A0001000100250022001F0001002700C4
:1002600001002600230020000100010001006100C0
:1002700027025B0001000100010001005E00010097
:100280000100000001000100FB00FC000100000073
:1002900001000100F900FA0001000100FD00010069
:1002A000F200010001000100FE00F000F400F10086
:1002B00001000100FF000100F30001000100010046
:1002C00001000100F500F600000001000100F70048
:1002D0000000F80000000100010001000000010022
:1002E0000000010001000100010001000000010008
:1002F000010040003D003A00010001000100410002
:100300003E003B0001000100010042003F003C00B4
:10031000010001000100450044004300010001000C
:10032000F75C010001000100010000000501090265
:10033000A10185020901A10005091901290515007E
:10034000250195057501810295017503810105015E
:10035000093009311581257F950275088106093814
:100360001581257F950175088106050C0A3802154F
:1003700081257F950175088106C0C005010980A10E
:100380000185031601002603001A81002A830075E7
:100390001095018100C0050C0901A1018504160119
:1003A00000269C021A01002A9C027510950181000A
:1003B000C005010906A1018505050719E029E71512
:1003C0000025019508750181020508190129059587
:1003D0000575019102950175039101050719002921
:1003E000EF1500250195F075018102C00501090690
:1003F000A101050719E029E71500250195087501F8
:1004000081029501750881010508190129059505E5
:10041000750191029501750391010507190029FFE6
:10042000150026FF00950675088100C009023B00F3
:10043000020100A0FA0904000001030101000921E2
:10044000110100012240000705810308000A090488
:100450000100010300000009211101000122C00078
:100460000705820320000A1201100100000008EDB8
:10047000FE0713010001020301040330000000160F
:10048000034500720067006F0044006F0078002091
:100490000045005A00000016034500720067006F17
:1004A0000044006F007800200045005A000000045E
:1004B0000309040011241FBECFEFDAE0DEBFCDBF79
:1004C00011E0A0E0B1E0E8E4F8E402C005900D928C
:1004D000A03CB107D9F725E0A0ECB1E001C01D9226
:1004E000AB3FB207E1F70E945D1B0C9422240C94F1
:1004F00000008F929F92AF92BF92CF92DF92EF92C5
:10050000FF920F931F93CF93DF93CDB7DEB728975A
:100510000FB6F894DEBF0FBECDBFFC01F080118195
:1005200083819481892B09F42EC71F3F21F40FEF9B
:10053000F01609F428C76F0185E0DE0111960190DD
:100540000D928A95E1F7F601228189819A81222311
:1005500049F00E944019082F682F89819A810E94D2
:10056000B91903C00E948C19082F26E0129FF001D0
:10057000112434E5039FE00DF11D1124EF0DF11D51
:10058000EE0FFF1FEC5CFE4F05911491073F8CE5C9
:10059000180709F042C0F6018281882309F442C09D
:1005A0009091B60581E0890F8770987F853020F49F
:1005B000892B8093B60502C09093B6058091B6054D
:1005C0008770FFEF8F9FC0011124959587959595B2
:1005D00087959927909389008093880090938B004A
:1005E00080938A0090938D0080938C004091B60593
:1005F0005091B7056091B8057091B9058FE090E012
:100600000E94A52260919E0570919F058091A00592
:100610009091A1050E94280E05C00A3F2CE5120703
:1006200009F436C18091C20481117FC0F601828134
:10063000811100C10C3FFCE51F07A1F1A0F40B3FA5
:100640003CE5130709F0F6C00E940B2060E070E063
:10065000CB010E94E91980EC91E09093C104809352
:10066000C00481E02DC00E3F8CE5180761F10F3FFB
:100670009CE5190709F0DEC0A0900601B0900701C3
:10068000C0909E05D0909F05E090A005F090A10538
:100690000E940B2060E070E0CB010E94E9190AEB98
:1006A00014E02FC00E940B2060E070E0CB010E949C
:1006B000E9198AEB94E09093C1048093C00482E02E
:1006C0008093C20460C6A0900801B0900901C09058
:1006D0009E05D0909F05E090A005F090A1050E9496
:1006E0000B2060E070E0CB010E94E91900EC11E002
:1006F0000A151B0579F0C8010E9479020A5F1F4F95
:10070000F7CF0A151B0531F0C8010E947902065087
:100710001109F7CF0E940B20C0929E05D0929F0531
:10072000E092A005F092A1052EC60D3FECE51E0754
:1007300039F0C0F101152DE5120708F424C632C0C6
:10074000F6019281992309F41EC6813039F0823076
:1007500031F58091C0049091C10419C0E091C004AA
:10076000F091C1049E2F8F2F01E0E03CF00721F0B3
:10077000369722812111F6CF9093080180930901C9
:100780000EC0FC0136962281222329F0CF0114E00D
:100790008A3B9107B1F7909307018093060110926D
:1007A000C204F1C5F6019281813019F0823001F165
:1007B00041C02091060130910701A091C004B09181
:1007C000C104911104C0F1E0A03CBF0799F1CD0133
:1007D00006972817390771F186E0F60101900D920E
:1007E0008A95E1F78091C0049091C10406961EC0DD
:1007F0002091080130910901A091C004B091C10479
:10080000911104C084E0AA3BB807A1F0CD0106967F
:100810002817390779F086E0F60101900D928A9544
:10082000E1F78091C0049091C10406979093C104B0
:100830008093C004F6018281882379F0033E9CE511
:10084000190709F44FC008F042C0013EFCE51F073C
:10085000C1F51092B2050E94C70B17FFB7C0F60191
:100860008281811145C00531FCE51F0708F4FFC0F6
:100870000C3D9CE5190709F42BC508F431C50D3D65
:100880002CE5120709F46DC50E3D1C4509F067C142
:10089000F6018281882309F476C528960FB6F8946C
:1008A000DEBF0FBECDBFDF91CF911F910F91FF90A3
:1008B000EF90DF90CF90BF90AF909F908F900C946F
:1008C0008518023E2CE5120741F681E00EC0043E79
:1008D0003CE5130749F0053E8CE5180709F0BDCF4C
:1008E00084E003C082E001C083E08093B205B3CF0F
:1008F0008091A5058093C3041092A5058091B2054F
:10090000813071F048F08230D1F08430F1F486EE1D
:100910000E949C2088E117C082EE0E94AF2015C083
:1009200089E09AE00E94BD1088E10E94AF2088E132
:100930000E94352089EF99E00E94BD1006C082EE2A
:100940000E94AF2087E50E949C208FE39CE90197DD
:10095000F1F700C000007801E894F7F85CE0A52EFC
:10096000B12CC7010A2C02C0969587950A94E2F72C
:10097000282F2F7041F0822F90E02A3010F44D96EE
:1009800004C0069702C087E290E00E949C2094E099
:10099000A91AB108ECEFAE16EFEFBE0611F7809181
:1009A000B205813039F040F0823031F0843051F4BA
:1009B00088E206C08CE204C082EE0E94352002C0AC
:1009C0000E949C208091C3048093A505003FFCE514
:1009D0001F07B1F180F4083D3CE51307C9F0093D5C
:1009E0008CE51807C9F1073D9CE51907C1F526E21A
:1009F00041EE61EE10C0023FECE51E0749F120F127
:100A0000033F2CE5120759F527E245EE66EE03C0D9
:100A100027E245EE65EEC60128960FB6F894DEBFD4
:100A20000FBECDBFDF91CF911F910F91FF90EF903F
:100A3000DF90CF90BF90AF909F908F900C94840FD9
:100A400026E241EE60EEE7CF27E245EE64EEE3CF2B
:100A500026E241EE62EEDFCF28E241E0DBCFF60195
:100A60008281882309F48AC01092C404FCCE02302B
:100A70002CE5120708F46AC0F6018281882309F484
:100A80006EC080E090E00E948D228E3E9E4F11F05D
:100A90000E94851884E090E00E947F2290E090936D
:100AA000C9058093C805F801E350FC45E231F10522
:100AB00030F4EA5AFF4F8091C8050C94EF228091E0
:100AC000C805816027C0826025C0846023C0806122
:100AD00021C080621FC080641DC080681BC084600C
:100AE000886018C08E7F16C08D7F14C08B7F12C0A7
:100AF0008F7E10C08F7D0EC08F7B0CC08F770AC099
:100B00008B7F877F07C087FB222720F991E0922700
:100B100090FB87F98093C8056091C80584E090E058
:100B20000E94932228960FB6F894DEBF0FBECDBF69
:100B3000DF91CF911F910F91FF90EF90DF90CF90B9
:100B4000BF90AF909F908F900C940B2001153CE5C7
:100B5000130709F46BC301301C4509F4A9C3F6015E
:100B60008281008111818823F9F0C8010E94401917
:100B7000F82E682FC8010E94B9191AC00531FCE58A
:100B80001F0708F0A0C302302CE5120708F074CF4D
:100B900001153CE5130709F449C301301C4509F46C
:100BA00087C3F60100811181C8010E948C19F82EBB
:100BB000B8018F2D0E94CD0B182F382FF6012581FB
:100BC00022952F70028101111092A4058091A20537
:100BD0008770A9F0002399F080E2810F883078F0C7
:100BE00082E02F8338879E830E941A1A8091A20583
:100BF0008770EE24E3942F8138859E818111E12C4A
:100C0000A92EA2944FE0A422B12CFCE0AF16B104AF
:100C100008F0D9C2F501E859FF4F0C94EF22892F53
:100C2000807F9F70F92E882319F0F29480EFF822CC
:100C30000023B9F0FF2009F457C280E2810F883009
:100C400010F0311106C09091A505F92AF092A50582
:100C500005C09091A405F92AF092A4050E94FA1803
:100C600043C2812F38870E9435203885FF2009F440
:100C7000AAC2105EF094183010F0311106C09091A5
:100C8000A505F922F092A50505C09091A405F922C9
:100C9000F092A4050E94FA1896C2492F407F892F2E
:100CA0008F70403211F08295807F332319F03130FC
:100CB000E9F025C0002381F03091A605222351F0F0
:100CC000213041F4982F932B391709F47CC290936B
:100CD000A60579C2832B17C0222319F0213009F40D
:100CE00072C28E830E94F4188E811DC0002321F0F1
:100CF000223008F068C207C0211165C214C0002369
:100D000029F02111F1C10E942B205DC2222359F04C
:100D1000193309F0FBC10FEF27EE33E001502040FB
:100D20003040E1F7F1C10E9420204DC2292F2695C5
:100D30002695237030E02115310521F02130310551
:100D400059F041C2002319F0812F937002C080E056
:100D500090E00E94A50B40C2002319F0812F9370F0
:100D600002C080E090E00E948F0B36C20023F9F0B1
:100D7000153F51F0163F71F0143FA9F48091C6045D
:100D80009091C70481600BC08091C6049091C70404
:100D9000826005C08091C6049091C70484609093DE
:100DA000C7048093C604812F0E941F171EC0153FE1
:100DB00051F0163F71F0143FA9F48091C604909150
:100DC000C7048E7F0BC08091C6049091C7048D7FAD
:100DD00005C08091C6049091C7048B7F9093C7048F
:100DE0008093C604812F0E9455160E94E317F4C118
:100DF000892F837009F070C00111ECC1812F829599
:100E000086958770880F880F412F4F7050E060E003
:100E100070E04A015B01082E04C0880C991CAA1CD2
:100E2000BB1C0A94D2F714FF12C00FE010E020E0C0
:100E300030E004C0000F111F221F331F8A95D2F724
:100E4000B901A801409550956095709503C040E0A8
:100E500050E0BA01969596959370892F90E0823074
:100E6000910529F183309105C9F00091A7051091F2
:100E7000A8052091A9053091AA05019759F04829A4
:100E800059296A297B29CB01BA0160237123822366
:100E900093230AC0802A912AA22AB32ACB01BA013D
:100EA000682979298A299B290E94541A93C14829C3
:100EB00059296A297B298091A7059091A805A091BD
:100EC000A905B091AA058A019B01082719272A279D
:100ED0003B27C901B801E8CF002319F0892F8170A1
:100EE00001C08695882309F475C1812F8295869566
:100EF0008770880F880F412F4F7050E060E070E0DE
:100F00004A015B01082E04C0880C991CAA1CBB1C5A
:100F10000A94D2F714FF12C00FE010E020E030E096
:100F200004C0000F111F221F331F8A95D2F7B90189
:100F3000A801409550956095709503C040E050E041
:100F4000BA01969596959370892F90E0823091051D
:100F5000E9F08330910579F100919E0510919F058C
:100F60002091A0053091A105019759F048295929F0
:100F70006A297B29CB01BA01602371238223932341
:100F800020C0802A912AA22AB32A15C048295929AB
:100F90006A297B2980919E0590919F05A091A005CB
:100FA000B091A1058A019B01082719272A273B2711
:100FB000C901B80106C0CB01BA01682979298A297B
:100FC0009B290E94E91906C19F70F92E002339F070
:100FD000892F0E94331A812F0E942B20FBC0812F62
:100FE0000E9420208F2D0E94F519F4C0812F323FDE
:100FF000C9F128F4303F49F0313F79F170C0333FF7
:10100000C1F1343F09F44DC06AC0002311F1211130
:10101000DAC0292F2F7181E090E0A0E0B0E0AC01B0
:10102000BD0104C0440F551F661F771F2A95D2F7D4
:1010300080919E0590919F05A091A005B091A1057A
:101040008A019B01082719272A273B27C901B801D4
:1010500025C0223008F0B7C0DCCF002329F0892F4B
:101060008F712EC00023D9F3892F8F710E94F5193B
:10107000AAC0002381F0292F2F7181E090E0A0E029
:10108000B0E0BC01CD0104C0660F771F881F991F17
:101090002A95D2F703C060E070E0CB010E94E91905
:1010A00092C0002381F0192F1F71812F0E94331AE3
:1010B00028E0129FC001112483608093A205812F34
:1010C0000E94331A80C081E02F830E941A1A2F8158
:1010D000223008F478C082E00E941A1A74C00023FB
:1010E00039F0222309F4BBCF812F0E94AF206BC0BF
:1010F000222309F4B9CF893349F43FEF87EE93E017
:10110000315080409040E1F700C00000812F0E94E4
:10111000352059C0323FB1F028F4303F49F0313F1B
:10112000F9F028C0343FB9F058F0353F71F022C0D3
:10113000002309F451C09091F60581E0892708C089
:1011400081E008270093F60547C0011145C081E002
:101150008093F60541C001113FC01092F6053CC0D6
:10116000002329F08091F505882329F329C0222343
:1011700011F332C08091F5052223C1F0882341F09C
:101180009091F60581E089278093F6051092F50588
:10119000812F002319F00E94AF201EC00E9435202D
:1011A00086E0F60111928A95E9F716C08823A1F02E
:1011B000011112C09091F60581E089278093F60510
:1011C0001092F50509C0F8E0AF1AB10804E0A016C6
:1011D000B10410F40E94BB0BEE2009F4D4C080913E
:1011E000A20580FDD0C0F601128285958595859572
:1011F0000E94331AC6010E9479028091A20585954A
:101200008595859528960FB6F894DEBF0FBECDBFA5
:10121000DF91CF911F910F91FF90EF90DF90CF90D2
:10122000BF90AF909F908F900C94F519F60182813A
:10123000882309F4A8C00E940B20FFEF04E31CE000
:10124000F15000401040E1F700C00000F89481E048
:101250008093E00080E28093D8001092C9008FE173
:101260009EE40197F1F700C000001DBA10926800DB
:101270001CBC10BE1FBA10927A0010926E00109221
:101280006F0010927100109272001092C9001092BB
:10129000BC0014B817B81AB81DB810BA1092BC0028
:1012A00015B818B81BB81EB811BA0C94003F6BC023
:1012B000F6018281882309F466C08091E50581608A
:1012C0008093E50560C00C3D9CE5190709F041C01D
:1012D000F6018281882309F456C01092F40553C0A8
:1012E00006311C4509F03BCC9091A505F6018281A1
:1012F000882381F09A7A81E009F480E08093C50424
:10130000811102C069E201C065E38FE095E00E94AF
:101310004D180BC08091C504811102C069E201C063
:1013200065E38FE095E00E94221828960FB6F894A6
:10133000DEBF0FBECDBFDF91CF911F910F91FF9008
:10134000EF90DF90CF90BF90AF909F908F900C94D4
:10135000FA180D3DECE51E0760F00D3D2CE5120777
:1013600069F4F6018281882371F082E08093F405AC
:101370000AC006311C4509F4B7CF13CC0E3D1C45FD
:1013800009F486CA0ECC28960FB6F894DEBF0FBEBD
:10139000CDBFDF91CF911F910F91FF90EF90DF9024
:1013A000CF90BF90AF909F908F9008959091C80577
:1013B00092FF0DC0282F2871283019F4877F846090
:1013C00006C0282F2471243011F48B7F886093FF8E
:1013D0000DC0282F2871283119F4877E846106C03A
:1013E000282F2471243111F48B7E886194FD877E2F
:1013F0000895282F277081E090E001C0880F2A957A
:10140000EAF780959091A40589238093A4050C9414
:10141000FA18282F277081E090E001C0880F2A95E4
:10142000EAF79091A405892B8093A4050C94FA18EF
:10143000CF93E82F873080F580910B0190910C01BC
:10144000892B09F047C0CE2F64E670E080E40E944B
:10145000CF2190930C0180930B01892BD1F464E68A
:1014600070E082E10E94262290930C0180930B0190
:10147000892B79F481E090E001C0880FCA95EAF7E2
:1014800064E670E080950E94262290930C01809380
:101490000B01CF910C947B2290E0FC013797E73051
:1014A000F105C0F4EC58FF4F0C94EF22209A2898D5
:1014B00011C0219A29980EC0229A2A980BC0239A0B
:1014C0002B9808C0529A5A9805C0539A5B9802C04C
:1014D0003E9A4698CF910895CF93873008F03FC049
:1014E00080910B0190910C01892B09F041C064E6B9
:1014F00070E080E40E94CF2190930C0180930B0157
:10150000892B11F0C0E027C064E670E083E10E94FF
:10151000262290930C0180930B01892B99F764E6A6
:1015200070E081E40E94CF2190930C0180930B0125
:10153000892B41F784E690E00E94562297FF05C070
:1015400090930C0180930B01DDCFC82FC0951092B2
:101550000C0110920B010E947B228C2F0AC09FB1BC
:101560008FB1807F869586959370892B809501C079
:1015700080E0CF910895EF92FF920F931F93CF9346
:10158000DF93CDB7DEB767970FB6F894DEBF0FBE17
:10159000CDBF4B8B5C8B6D8B7E8B8F8B0E891F89A8
:1015A00001151105C1F15F3F11F44F3FA1F1E42E88
:1015B000F12CA1E0B0E0042E01C0AA0F0A94EAF7D2
:1015C000852F90E0662319F02091F60506C09C0156
:1015D0002E523B4FF90120812A232223A9F046E015
:1015E000489F9001499F300D1124F701E20FF31F2E
:1015F000EE0FFF1FE95EFE4F40815181FC01EE526C
:10160000FB4F9081A92B06C0FC01EE52FB4FA09529
:101610008081A823A08386E0FE013D96DF01982FFC
:101620001D929A95E9F74D875E876F87198B088B16
:10163000DE01179601900D928A95E1F7CE0107968B
:101640000E94261E811137C086E0FE013796DE011A
:10165000119601900D928A95E1F7FF81E8856A85E0
:101660007B856115710539F1EF3F11F4FF3F19F1E9
:101670002091350530E0C901019687709927409186
:10168000660550E08417950779F1F983EA837D8335
:101690006C8396E0929FD001939FB00D1124AA5CB9
:1016A000BA4FFE01319601900D929A95E1F7809321
:1016B00035050E945E1A16E0809166059091350509
:1016C000891701F1189FC00111248A5C9A4F0E946A
:1016D000261E8823B9F08091660590E001968770F8
:1016E000992780936605E8CF0E940B20109235055C
:1016F00010926605EFE2F5E086E0DF011D928A9523
:10170000E9F7D9CF67960FB6F894DEBF0FBECDBF0D
:10171000DF91CF911F910F91FF90EF90089520914D
:10172000D0043091D1048217930771F09093D104C3
:101730008093D004E091CA05F091CB05309721F059
:101740000084F185E02D099408952091CE04309114
:10175000CF048217930771F09093CF048093CE0447
:10176000E091CA05F091CB05309721F00680F78112
:10177000E02D09940895E091CA05F091CB053097CA
:1017800021F00190F081E02D099480E008956091AE
:10179000B2058CE090E00C949322CF93DF9326E087
:1017A000729FF001112434E5839FE00DF11D112497
:1017B000E60FF11DEE0FFF1FEC5CFE4FC591D491BB
:1017C000CE01C238D10549F1B0F4C133D10509F4D5
:1017D00064C048F4C932D10509F458C0CA32D105F1
:1017E00009F462C068C0C533D10509F448C0C933E3
:1017F000D10599F060C0C33ED10541F138F4C03E37
:10180000D10591F0C23ED105B1F055C0C63ED1051B
:1018100021F1C73ED10561F14EC02091C80520FDE0
:1018200012C221FD10C211C22091C80520FF0DC2B5
:1018300089E390E00AC22091C80522FF06C2809188
:10184000C80584FDB2C183EE90E0FFC18091C80558
:1018500082FFF5CF82EE90E0F8C12091C80523FF0A
:10186000F4C18091C80584FDA0C187EE90E0EDC170
:101870008091C80583FFF5CF86EE90E0E6C1209108
:10188000C80525FFE2C189E290E0DFC12091C805CB
:1018900025FFDBC185E390E0D8C12091C80526FF74
:1018A000D4C18AE290E0D1C12091C80526FFCDC104
:1018B00081E390E0CAC1C11520E5D20708F047C016
:1018C000C11530E4D30708F034C1C83ED10518F57E
:1018D000C03ED10508F0B9C1C83AD10570F4C53A87
:1018E000D10508F0B0C0C130D10509F4AEC108F48B
:1018F0005CC1249708F459C1A8C1CF3BD10508F4B5
:10190000ADC0C03CD10508F450C1FE01EE0FFF1F71
:10191000E455FE4F02C1C11520E2D20760F4C115A3
:1019200031E0D30708F091C1C03FD10508F43DC1B3
:10193000CE0190658AC1C11580E3D80708F0F0C0D8
:10194000FE01FF70EE0FFF1FE45DFC4FE6C0C11506
:1019500095E5D90708F044C0C11524E5D20708F081
:1019600000C1C11532E5D30710F5C11581E5D807CF
:1019700008F0E3C02C2F237081E090E002C0880FB4
:10198000991F2A95E2F79C689E0174E03695279589
:101990007A95E1F72370922BEC2FEF70E695E695A0
:1019A00030E2E39FF00111248E2B9F2B4EC18C2F30
:1019B00086958695AE0143705527C115D34508F02D
:1019C000C1C090E2899F9001112481E090E002C0A3
:1019D000880F991F4A95E2F7822B932B9C6835C19B
:1019E000C1152AE5D207A0F4C11539E5D30708F0DF
:1019F000C6C0C11586E5D80708F4B8C0C11598E57A
:101A0000D90708F4D2C09C2F8827806F906A1DC127
:101A1000C1152BE5D20708F4C8C0CE01C1153CE5BD
:101A2000D30708F4BFC090568115904208F0BDC09E
:101A30008D2F8F710E94D609FE01FF27F0628F71F2
:101A40009F01382BADC0C53AD10509F4B1C0C63AE3
:101A5000D10509F0B0C082E890E4F7C0C83AD105DA
:101A600009F4ACC0C93AD10509F4ABC0CA3AD105F2
:101A700009F4AAC0CB3AD10509F4A9C0CC3AD105E2
:101A800009F4A8C0CB3BD10509F4A7C0CC3BD105D4
:101A900009F4A6C0CD3AD10509F4A5C0C03BD105D3
:101AA00009F4A4C0CE3AD10509F4A3C0CF3AD105B8
:101AB00009F4A2C0C13BD10509F4A1C0C23BD105C4
:101AC00009F4A0C0C33BD10509F49FC0C43BD105B4
:101AD00009F49EC0C53BD10509F49DC0C63BD105A4
:101AE00009F49CC0C73BD10509F49BC0C83BD10594
:101AF00009F49AC0C93BD10509F499C0CD3BD10581
:101B000009F498C0CE3BD10509F497C0CA3BD10572
:101B100009F496C080E094E498C08591949195C0B2
:101B20009E013327C901D3FF02C0986C8EC0906C10
:101B30008CC0CE019F70906A88C09C2F8827816FCF
:101B4000906A83C090E2899F9001112481E090E027
:101B500002C0880F991F4A95E2F7822B932B9A684F
:101B600074C09C2F8827846F906A6FC08C2F0E944E
:101B7000D6098F7190E0982F8827906266C08C2FCD
:101B80008F700E94D609FE0194E0F695E7959A952C
:101B9000E1F7EF70F0E0FE2FEE27F0699F01282BB0
:101BA000C90153C09927906650C080E090E04DC0B5
:101BB00081E890E44AC083E890E447C082EE94E470
:101BC00044C089EE94E441C08AEE94E43EC085EBC3
:101BD00094E43BC086EB94E438C083EB94E435C0D6
:101BE00084EB94E432C087EB94E42FC08CEC94E453
:101BF0002CC08DEC94E429C083E895E426C08AE8E3
:101C000095E423C082E995E420C084E995E41DC0F1
:101C100081E296E41AC083E296E417C084E296E477
:101C200014C085E296E411C086E296E40EC087E215
:101C300096E40BC08FE694E408C080E794E405C006
:101C40008AE296E402C080EE90E0DF91CF910895A1
:101C5000CF92DF92EF92FF920F931F936C01EE24CD
:101C6000FF24C114D104E104F10411F0E0E103C048
:101C70006B017C01E0E033272F2D1E2D0D2D01156A
:101C800011052105310519F0E85F68017901970117
:101C90008601F4E03695279517950795FA95D1F7C3
:101CA000011511052105310519F0EC5F6801790175
:101CB0009701860152E036952795179507955A9515
:101CC000D1F7011511052105310519F0EE5F680105
:101CD0007901970186013695279517950795012B70
:101CE000022B032B09F0EF5F56985E9825982D98EC
:101CF00026982E9827982F980E2F10E0F8013197EC
:101D0000E730F105A8F4E558FF4F0C94EF22259A2F
:101D10002D9A0EC0259A2D9A269A2E9A09C0259A98
:101D20002D9A04C0259A2D9A269A2E9A279A2F9A90
:101D30001F910F91FF90EF90DF90CF90089580E278
:101D400090E090930C0180930B018091CB04811162
:101D50000EC00E94C92181E08093CB042FEF83ED58
:101D600090E3215080409040E1F700C0000064E61D
:101D700070E080E40E94CF2190930C0180930B01CE
:101D8000892B09F04EC064E670E080E00E942622B4
:101D900090930C0180930B01892B09F042C064E6FB
:101DA00070E080E00E94262290930C0180930B014A
:101DB000892BB9F564E670E08FE30E9426229093A8
:101DC0000C0180930B01892B61F50E947B2264E654
:101DD00070E080E40E94CF2190930C0180930B016E
:101DE000892BF9F464E670E08CE00E94262290933F
:101DF0000C0180930B01892BA1F464E670E080E074
:101E00000E94262290930C0180930B01892B49F4A8
:101E100064E670E08FE30E94262290930C01809389
:101E20000B010E947B2280910B01089556985E98C9
:101E300025982D9826982E9827982F988FEF90E028
:101E4000909389008093880090938B0080938A0000
:101E500090938D0080938C00259A2D9A2FEF80E728
:101E600092E0215080409040E1F700C00000269AA7
:101E70002E9A2FEF80E792E0215080409040E1F7CA
:101E800000C00000279A2F9A2FEF80E792E02150A0
:101E900080409040E1F700C0000025982D982FEF7A
:101EA00080E792E0215080409040E1F700C00000C0
:101EB00026982E982FEF80E792E0215080409040A6
:101EC000E1F700C0000027982F9856985E98259853
:101ED0002D9826982E9827982F98089584B1807F62
:101EE00084B985B1807F85B98AB1837F8AB98BB186
:101EF000837F8BB93E984698089580B38C7080BBE1
:101F000081B3836F81BB08950F931F93CF93DF93AA
:101F1000C62FD42F022FFC0182818823C9F0609341
:101F2000C4040E94D7179093CD048093CC0480E220
:101F30008C0F883008F050C0C77081E001C0880F56
:101F4000CA95EAF7DF91CF911F910F910C942B2046
:101F50001091C404161330C08091CC049091CD042C
:101F60000E94AD17883C910538F5C0E2CD0F1D17D2
:101F7000B9F080E2810F883040F4177081E001C031
:101F8000880F1A95EAF70E942020C83048F481E0B3
:101F90009D2F977001C0880F9A95EAF70E942B2019
:101FA000802F0E949C20C830B8F4D77081E001C017
:101FB000880FDA95EAF70AC080E28C0F883060F467
:101FC000C77081E001C0880FCA95EAF7DF91CF9111
:101FD0001F910F910C942020DF91CF911F910F91B1
:101FE00008959F92AF92BF92CF92DF92EF92FF92AD
:101FF0000F931F93CF93DF9380910B0190910C016E
:10200000892B91F08091CA048F5F8093CA0481115B
:102010000BC00E949F0E90E090930C0180930B01E7
:10202000892B11F40E94160F0AEB15E021ECE22E29
:1020300025E0F22E6801C0E0912C97E0A92EAC0EAD
:102040008C2F0E94180A8A2D0E94180A8C2F0E9439
:102050006C0AF6019081981721F08083BB24B39419
:1020600001C0B12C8A2D0E946C0AF701908198174B
:1020700019F0808381E001C080E0B82A9B280E948B
:102080006E0FCF5FFFEFCF1ADF0A8FEFE81AF80A63
:10209000C73099F60E94D7176AEF70E00E94C722F6
:1020A0009C01682F8091C9048823E9F11092C9042A
:1020B000E091B005F091B105DF011E9690E07BEF55
:1020C0008AEFE82EF12C80818B3FA9F0482F50E059
:1020D000681728F0E901C41BD50BAE0106C06701E3
:1020E000C41AD50AA601420F531F4F30510514F0F0
:1020F000708301C091E03196EA17FB0721F79093B6
:10210000C904911002C0911110C01092C804A0918E
:10211000B005B091B1059091C904EDECF5E080E017
:102120003EE03E0F07C09110F0CF8091C8048111AE
:10213000ECCF16C0E80129918E014081421741F091
:102140004C914B3F21F46C93208391E001C081E0DE
:10215000119631963E13EECF9093C9048093C80434
:10216000892DDF91CF911F910F91FF90EF90DF901C
:10217000CF90BF90AF909F900895CF93DF93EC01E5
:1021800080EEFE01099581EEFE01DF91CF91099469
:10219000CF92DF92FF920F931F93CF93DF931F9203
:1021A000CDB7DEB7F82E8B0199830E94681A99810A
:1021B00081111CC0CF2CD92E01151105B1F08091D1
:1021C000E80085FD0AC08091E8008E778093E800E2
:1021D0000E94681A882381F309C0F60181916F017A
:1021E0008093F10001501109E7CF80E00F90DF915B
:1021F000CF911F910F91FF90DF90CF9008951F9383
:10220000CF93DF93CDB7DEB7AA970FB6F894DEBFB2
:102210000FBECDBFE7E0F5E088E08E0F9091F100B2
:1022200091938E13FBCF80910805833009F460C031
:1022300030F4813071F0823009F49AC0B1C08A3034
:1022400009F486C08B3009F46BC0893009F0A8C04E
:1022500020C080910705813A09F0A2C08091E80072
:10226000877F8093E80080910B0590910C05892B66
:1022700021F460E283EE94E003C060E080E090E04F
:1022800070E00E94EE1A8091E8008B778093E8005E
:1022900087C080910705813209F082C080910B05CB
:1022A00090910C05029708F07BC08091E800877F31
:1022B0008093E8008091E80082FD05C080910505CB
:1022C0008111F8CF6DC02091F3008091F20090E071
:1022D000922B029729F48091F1008B7F813021F4B9
:1022E0008091F1008093E2048091E8008B7754C0E4
:1022F00080910705813A09F053C080910B059091B8
:102300000C05892B09F04CC08091E800877F8093F1
:10231000E8008091E80080FFFCCF80910A0137C07F
:10232000809107058132E1F580910B0590910C05B4
:10233000892BB1F58091E800877F8093E8000E94A7
:102340009A1A8091090580930A010E940B2028C0E7
:1023500080910705813221F58091E800877F809385
:10236000E8000E949A1A80910A058093E10418C03F
:1023700080910705813AA1F48091E800877F8093DE
:10238000E8008091E80080FFFCCF8091E104809319
:10239000F1008091E8008E778093E8000E949A1AFD
:1023A0008091E80083FFD6C18091070590910805D0
:1023B000492F50E04A30510508F0CCC1FA01EE57E0
:1023C000FF4F0C94EF22803821F0823809F0C2C10F
:1023D00008C08091030590910405992389F08260DB
:1023E0000FC080910B058F70873008F0B3C18093C8
:1023F000E9008091EB0085FB882780F91092E900C5
:102400009091E800977F9093E8008093F1001092FC
:10241000F10074C1282F2D7F09F09CC1882319F089
:10242000823061F097C180910905813009F092C135
:10243000933009F080E0809304052EC08091090557
:1024400081112AC080910B058F702FEF280F263045
:1024500008F080C18093E9002091EB0020FF1CC0B0
:10246000933021F48091EB00806214C09091EB00D6
:1024700090619093EB0021E030E0A90102C0440F8D
:10248000551F8A95E2F74093EA001092EA00809186
:10249000EB0088608093EB001092E9008091E800E7
:1024A000877F2FC1811156C1109109051F77809137
:1024B000E3008078812B8093E3008091E800877FA0
:1024C0008093E8000E949A1A8091E80080FFFCCF78
:1024D0008091E30080688093E300111102C082E0E4
:1024E00001C083E08093050535C18058823008F033
:1024F00031C18091090590910A058C3D53E0950703
:1025000079F583E08A838AE289834FB7F894DE0104
:10251000139620E03EE051E2E32FF0E050935700A5
:10252000E49120FF03C0E295EF703F5FEF708E2FC4
:1025300090E0EA3010F0C79601C0C0968D939D934D
:102540002F5F243149F74FBF8091E800877F809348
:10255000E8006AE270E0CE0101960E94EE1ABDC06A
:1025600040910B0550910C05292F3327233031055D
:10257000B9F06CF42130310509F4FBC0223031058B
:1025800009F0E8C08BE390E0ECE2F4E054C02132C3
:10259000310509F433C02232310509F43CC0DAC0F8
:1025A000992781309105D1F05CF4892B09F0D2C0D4
:1025B000EFEAF4E0E4918E2F90E0EFEAF4E038C027
:1025C0008230910599F0039709F0C4C0E9E7F4E07F
:1025D000E4918E2F90E0E9E7F4E02AC0E7E9F4E027
:1025E000E4918E2F90E0E7E9F4E022C0EFE7F4E019
:1025F000E4918E2F90E0EFE7F4E01AC04115510509
:1026000009F4BCC04130510509F0A4C089E090E054
:10261000E7E5F4E010C04115510509F4B4C04130BC
:10262000510509F097C080EC90E0ECE2F3E003C0C4
:10263000009709F48FC02091E800277F2093E800DD
:1026400020910D0530910E052817390708F4C901AE
:1026500040E0009789F120910505222309F43DC04F
:102660002530D9F12091E80023FD37C02091E80002
:1026700022FD2FC02091E80020FFEBCF4091F30016
:102680002091F20030E0342B009759F028303105CA
:1026900040F444914093F100319601972F5F3F4FF2
:1026A000F3CF41E02830310509F040E02091E80007
:1026B0002E772093E800CDCF4111CDCF0AC0809175
:1026C0000505882351F0853041F08091E80083FDB5
:1026D00004C08091E80082FFF2CF8091E8008B7700
:1026E0008093E80037C08038A9F58091E800877FA3
:1026F0008093E800809106058093F1008091E800C6
:102700008E778093E8000E949A1A24C0811122C01B
:10271000109109051230F0F48091E800877F8093D2
:10272000E800109306050E949A1A111106C08091C4
:10273000E30087FD02C081E001C084E080930505CD
:1027400042E061EC81E00E94B91A42E261EC82E071
:102750000E94B91A8091E80083FF1AC08091E800B6
:10276000877F8093E8008091EB0080628093EB008C
:102770000FC082E190E0E7E6F4E05DCF89E090E011
:10278000EEE3F4E058CF80E490E0ECEEF3E053CFDA
:10279000AA960FB6F894DEBF0FBECDBFDF91CF91E2
:1027A0001F9108951F920F920FB60F9211242F932D
:1027B0003F934F935F936F937F938F939F93AF93C9
:1027C000BF93CF93DF93EF93FF93C091E900CF7056
:1027D0008091EC00D82FD17080FDD0E81092E900F4
:1027E0008091F000877F8093F00078940E94FF1022
:1027F0001092E9008091F00088608093F000CD2B6A
:10280000CF70C093E900FF91EF91DF91CF91BF911D
:10281000AF919F918F917F916F915F914F913F9178
:102820002F910F900FBE0F901F901895E8EDF0E0DC
:1028300080818E7F80831092E2001092DA001092E5
:10284000E100A0EEB0E08C9181608C9380818F7765
:10285000808319BCA7EDB0E08C918E7F8C93808132
:102860008F7E80831092E0040895CF92DF92EF92E2
:10287000FF920F931F93CF93DF93C8EDD0E0888131
:102880008F7E8883E7EDF0E080818160808384E043
:1028900082BF81E08093E00488818E7F888302EE8E
:1028A00010E0F80110821092DA0081EEC82ED12CCF
:1028B000F601108288818F77888388818068888379
:1028C00088818F7D888319BC1092050510920605BA
:1028D000109204051092030590EEE92EF12CF701F9
:1028E00080818B7F808388818160888342E060E083
:1028F00080E00E94B91AF60180818E7F8083F80102
:10290000808181608083808188608083F7018081FD
:102910008E7F8083888180618883DF91CF911F9132
:102920000F91FF90EF90DF90CF9008951F920F923C
:102930000FB60F9211242F933F934F935F936F9392
:102940007F938F939F93AF93BF93EF93FF93809168
:10295000E10082FF09C08091E20082FF05C0809102
:10296000E1008B7F8093E1008091DA0080FF2AC034
:102970008091D80080FF26C08091DA008E7F8093FE
:10298000DA008091D90080FF18C080E189BD82E122
:1029900089BD09B400FEFDCF81E0809305058091DB
:1029A000E00481110FC00E9416140E94351480911A
:1029B000E20084608093E20005C019BC1092050516
:1029C0001092E0048091E10080FF17C08091E20046
:1029D00080FF13C08091E2008E7F8093E20080919F
:1029E000E20080618093E2008091D8008062809351
:1029F000D80019BC85E0809305058091E10084FF33
:102A000032C08091E20084FF2EC080E189BD82E166
:102A100089BD09B400FEFDCF8091D8008F7D8093E1
:102A2000D8008091E1008F7E8093E1008091E200E8
:102A30008F7E8093E2008091E20081608093E200CB
:102A400080910605882311F084E007C08091E3009F
:102A500087FD02C081E001C083E0809305050E94EC
:102A60000B200E94BB0B8091E10083FF27C0809167
:102A7000E20083FF23C08091E100877F8093E10023
:102A800082E080930505109206058091E1008E7F1B
:102A90008093E1008091E2008E7F8093E20080913C
:102AA000E20080618093E20042E060E080E00E940A
:102AB000B91A8091F00088608093F000FF91EF9147
:102AC000BF91AF919F918F917F916F915F914F9146
:102AD0003F912F910F900FBE0F901F9018958091EE
:102AE000E2040895CF93DF9300D01F92CDB7DEB7F5
:102AF00020910505243031F523E029838058910980
:102B00009B838A8382E08093E9008FEF9091E800B5
:102B1000815095FD06C095ED9A95F1F70000811161
:102B2000F5CF8091E80085FF0DC040E050E063E004
:102B300070E0CE0101960E94C8108091E8008E7767
:102B40008093E8000F900F900F90DF91CF91089540
:102B50000F931F93CF93DF9300D01F92CDB7DEB7B3
:102B60008C010E94511B823011F0843021F584E0E9
:102B700089831B830A8382E08093E9008FEF909121
:102B8000E800815095FD06C095ED9A95F1F700009B
:102B90008111F5CF8091E80085FF0DC040E050E045
:102BA00063E070E0CE0101960E94C8108091E800B9
:102BB0008E778093E8000F900F900F90DF91CF9168
:102BC0001F910F910895CF93DF93EC010E94511B49
:102BD000823011F08430F9F482E08093E9009FEFB5
:102BE0008091E800915085FD06C085ED8A95F1F74A
:102BF00000009111F5CF8091E80085FF0CC040E006
:102C000050E066E070E0CE010E94C8108091E800BC
:102C10008E778093E800DF91CF910895CF93DF9373
:102C2000EC010E94511B823011F08430D9F5809163
:102C30000A01882339F08091C80587FF03C060E24C
:102C400082E002C068E081E08093E9008FEF90911C
:102C5000E800815095FD06C095ED9A95F1F70000CA
:102C60008111F5CF8091E80085FF1CC080910A0199
:102C7000811105C040E050E068E070E003C070E002
:102C800040E050E0CE010E94C8108091E8008E77AD
:102C90008093E80080E2FE01A3EEB4E001900D9283
:102CA0008A95E1F7DF91CF910895803F39F48091C3
:102CB000DE0587FF6CC01092DE0569C0813F29F4F4
:102CC0008091DE051816BCF362C09091DD05823F4D
:102CD00029F497FF5CC01092DD0559C0833F19F4B9
:102CE0001916CCF354C0893F41F48091DF051816C2
:102CF0000CF04DC01092DF054AC08A3F29F4809144
:102D0000DF0587FF44C0F6CF8B3F39F48091E005A3
:102D100087FF3DC01092E0053AC08C3F29F48091B6
:102D2000E0051816BCF333C0843F21F48091DC0524
:102D30008E7F17C0853F21F48091DC058D7F11C007
:102D4000863F21F48091DC058B7F0BC0873F21F407
:102D50008091DC05877F05C0883F31F48091DC05D8
:102D60008F7E8093DC0513C08D3F21F48091AF05E9
:102D70008E7F0BC08E3F21F48091AF058D7F05C003
:102D80008F3F29F48091AF058B7F8093AF058091B1
:102D9000DD0581110EC08091DE0581110AC0809190
:102DA000DF05811106C08091E005811102C01092FB
:102DB000E10508958091AF0580FD16C081FD16C024
:102DC00082FD18C08091E105882391F0883290F44B
:102DD00028E0829FC001112468E270E00E94DB229B
:102DE000862F672B29F007C082E0089584E00895BC
:102DF00081E0089588E008958091AF0580FD17C0B7
:102E000081FD17C082FD19C08091E105882399F0EA
:102E10008C3398F423E2829FC00111246CE370E0AC
:102E20000E94DB22862F672B49F481E0089588E019
:102E3000089581E1089585E0089583E20895803F33
:102E400021F40E94FC16819504C0813F29F40E9460
:102E5000FC168093DE050895823F21F40E94FC1643
:102E6000819504C0833F29F40E94FC168093DD0500
:102E70000895893F19F40E94DA1605C08A3F31F49B
:102E80000E94DA1681958093DF0508958B3F21F427
:102E90000E94DA16819504C08C3F29F40E94DA164C
:102EA0008093E0050895843F21F48091DC058160E2
:102EB00017C0853F21F48091DC05826011C0863FF8
:102EC00021F48091DC0584600BC0873F21F4809160
:102ED000DC05886005C0883F31F48091DC058061A5
:102EE0008093DC0508958D3F21F48091AF058160CA
:102EF0000BC08E3F21F48091AF05826005C08F3FEB
:102F000029F48091AF0584608093AF05089578948B
:102F10001F920F920FB60F9211248F939F93AF932E
:102F2000BF938091AB059091AC05A091AD05B09198
:102F3000AE050196A11DB11D8093AB059093AC0524
:102F4000A093AD05B093AE05BF91AF919F918F91C6
:102F50000F900FBE0F901F901895CF92DF92EF92B7
:102F6000FF920F931F932FB7F8944091AB055091A8
:102F7000AC056091AD057091AE052FBF6A017B0174
:102F8000EE24FF248C0120E030E0C016D106E206DA
:102F9000F30610F4415051099A01281B390BC9015D
:102FA0001F910F91FF90EF90DF90CF9008952FB772
:102FB000F8948091AB059091AC05A091AD05B091CE
:102FC000AE052FBF0895E091CA05F091CB0530976B
:102FD00049F082E08093DB050480F581E02D8BEDE4
:102FE00095E009950E94D7179093E3058093E20539
:102FF00008951F920F920FB60F9211248F939F93F3
:10300000AF93BF938091CC05811113C08091AB0524
:103010009091AC05A091AD05B091AE054196A11D72
:10302000B11D8093AB059093AC05A093AD05B09313
:10303000AE05BF91AF919F918F910F900FBE0F90F2
:103040001F90189520910A01222321F02091C80594
:1030500027FD04C0FC013296089619C0262F26953C
:10306000269526952E31C0F4FC01E20FF11D677004
:1030700081E090E001C0880F6A95EAF7809592811F
:103080008923828308953196E817F90729F0208172
:103090002613F9CF1082F7CF089520910A01222339
:1030A00021F02091C80527FD05C0FC0132962FEFC5
:1030B00030E019C0262F2695269526952E3120F52D
:1030C000FC01E20FF11D677081E090E001C0880F04
:1030D0006A95EAF79281892B828308952F3F39F010
:1030E0003F5F363041F041914613F8CF0DC041119A
:1030F000F7CF232FF5CF2F3F39F0FC01E20FF11D61
:1031000027FDFA956283089508956EEE7EEF80E0C4
:1031100090E00E94B12260E082E090E00E94932261
:1031200060E083E090E00E9493221092A705109245
:10313000A8051092A9051092AA0560E084E090E02D
:103140000E94932260E085E090E00E94932260E07C
:1031500086E090E00E9493226FEF87E090E00E946B
:10316000932240E050E0BA0188E090E00E94A5225E
:1031700060E08DE090E00E94932240E050E0BA01D0
:1031800088E190E00E94A52260E087E190E00E9443
:10319000932240E050E0BA018CE190E00E94A52229
:1031A00060E080E290E00E9493221092B6051092B7
:1031B000B7051092B8051092B90584E0806180933C
:1031C000B6054091B6055091B7056091B80570916C
:1031D000B9058FE090E00E94A52240E050E0BA01DE
:1031E00083E190E00C94A5228091A60581111092B4
:1031F000A60508959091A4058091A505892B20919D
:10320000A305982F922B90930F058091A6058823F4
:10321000D9F0892B80930F0580910A01882331F022
:103220008091C80587FF02C08EE101C086E0E1E120
:10323000F5E090E0815028F021912223D9F39F5F9F
:10324000F9CF91110E94F418E091CA05F091CB05D5
:103250003097A9F080910A01882359F08091C80520
:1032600087FF07C080910F058093100585E080934C
:103270000F050280F381E02D8FE095E00994089519
:10328000BF92CF92DF92EF92FF920F931F93CF9353
:10329000DF938C01C090A705D090A805E090A90508
:1032A000F090AA0580919E0590919F05A091A005A0
:1032B000B091A105C82AD92AEA2AFB2ACFE1D0E099
:1032C000D701C6010C2E04C0B695A7959795879592
:1032D0000A94D2F780FF07C0BC2EB8018C2F0E9441
:1032E000CD0B019719F4219758F7B12C8B2DDF9155
:1032F000CF911F910F91FF90EF90DF90CF90BF90F3
:103300000895CF93DF93EC010E944019BE010E9403
:10331000CD0BDF91CF910895292F220F920F990F96
:10332000890F682F669566956695982F977085E04A
:10333000689FB001112440E050E080E0FA01E60F00
:10334000F71FE959FA4F208130E0092E02C0369567
:1033500027950A94E2F721703327042E01C0220F2B
:103360000A94EAF7822B4F5F5F4F4530510531F7E2
:103370000895292F220F920F990F890FA82FA69534
:10338000A695A695877051E001C0550F8A95EAF77A
:1033900085E0A89FD001112420E030E070E0F90121
:1033A000EA0FFB1FE959FA4F4081CB01022E02C000
:1033B000969587950A94E2F78170992781958427DD
:1033C0008523842780832F5F3F4F2530310539F7D0
:1033D00008950E94280E60939E0570939F05809328
:1033E000A0059093A1050C94F01F0F931F9341E04B
:1033F00050E060E070E004C0440F551F661F771F67
:103400008A95D2F7409550956095709580919E056C
:1034100090919F05A091A005B091A1058A019B0103
:10342000082319232A233B23C901B8011F910F91B7
:103430000C94E9192091A205809582238093A2051E
:10344000982F977079F430E0482F082E000C550B18
:103450002417350739F08595859585950E94F519CE
:103460001092A20508950F931F9341E050E060E091
:1034700070E004C0440F551F661F771F8A95D2F76E
:1034800080919E0590919F05A091A005B091A10506
:103490008A019B01082B192B2A2B3B2BC901B80150
:1034A0001F910F910C94E9196093A7057093A805DB
:1034B0008093A9059093AA050C94F01F809166054E
:1034C00090913505891719F08F5F8770FBCF0895AC
:1034D0002091E4003091E50095E64091EC00842FC6
:1034E000817040FF22C08091E80080FD1CC0809167
:1034F0000505882391F0853091F08091EB0085FDE2
:1035000010C04091E4005091E5004217530729F3A1
:103510009A01915011F784E0089582E0089583E0C4
:10352000089581E0089580E008954091E80042FF09
:10353000DECF08958091070587FF11C08091E800D4
:1035400082FD05C0809105058111F8CF11C08091E1
:10355000E8008B770BC080910505882349F08091A6
:10356000E80080FFF8CF8091E8008E778093E80034
:103570000895982F973058F59093E900981739F0EF
:103580007091EC002091ED005091F00003C0242FC9
:10359000762F50E021FF19C03091EB003E7F309331
:1035A000EB003091ED003D7F3093ED003091EB006A
:1035B00031603093EB007093EC002093ED0050935A
:1035C000F0002091EE0027FF07C09F5FD3CF8F70E0
:1035D0008093E90081E0089580E0089520910D0531
:1035E00030910E052617370748F06115710539F43B
:1035F0002091E8002E772093E80001C0B90140E057
:1036000061157105A9F120910505222309F443C034
:10361000253009F442C02091E80023FD40C02091EC
:10362000E80022FD32C02091E80020FFE9CF409160
:10363000F3002091F20030E0342BFC01CF01611542
:10364000710559F02830310540F481918093F100E3
:10365000615071092F5F3F4FF1CF41E028303105B4
:1036600009F040E02091E8002E772093E800C8CFD1
:103670004111C9CF0AC080910505882361F08530CA
:1036800061F08091E80083FD0AC08091E80082FF2C
:10369000F2CF80E0089582E0089583E0089581E00C
:1036A00008958091F405811107C08091050584304B
:1036B00011F081E0089582E00895CF93DF93CDB7B4
:1036C000DEB72A970FB6F894DEBF0FBECDBF84B722
:1036D000877F84BF0FB6F894A895809160008861B9
:1036E00080936000109260000FBE80E880936100BC
:1036F0001092610085B7806885BF85B7806885BFF7
:103700000E9416140E9435148091E2008460809318
:10371000E2007894809105058823A1F01091E900DA
:103720001F709091EC00892F817090FD80E8182B1C
:103730001092E9008091E80083FD0E94FF101F7045
:103740001093E90082E084BD93E095BD9AEF97BDA8
:1037500080936E000E949F0E90E090930C018093E6
:103760000B010E946E0F0E947D0FAAEBB5E0EDECFD
:10377000F5E01EE0F12EFE0E11921D92FE12FCCF1E
:103780008EE090E00E94F5228093B0059093B10501
:10379000FC010E962BEF2193E817F907E1F780E083
:1037A00090E00E948D228E3E9E4F11F00E9485185F
:1037B0008CE090E00E947F2290E0A0E0B0E0809357
:1037C000B2059093B305A093B405B093B50589EA0B
:1037D0008093800089E08093810024982C983F9802
:1037E0008AB18F7C8AB96E98479A8BB180638BB906
:1037F000769A8FE090E00E9487226093B6057093DE
:10380000B7058093B8059093B90567703FEF639F44
:10381000B001112475956795759567957727709315
:1038200089006093880070938B0060938A00709386
:103830008D0060938C000E94160F80E090E00E9443
:103840008D228E3E9E4F11F00E94851882E090E0FE
:103850000E947F228093E50584E090E00E947F2211
:1038600090E09093C9058093C80583E090E00E94A2
:103870007F22682F70E080E090E00E94541A8DE073
:1038800091E09093CB058093CA0599249394EE24FC
:10389000EA94CC24C394D12C50E1452E62E1562EFB
:1038A00078E1A72EB12CE0E48E2E809105058530BD
:1038B00009F043C080910505843009F11092CC05D0
:1038C0000FB6F894A895A09260000FBE8092600099
:1038D00083B7817F846083BF83B7816083BF78941F
:1038E000889583B78E7F83BF0FB6F894A895809193
:1038F0006000886180936000109260000FBE80912C
:103900000405882391F20E949F0E90E090930C0191
:1039100080930B010E946E0F0E947D0FEDECF5E08D
:103920001192FE12FDCF0E94F10FEDECF5E08191B6
:103930008111F2C0FE12FBCFB8CF0E94F10FE6EE6C
:10394000F5E0ADECB5E000E010E0702F6D91219155
:103950002627B1F180E090E030E0782EA901082E12
:1039600002C0559547950A94E2F740FF25C0898328
:103970007A83C60102C0880F991F7A94E2F73C014E
:10398000862F90E08621972121E0892B09F420E001
:103990002B830E94D7178160782F9D838C83498168
:1039A0005A816B818D810E94BB0AF801EA51FA4F5E
:1039B00080816826608219C001968630910569F67B
:1039C0000F5F1F4F0E30110509F0BFCFEE82EF825F
:1039D00018860E94D7178160782F9A8789874E8131
:1039E0005F8168858A850E94BB0A8091E20590917B
:1039F000E3050E94AD179C019091E105992321F008
:103A00002431310508F47CC08091DD051091DE057C
:103A100081110BC0111194C02091DF05211190C0BC
:103A20002091E00521118CC06BC09F3F19F09F5F72
:103A30009093E105181624F40E94FC168093DD058E
:103A40008091DD0587FF05C00E94FC16819580935B
:103A5000DD05111624F40E94FC168093DE0580918A
:103A6000DE0587FF05C00E94FC1681958093DE0568
:103A70003091DD05332301F12091DE052223E1F0B1
:103A800045EB3403C0011124892F990F990B00973E
:103A900019F08093DD0502C09092DD0535EB23031C
:103AA000C0011124892F990F990B009719F0809369
:103AB000DE0502C09092DE058091DF05181624F421
:103AC0000E94DA168093DF058091DF0587FF05C02D
:103AD0000E94DA1681958093DF058091E005181623
:103AE00024F40E94DA168093E0058091E00587FFB8
:103AF00005C00E94DA1681958093E0050E94E317C5
:103B00001091E4050E94BB0B181709F4CECE0E9459
:103B1000BB0B8093E405C9CE49BC59BC09B400FE77
:103B2000FDCF8091D8008F7D8093D8008091E000F8
:103B300082608093E0008091E00081FDFCCFB5CEF3
:103B40009F3F09F074CF7CCF8091340582958F70B0
:103B500009F054C080913105882309F44FC0809149
:103B60006605A091350560912F0570913005409153
:103B7000320550913305B6E08A1709F43FC090E052
:103B800041155105C1F17F3F11F46F3FA1F1B89F7D
:103B9000F001B99FF00D1124EA5CFA4F21817213F4
:103BA0002AC02081621327C02281211124C02381D1
:103BB00034812417350710F421503109241B350BAB
:103BC000283C3105C0F4209134052F7020612093EA
:103BD000340526E0289FF001299FF00D1124E55CB3
:103BE000FA4F80818F70806180838FE295E00E9420
:103BF00079020C945E1A01968770BECF08950E94D8
:103C00008119292F2F7092959F70E92FF0E032973C
:103C1000EE30F105B8F4E457FF4F0C94EF22803FEB
:103C200099F018F4883E70F40FC0843F59F40CC02A
:103C3000883E50F0813F31F407C0822F86958695EB
:103C40008695089580E0089581E00895BF92CF920F
:103C5000DF92EF92FF920F931F93CF93DF93CDB735
:103C6000DEB761970FB6F894DEBF0FBECDBF8C01F3
:103C700085E0F801DE011D9601900D928A95E1F72D
:103C8000D8013C9111962C9111971296EC901297B5
:103C90001396CD90DC90149750912F0560913005CC
:103CA0008091320590913305009709F44FC16F3F21
:103CB00019F45F3F09F44AC1B0903105BB2009F403
:103CC000ECC040913405C816D90628F0F601E81B6F
:103CD000F90BCF0104C0809590958C0D9D1DFF249C
:103CE000F394883C910548F0F12C407F09F09FC087
:103CF0008FE295E00E94790221C1842F807F09F034
:103D000044C0621312C0531310C0E1100EC04F70B4
:103D10004061409334058FE295E00E9479028091E2
:103D20003405D80115968C932EC0CD2819F12F3F5C
:103D300011F43F3FF9F0FE2CE1101CC080916605A4
:103D40004091350556E0841709F458C090E0589F1B
:103D5000F001599FF00D1124EA5CFA4F618126139E
:103D600006C06081361303C06281611103C00196F1
:103D70008770E9CFFE2CEE2009F421C18091340533
:103D8000816080933405F12C1AC162130AC0531369
:103D900008C0E11006C080913405D80115968C93B7
:103DA000B0C03D872E878D859E850E94FF1D88238C
:103DB000D1F1EE20C1F120913405822F82958F70D0
:103DC00090E0029774F080912F05909130059887CC
:103DD0008F831986DB86CA862C87CE0107960E94C0
:103DE000790286E0F801AFE2B5E001900D928A9584
:103DF000E1F70E94A41DFF24F394E1C03D872E87C4
:103E00008D859E850E948119292F22952F7030E083
:103E1000223031050CF0C7C09F7009F0C1C0805E30
:103E2000883008F4CCC0C8010E947902E4CF621344
:103E300014C0531312C0E11010C080913405F80172
:103E40008583C8010E94790286E0EFE2F5E0DF0198
:103E50001D928A95E9F7FB2CB2C03D872E878D8590
:103E60009E850E94FF1D8823F1F2EE20E1F2209151
:103E70003405822F82958F7090E002970CF4B1CFB9
:103E800080912F05909130059A8389831B82DD8272
:103E9000CC822E83CE010196A2CFC816D90638F067
:103EA000C81AD90AB8ECCB16D10450F007C08095D7
:103EB00090958C0D9D1D883C910510F0F12C3EC015
:103EC000FE2CEE2009F4AFCF621327C0531325C098
:103ED0002091340520FD18C0822F82958F70482FC5
:103EE00050E04115510581F0F80125834F3051050F
:103EF00041F08F5F982F9295907F822F8F70892B42
:103F00008583C8010E94790286E0F801AFE2B5E03E
:103F100001900D928A95E1F752C03D872E878D85DD
:103F20009E850E94FF1D81115CCF809134058160C8
:103F300080933405C8010E94790241C0EFE2F5E0A8
:103F400086E0DF011D928A95E9F739C0EE2009F479
:103F50006ACF3D872E878D859E850E94FF1DF82E96
:103F6000882309F460CF86E0F801AFE2B5E0019064
:103F70000D928A95E1F780912F05909130050E946E
:103F8000811992959F70963041F48091F60591E0E9
:103F900089278093F6059093F5050E94A41D0FC014
:103FA00081113DCF0CC0243031050CF03CCF9F7007
:103FB00009F435CFF8019581907F09F030CF8F2D2E
:103FC00061960FB6F894DEBF0FBECDBFDF91CF91E3
:103FD0001F910F91FF90EF90DF90CF90BF900895C9
:103FE0001092A4051092A3050E94FA18EBEDF5E0DB
:103FF00086E0DF011D928A95E9F71092E1051092A3
:10400000AF050E94E31780E090E00E94A50B80E0DE
:1040100090E00C948F0B1092A50580910A018823E3
:1040200031F08091C80587FF02C08EE101C086E0B3
:10403000E1E1F5E0DF011D928A95E9F70C94F01FAC
:10404000882341F080959091A50589238093A5054B
:104050000C94FA180895882339F09091A505892BBE
:104060008093A5050C94FA180895882309F463C079
:10407000823869F40E94BB0B81FF5DC069E38FE069
:1040800095E00E944D180E94FA1869E30EC083382B
:1040900091F40E94BB0B80FF4EC063E58FE095E07A
:1040A0000E944D180E94FA1863E58FE095E00E9487
:1040B00022180C94FA18843869F40E94BB0B82FF12
:1040C0003AC067E48FE095E00E944D180E94FA180C
:1040D00067E4EBCF9CEF980F913A10F4682FE5CF8F
:1040E00090E2980F983088F4877021E030E0A901C1
:1040F00002C0440F551F8A95E2F7CA01809590913E
:10410000A50589238093A505D4CF9BE5980F93300F
:1041100020F480E090E00C94A50B98E5980F97317F
:1041200020F480E090E00C948F0B803F20F00E9400
:1041300055160C94E3170895CF93C82F0E94AF2013
:10414000C93349F42FEF87EE93E02150804090402F
:10415000E1F700C000008C2FCF910C94352088230C
:1041600009F416C18238B1F40E94BB0B81FD10C165
:1041700069E38FE095E00E944D180E94FA182FEF36
:1041800041EE54E0215040405040E1F700C00000B3
:1041900069E317C08338D9F40E94BB0B80FDF8C0D7
:1041A00063E58FE095E00E944D180E94FA188FEFAA
:1041B00091EE24E0815090402040E1F700C00000E3
:1041C00063E58FE095E00E9422180C94FA18843879
:1041D000B1F40E94BB0B82FDDBC067E48FE095E089
:1041E0000E944D180E94FA184FEF51EE84E04150A2
:1041F00050408040E1F700C0000067E4E2CF9CEF50
:10420000980F913A30F4682F8FE095E00E944D1896
:10421000DCCF90E2980F983080F4877021E030E096
:10422000A90102C0440F551F8A95E2F7CA01909177
:10423000A505892B8093A505C8CF9BE5980F9330E2
:1042400070F4853A29F0863A31F083E890E005C0B1
:1042500081E890E002C082E890E00C94A50B98E51C
:10426000980F973108F08EC0883A09F445C0893A12
:1042700009F445C08A3A09F445C08B3A09F445C0AF
:104280008C3A09F445C08B3B09F445C08C3B09F4DA
:1042900045C08D3A09F445C0803B09F445C08E3ACB
:1042A00009F445C08F3A09F445C0813B09F445C083
:1042B000823B09F445C0833B09F445C0843B09F4C3
:1042C00045C0853B09F445C0863B09F445C0873BA2
:1042D00009F445C0883B09F445C0893B09F445C051
:1042E0008D3B09F445C08E3B09F445C08A3B09F477
:1042F00045C080E090E044C082EE90E041C089EE8D
:1043000090E03EC08AEE90E03BC085EB90E038C084
:1043100086EB90E035C083EB90E032C084EB90E018
:104320002FC087EB90E02CC08CEC90E029C08DEC86
:1043300090E026C083E891E023C08AE891E020C0A5
:1043400082E991E01DC084E991E01AC081E292E027
:1043500017C083E292E014C084E292E011C085E2CB
:1043600092E00EC086E292E00BC087E292E008C0C5
:104370008FE690E005C080E790E002C08AE292E01C
:104380000C948F0B803F20F00E941F170C94E317B2
:1043900008951092B9008CE08093B8000895EF92D0
:1043A000FF920F931F93CF93DF93182FEB0110927F
:1043B000BC0084EA8093BC000E94D7177C019091D6
:1043C000BC0097FD0EC0CF3F8FEFD807C1F30E940E
:1043D000D7178E199F098C179D0788F38EEF9FEFD3
:1043E0002EC09091B900987F983041F09091B9001B
:1043F000987F903119F08FEF9FEF21C01093BB0091
:1044000084E88093BC000E94D7178C019091BC0077
:1044100097FD0CC0CF3F8FEFD807C1F30E94D7178D
:10442000801B910B8C179D0788F3D8CF8091B90022
:10443000887F883111F08034F1F680E090E0DF91E0
:10444000CF911F910F91FF90EF9008950F931F93BD
:10445000CF93DF93EB018093BB0084E88093BC0093
:104460000E94D7178C019091BC0097FD0EC0CF3FE2
:104470008FEFD807C1F30E94D717801B910B8C17C1
:104480009D0788F38EEF9FEF0CC02091B900287F25
:1044900081E090E0283211F480E090E091958195E0
:1044A0009109DF91CF911F910F9108950F931F9361
:1044B000CF93DF93EC0184E88093BC000E94D71770
:1044C0008C019091BC0097FD0EC0CF3F8FEFD807B5
:1044D000C1F30E94D717801B910B8C179D0788F39F
:1044E0008EEF9FEF03C08091BB0090E0DF91CF91F2
:1044F0001F910F91089584E98093BC000895F99964
:10450000FECF92BD81BDF89A992780B50895A6E1A6
:10451000B0E044E050E00C94B922A8E1B0E042E001
:1045200050E00C94B922262FF999FECF92BD81BD9F
:10453000F89A019700B4021639F01FBA20BD0FB6E1
:10454000F894FA9AF99A0FBE08950396272F0E94BD
:1045500094220E949322252F0E949422242F0C94AF
:1045600094220196272F0E9494220C949322DC011E
:10457000CB01FC01F999FECF06C0F2BDE1BDF89A6E
:10458000319600B40D9241505040B8F70895AA1BDF
:10459000BB1B51E107C0AA1FBB1FA617B70710F02E
:1045A000A61BB70B881F991F5A95A9F78095909560
:1045B000BC01CD01089597FB072E16F4009407D097
:1045C00077FD09D00E94C72207FC05D03EF49095E4
:1045D00081959F4F0895709561957F4F0895EE0FD7
:1045E000FF1F0590F491E02D0994CF93DF93823063
:1045F000910510F482E090E0E091F905F091FA0560
:1046000020E030E0C0E0D0E0309711F140815181EE
:1046100048175907C0F04817590761F48281938100
:10462000209719F09B838A832BC09093FA0580937F
:10463000F90526C02115310519F04217530718F462
:104640009A01BE01DF01EF010280F381E02DDCCF92
:104650002115310509F1281B390B2430310590F45F
:1046600012968D919C9113976115710521F0FB01B4
:104670009383828304C09093FA058093F905FD012A
:10468000329644C0FD01E20FF31F819391932250B3
:1046900031092D933C933AC02091F7053091F805EC
:1046A000232B41F420910201309103013093F8054E
:1046B0002093F7052091000130910101211531056A
:1046C00041F42DB73EB74091040150910501241BE0
:1046D000350BE091F705F091F805E217F307A0F428
:1046E0002E1B3F0B2817390778F0AC014E5F5F4F48
:1046F0002417350748F04E0F5F1F5093F80540937D
:10470000F7058193919302C0E0E0F0E0CF01DF91E3
:10471000CF9108950F931F93CF93DF93009709F4E0
:104720008CC0FC013297138212820091F90510911E
:10473000FA050115110581F420813181820F931F43
:104740002091F7053091F8052817390779F5F0938E
:10475000F805E093F70571C0D80140E050E0AE17CE
:10476000BF0750F412962D913C911397AD0121157E
:10477000310509F1D901F3CF9D01DA013383228399
:1047800060817181860F971F8217930769F4EC018E
:1047900028813981260F371F2E5F3F4F31832083B9
:1047A0008A819B8193838283452B29F4F093FA05B8
:1047B000E093F90542C01396FC93EE931297ED0136
:1047C000499159919E01240F351FE217F30771F4A7
:1047D00080819181840F951F029611969C938E93F0
:1047E0008281938113969C938E931297E0E0F0E080
:1047F000D80112968D919C911397009719F0F801AA
:104800008C01F6CF8D919C9198012E5F3F4F820FC6
:10481000931F2091F7053091F8052817390769F49F
:10482000309729F41092FA051092F90502C013820C
:1048300012821093F8050093F705DF91CF911F9135
:084840000F910895F894FFCFD9
:104848000000FB052000BA04C0010120006F150E0E
:1048580016E3157215A815000D010D020D030D04C0
:104868000D050D000C010C020C030C040C050C00CA
:104878000B010B020B030B040B050B000A010A02C8
:104888000A030A040A050A000901090209030904BE
:1048980009050900080108020803080408050800BA
:1048A80007010702070307040705070006010602B8
:1048B80006030604060506000501050205030504AE
:1048C80005050500040104020403040404050400AA
:1048D80003010302030303040305030002010202A8
:1048E800020302040205020001010102010301049E
:1048F800010501000001000200030004000500009A
:00000001FF
