:100000000C9463030C9480030C9480030C94800381
:100010000C9480030C9480030C9480030C94800354
:100020000C9480030C9480030C94B10F0C94F30E89
:100030000C943B1E0C9480030C9480030C9480035E
:100040000C9480030C9480030C9480030C94800324
:100050000C9480030C94FA1D0C9480030C94800380
:100060000C9480030C9480030C9480030C94800304
:100070000C9480030C9480030C9480030C948003F4
:100080000C9480030C9480030C9480030C948003E4
:100090000C9480030C9480030C9480030C948003D4
:1000A0000C9480030C9480030C9480039F04A4049C
:1000B000AE04A204A704AC04AA04DC05DF05E20533
:1000C000E505E805EB05EE05B308B308E508E50826
:1000D0004F096B09FF0AFF0A7609540A650A650A87
:1000E000060D2D0DDB0E2D0DDB0E790D9C0DDB0E9F
:1000F000910EA10E05010980A101850319012AB7FE
:1001000000150126B700950175108100C0050C0986
:1001100001A101850419012AA002150126A002955A
:100120000175108100C005010906A10185060507BA
:1001300019E029E7150025019508750181020507D9
:10014000190029EF1500250195F0750181020508B8
:100150001901290595057501910295017503910114
:10016000C005010902A1010901A100050919012920
:10017000081500250195087501810205010930095E
:10018000311581257F95027508810609381581256D
:100190007F950175088106050C0A38021581257FB7
:1001A000950175088106C0C00660FF0961A10109BB
:1001B00062150026FF00952075088102096315006D
:1001C00026FF00952075089102C005010906A101CE
:1001D000050719E029E71500250195087501810239
:1001E0009501750881010507190029FF150026FFF3
:1001F0000095067508810005081901290595057502
:10020000019102950175039101C009027400040176
:1002100000A0FA09040000010301010009211101F5
:1002200000012240000705810308000109040100C4
:10023000020300000009211101000122220007052C
:1002400083032000010705040320000109040200C4
:1002500001030102000921110100012247000705E5
:1002600082030800010904030001030000000921C2
:1002700011010001226D0007058503200001120114
:1002800000020000000897327449010001020001D9
:1002900016034500720067006F0044006F0078008D
:1002A000200045005A00000028035A005300410076
:1002B000200054006500630068006E006F006C0051
:1002C0006F006700790020004C006100620073003D
:1002D000000004030904135064002B003400015192
:1002E000000001511400040054005000075DE200BA
:1002F0000F001100550051002A00E30018000C0007
:100300001C0052000800E100060016000A004F0021
:10031000065DE0000D0019001B00000002512B00DB
:100320004F0C000051000000045D4C00500C000018
:1003300052000000055DE4000E0005001D000000F5
:100340000251E50013000B0009005000065DE700B4
:1003500010001700070051002C00E2001A001500E1
:100360003700520028002F003800120036004F00DE
:10037000085D6500300029003300015100000100D4
:1003800008142302E60001000000010035002514D6
:100390003014010001000100350226142E00010076
:1003A0000100010025162502320001002114010080
:1003B000261626021F024D000100010032021F1402
:1003C00057000000010001004B0000004E0000003B
:1003D000010001004A0000004D0000000100010082
:1003E00020022D0056000000010001002400210021
:1003F0001E004A0001000100250022001F0001002C
:100400002700010026002300200001000100010058
:1004100030022702220201000100AF5D47002414D0
:10042000E6000100000001000000FC00FB000100EC
:10043000000000000000FA00F900010001000100C6
:10044000F100EF000000010001000100F300ED00E9
:10045000EE00010001000100F200F00000000100C8
:1004600001000100FF00FE00FD000000010001008E
:10047000F4000000F5000000010001000100000090
:100480000100000001000100000000000000000069
:100490000100010040003D003A00010001000100A0
:1004A00041003E003B0001000100010042003F000E
:1004B0003C00010001000000450044004300010031
:1004C0000100460000000100000001000000105083
:1004D0001E142B00340004510000045114000400C9
:1004E000300050000100E2000F0011002E0051000A
:1004F0002A00E00018000C001C0052000800E10077
:10050000060016000A004F000100E3000D0019006C
:100510001B00000005512B004E010000510000009F
:1005200001004C004B010000520000000100E700F8
:100530000E0005001D0000000551E50013000B0032
:10054000090050000100E4001000170007005100EE
:100550002C00E2001A0015003700520028002F007E
:100560003800120036004F000100650031142900E8
:1005700033000451000001001F022302E6000100C5
:100580000000010064002514301401000100E200A5
:10059000640226142E1401000100E0002414250238
:1005A000320001002114E100271426021F024D0031
:1005B0000100E30032021F143816000001000100A0
:1005C0004B0000004E000000010001004A00000046
:1005D0004D0000000100E70020022D00381400004B
:1005E0000100E500240021001E004A000100E40093
:1005F000250022001F0001002700E2002600230042
:100600002000010001000100231427022202010042
:100610000100AF5D32006414E600010000001050DC
:100620001F020100010001000000000001000100A4
:100630002D1401000100E200010001001E02010072
:100640000100E00001000100010001000100E100E3
:1006500001000100010001000100E30001000100B0
:100660000100000001000000000000000000000088
:100670000100000000000000000000000100E70091
:1006800000000000000000000100E50040003D0007
:100690003A0001000100E40041003E003B0001007F
:1006A0000100E20042003F003C00010001000000A8
:1006B0004500440043000100010046000000000026
:1006C00000000100000011241FBECFEFDAE0DEBF02
:1006D000CDBF11E0A0E0B1E0E0EBF7E402C005908F
:1006E0000D92AE36B107D9F725E0AEE6B1E001C014
:1006F0001D92A93CB207E1F70E9411110C94D62378
:100700000C9400000E94B8172FEF84E39CE0215066
:1007100080409040E1F700C000009AE088E10FB609
:10072000F894A895809360000FBE90936000FFCF6F
:10073000A7E1B0E0EEE9F3E00C944F214B8B5C8B2A
:100740006D8B7E8B8F8B61111092940586E09E01DC
:10075000235F3F4FD901E82F1D92EA95E9F795E015
:10076000FE017396D90101900D929A95E1F79C894B
:100770004E895F897B897D879E876F87598B488BE0
:10078000F901DE01179601900D928A95E1F7CE01ED
:1007900007960E942A1581113EC086E0FE01379619
:1007A000DE01119601900D928A95E1F7FF81E885AF
:1007B0006A857B856115710531F0EF3F31F481E089
:1007C000FF3F19F403C081E001C080E080FD23C039
:1007D0002091410530E0C901019687709927409129
:1007E000720550E08417950779F1F983EA837D83D8
:1007F0006C8396E0929FD001939FB00D1124AE5B65
:10080000BA4FFE01319601900D929A95E1F78093CF
:1008100041050E94C81B16E0809172059091410528
:100820008917F9F0189FC00111248E5B9A4F0E941E
:100830002A158823B1F08091720590E001968770A7
:10084000992780937205E8CF0E94B817109241054E
:1008500010927205EBE3F5E086E0DF011D928A95C8
:10086000E9F76796E3E00C946B21CF92DF92EF9269
:10087000FF926C01EE24FF24C114D104E104F104C1
:1008800021F0C701B60120E101C020E0C72ED82E1B
:10089000E92EFF24C114D104E104F10419F0285F0A
:1008A000C701B6016B017C0154E0F694E794D7943C
:1008B000C7945A95D1F7C114D104E104F10419F099
:1008C0002C5FC701B6016B017C0142E0F694E7940E
:1008D000D794C7944A95D1F7C114D104E104F10427
:1008E00019F02E5FC701B601DC01CB01B695A795C3
:1008F00097958795892B8A2B8B2B09F02F5F822F59
:10090000FF90EF90DF90CF900895CF92DF92EF921B
:10091000FF926B017C010E94350456985E982598E1
:100920002D9826982E9827982F9890E0FC013197C3
:10093000E730F105A8F4EA5AFF4F0C94A222259A59
:100940002D9A0EC0259A2D9A269A2E9A09C0259A7C
:100950002D9A04C0259A2D9A269A2E9A279A2F9A74
:10096000C701B601FF90EF90DF90CF90089580E22D
:1009700090E090931C0180931B0180917001811184
:100980000EC00E94582081E0809370012FEF83ED0C
:1009900090E3215080409040E1F700C0000064E601
:1009A00070E080E40E945E2090931C0180931B0104
:1009B000892B09F04EC064E670E080E00E94D320ED
:1009C00090931C0180931B01892B09F042C064E6BF
:1009D00070E080E00E94D32090931C0180931B0163
:1009E000892BB9F564E670E08FE30E94D3209093E1
:1009F0001C0180931B01892B61F50E94282164E66C
:100A000070E080E40E945E2090931C0180931B01A3
:100A1000892BF9F464E670E08CE00E94D320909377
:100A20001C0180931B01892BA1F464E670E080E037
:100A30000E94D32090931C0180931B01892B49F4C1
:100A400064E670E08FE30E94D32090931C018093B2
:100A50001B010E94282180911B010895CF93DF93F1
:100A600056985E9825982D9826982E9827982F9816
:100A7000C8E8D0E08FEF90E099838883AAE8B0E0DF
:100A800011969C938E93ECE8F0E091838083259AF5
:100A90002D9A2FEF80E792E0215080409040E1F7BF
:100AA00000C00000269A2E9A2FEF80E792E0215096
:100AB00080409040E1F700C00000279A2F9A2FEF66
:100AC00080E792E0215080409040E1F700C00000B4
:100AD00025982D982FEF80E792E02150804090409C
:100AE000E1F700C0000026982E982FEF80E792E0F3
:100AF000215080409040E1F700C0000027982F98D7
:100B00008091A80487702FEF829FC00111249595D2
:100B100087959595879599279983888311969C93B6
:100B20008E939183808356985E9825982D98269869
:100B30002E9827982F98DF91CF910895CF93E82F83
:100B4000873080F580911B0190911C01892B09F061
:100B500047C0CE2F64E670E080E40E945E20909350
:100B60001C0180931B01892BD1F464E670E082E1C3
:100B70000E94D32090931C0180931B01892B79F450
:100B800081E090E001C0880FCA95EAF764E670E062
:100B900080950E94D32090931C0180931B010E949A
:100BA00028211EC090E0FC013797E730F105C0F422
:100BB000E35AFF4F0C94A222209A289811C0219A40
:100BC00029980EC0229A2A980BC0239A2B9808C005
:100BD000529A5A9805C0539A5B9802C03E9A46981A
:100BE000CF910895209828982198299822982A989A
:100BF00023982B9852985A9853985B983E98469809
:100C00000895CF93873040F580911B0190911C018E
:100C1000892B59F564E670E081E40E945E20909390
:100C20001C0180931B01892B11F0C0E011C084E6E8
:100C300090E00E94032197FF05C090931C018093D0
:100C40001B01F3CFC82FC09510921C0110921B01FD
:100C50000E9428218C2F0AC09FB18FB1807F86957A
:100C600086959370892B809501C080E0CF9108957F
:100C70008098889A8198899A84988C9A85988D9A78
:100C800086988E9A87988F9A089581E08093A1051F
:100C90000E942F1E259A2D9A0895A5E2B0E0E3E563
:100CA000F6E00C944621FC018081918123813481FE
:100CB000232B31F09F3F31F491E08F3F19F403C0B3
:100CC00091E001C090E090FDD8C47F0185E0DE0195
:100CD000919601900D928A95E1F7D70112962C9189
:100CE00089A19AA1222349F00E94C114182F682FCC
:100CF00089A19AA10E94E61603C00E94B116182F7E
:100D000069A17AA1812F0E94FE188C018091710443
:100D1000811147C0F70182818111B3C00530FDE523
:100D20001F0729F198F404303DE5130709F0A9C025
:100D30000E9445060E94B8170E94A71781E791E01C
:100D40009093A2048093A10481E01EC007308DE53A
:100D50001807E9F008309DE5190709F092C0609185
:100D60000A0170910B014FEF8BE694E017C00E94CF
:100D700045060E94B8170E94A7178BE694E090934F
:100D8000A2048093A10482E08093710466C4609100
:100D90000C0170910D0141E081E791E00E94C51EB8
:100DA0005CC4980124503D452330310508F052C001
:100DB00091E00630ADE51A0709F490E0F7012281D1
:100DC000291709F44AC48130A1F0823009F03FC0EC
:100DD0000091A1041091A2041092A1056091B105A7
:100DE0007091B2058091B3059091B4050E9485047D
:100DF00026C00091A1041091A2041092A105609157
:100E0000B1057091B2058091B3059091B4050E942F
:100E10008504F1E001371F0739F0F8013697828128
:100E2000882311F08F01F5CF10930D0100930C0171
:100E30000EC0F80136968281882329F08F0124E0C4
:100E40000B361207B1F710930B0100930A011092B1
:100E5000710403C4813059F0823099F460910C011F
:100E600070910D0197014FEF8BE694E008C06091FF
:100E70000A0170910B01970141E081E791E00E9426
:100E8000FE0B9091A304D70112968C91992309F43B
:100E90004DC08111E2C3E0917204E330A0F481E01F
:100EA0008E0F80937204F0E0EE0FFF1FE852FB4FAD
:100EB000D7018D919C919183808382E08983CE01BB
:100EC00001960E94E510BFEFE3EDF0E3B150E04082
:100ED000F040E1F700C0000080917204833009F017
:100EE000BCC310927204EEEDF4E0A8EDB4E084EE21
:100EF00094E0318111962C91119732132EC03081DC
:100F00002C9132132AC0329612968E179F0789F7BA
:100F100084E0898381E08093A4048EEF8A83109219
:100F2000A304CE0101960E94E51097C39091A404FA
:100F30009923C1F0811102C087E001C086E0898356
:100F4000D7018C918A8311968C918B838EEF8C8341
:100F5000CE0101960E94E51005C083E089831092BE
:100F6000A404DBCF0F3ABDE51B0709F040C0F70131
:100F700082818823E1F19091A80481E0890F877034
:100F8000987F853020F4892B8093A80402C0909329
:100F9000A8048091A8048770FFEF8F9FC0011124DF
:100FA0009595879595958795992790938900809336
:100FB000880090938B0080938A0090938D0080939B
:100FC0008C004091A8045091A9046091AA047091EA
:100FD000AB048FE090E00E9419226091B1057091FE
:100FE000B2058091B3059091B4050E948504F70184
:100FF0008281882309F469C00C352DE5120709F4B4
:101000005FC058F401158CE5180799F00F3D1C4599
:1010100009F05BC00E94B11A49C00E35ADE51A0750
:1010200009F446C008F44EC0093A1D4509F43EC013
:101030004CC00E94B817FFEF04E31CE0F1500040E1
:101040001040E1F700C00000F89481E08093E000D8
:1010500080E28093D8001092C9008FE19EE401974E
:10106000F1F700C000001DBA109268001CBC10BE51
:101070001FBA10927A0010926E0010926F001092B8
:101080007100109272001092C9001092BC0014B846
:1010900017B81AB81DB810BA1092BC0015B818B815
:1010A0001BB81EB811BA0C94003FD7C20E9482032D
:1010B0008091C10582FB882780F991E0892703C0D0
:1010C00081E001C080E00E94AC1BD70112968C9198
:1010D00012970D911C91882349F0C8010E94C114F8
:1010E000D82E682FC8010E94E61604C0C8010E94CD
:1010F000B116D82EB8018D2D0E94FE180E94171926
:101100008C01982EF701D280A580A2949FE0A9229D
:10111000809173058770B9F0DD20A9F0812F807F61
:10112000803421F080E2800F883068F08091C10522
:1011300082FF09C082E00E948F1B80917305877037
:10114000CC24C3948111C12CB12EB2948FE0B8226B
:101150008B2D90E08C30910508F051C2FC01EC59C8
:10116000FF4F0C94A222812F807F1F70882311F0E3
:101170001295107FDD20B9F0112309F42DC280E211
:10118000800F883010F0911006C080919505182BC3
:101190001093950505C080919405182B1093940524
:1011A0000E943A1B19C2802F0E94DF17112309F4F5
:1011B00026C2005E083078F1992069F1109580917F
:1011C000940518231093940529C0812F807F1F70E8
:1011D000803211F01295107F992021F0F1E09F16D6
:1011E000D9F147C08091C10582FD1BC0DD2069F0A7
:1011F000112339F080919505182B109395050E94C5
:101200003A1B80E00E941418FAC180E00E94DF17A8
:10121000112309F4F4C1812F0E94331B0E943A1B51
:10122000EEC1DD2081F080919605AA2051F001E009
:10123000A01207C0182B181709F4E1C110939605E6
:10124000DEC1812B10C0AA2021F021E0A21609F4F2
:10125000D6C10E942D1B1FC0DD2041F031E03A15A0
:1012600008F4CDC1812F0E94D517C9C1A110C7C1F3
:1012700012C0DD2019F0AA20A9F3AEC1AA2059F0AE
:10128000093309F0B9C18FEF97EEA3E08150904088
:10129000A040E1F7AFC1812F0E94CE17B0C1812FCE
:1012A00086958695837019F0813059F0A8C1DD20AC
:1012B00019F0C801937002C080E090E00E94A21E65
:1012C000A4C1DD2019F0C801937002C080E090E055
:1012D0000E948C1E9AC1802FDD2019F00E94FD1FF4
:1012E00002C00E94431F0E941C1F8FC1812F837068
:1012F00009F069C0D11087C1902F9295969597708B
:10130000990F990F802F8F70882E912CA12CB12CC2
:10131000092E04C0880C991CAA1CBB1C0A94D2F785
:1013200004FF12C04FE050E060E070E004C0440FE2
:10133000551F661F771F9A95D2F7DB01CA0180956A
:101340009095A095B09503C080E090E0DC011695E3
:101350001695412F4370423019F1C8F4009197055A
:10136000109198052091990530919A05413059F0D6
:1013700088299929AA29BB29BC01CD0160237123A1
:10138000822393230AC0802A912AA22AB32ABC016D
:10139000CD01682979298A299B290E94AD1733C17B
:1013A00088299929AA29BB290091970510919805A8
:1013B0002091990530919A05BC01CD0160277127D4
:1013C00082279327EACFDD2019F0812F817001C099
:1013D0008695882309F417C1902F9295969597705A
:1013E000990F990F802F8F70882E912CA12CB12CE2
:1013F000092E04C0880C991CAA1CBB1C0A94D2F7A5
:1014000004FF12C04FE050E060E070E004C0440F01
:10141000551F661F771F9A95D2F7DB01CA01809589
:101420009095A095B09503C080E090E0DC01169502
:101430001695412F43704230D9F068F50091B105FF
:101440001091B2052091B3053091B405413059F0A7
:1014500088299929AA29BB29BC01CD0160237123C0
:10146000822393231EC0802A912AA22AB32A13C062
:1014700088299929AA29BB290091B1051091B205A3
:101480002091B3053091B405BC01CD0160277127CF
:101490008227932706C0BC01CD01682979298A29B2
:1014A0009B290E941C17AFC01F70DD2039F0812FCF
:1014B0000E948517802F0E94D517A5C0802F0E94FB
:1014C000CE17812F0E945F179EC0802FB2EF9B1610
:1014D00009F441C0B91538F0E0EF9E1659F0F1EF6C
:1014E0009F16A1F174C023EF9216E1F134EF931629
:1014F00049F16DC0DD2009F1A11081C01F7181E0AB
:1015000090E0A0E0B0E0AC01BD0104C0440F551F65
:10151000661F771F1A95D2F78091B1059091B20599
:10152000A091B305B091B4058A019B010827192742
:101530002A273B27C901B80125C021E02A1508F454
:101540005EC0DCCF8091C10582FD22C0DD2029F084
:10155000812F8F712FC0DD20D9F3812F8F710E94D1
:101560005F174DC0DD2089F01F7181E090E0A0E0A1
:10157000B0E0BC01CD0104C0660F771F881F991F22
:101580001A95D2F70E941C173AC00E94A71737C0BD
:10159000DD2099F01F71812F0E9485178091C10570
:1015A00082FF07C038E0139FC0011124836080933D
:1015B0007305812F0E94851722C081E00E948F1B36
:1015C00081E08A15E0F482E00E948F1B18C0DD20C4
:1015D00029F0AA2009F4BCCF802F14CEAA2009F448
:1015E000BCCF893349F49FEFA7EEB3E09150A04000
:1015F000B040E1F700C00000802F0E94DF1788EFA5
:101600008B0D843010F40E94B81ECC20A9F080917C
:10161000730580FD11C0F70112828595859585952A
:101620000E948517C7010E944D068091730585951C
:10163000859585950E945F1785E0F701DE0111967B
:1016400001900D928A95E1F709811A81C8010E94E3
:10165000B116B8010E94FE1810C080917305877002
:1016600061F0D70112968C91882339F08091C105E1
:1016700082FF03C082E00E948F1BA596ECE00C94D1
:1016800062218091990487FF11C08091E80082FD5A
:1016900005C08091A5048111F8CF11C08091E800A8
:1016A0008B770BC08091A504882349F08091E800D6
:1016B00080FFF8CF8091E8008E778093E80008954E
:1016C000982F973068F59093E900981739F070914A
:1016D000EC002091ED005091F00003C0242F762FF4
:1016E00050E021FD02C09F5FECCF3091EB003E7FC8
:1016F0003093EB003091ED003D7F3093ED00309161
:10170000EB0031603093EB007093EC002093ED0020
:101710005093F0002091EE0027FDE5CF80E0089582
:101720008F708093E90081E0089520919F043091AB
:10173000A0042617370748F06115710539F4209188
:10174000E8002E772093E80001C0B901FC0120E0F9
:101750006115710579F18091A5048823F1F1853037
:10176000F1F18091E80083FD3CC08091E80082FDAA
:101770002EC08091E80080FFEBCF2091F300809194
:10178000F20090E0922B6115710551F088309105BF
:1017900038F421912093F100615071090196F3CF43
:1017A00021E0089709F020E08091E8008E7780938F
:1017B000E800CECF2111CFCF0AC08091A5048823A5
:1017C00061F0853061F08091E80083FD0AC080916E
:1017D000E80082FFF2CF80E0089582E0089583E080
:1017E000089581E008950895BC0184E00E94CF1D12
:1017F0000895BC0183E00E94CF1D0895F901228164
:10180000A091A104B091A204211103C0A817B907A7
:10181000C9F086E04802A0011124CD01841B950B7C
:101820006817790779F086E001900D928A95E1F7C3
:101830008091A1049091A204480F591F5093A204D3
:101840004093A1040895AAE2B0E0E9E2FCE00C9420
:101850004F21E9E9F4E081EA94E02091F10021933D
:101860008E179F07D1F780919A04833009F463C0E3
:1018700030F4813071F0823009F49DC0B4C08A30F8
:1018800009F489C08B3009F46EC0893009F0ABC00F
:1018900020C080919904813A09F0A5C08091E800A8
:1018A000877F8093E80080919D0490919E04892B0E
:1018B00021F460E286E794E003C060E080E090E01D
:1018C00070E00E94950B8091E8008B778093E80090
:1018D0008AC080919904813209F085C080919D046D
:1018E00090919E04009719F0039709F07CC08091B5
:1018F000E800877F8093E8008091E80082FD05C0C2
:101900008091A5048111F8CF6EC02091F3008091E1
:10191000F20090E0922B029731F48091F100813037
:1019200011F0863021F48091F1008093750480914C
:10193000E8008B7754C080919904813A09F053C034
:1019400080919D0490919E04892B09F04CC0809158
:10195000E800877F8093E8008091E80080FFFCCF5B
:1019600080910E0137C0809199048132E1F5809118
:101970009D0490919E04892BB1F58091E800877FAA
:101980008093E8000E94410B80919B0480930E019C
:101990000E94B81728C080919904813221F5809166
:1019A000E800877F8093E8000E94410B80919C04AF
:1019B0008093740418C080919904813AA1F48091B5
:1019C000E800877F8093E8008091E80080FFFCCFEB
:1019D000809174048093F1008091E8008E77809369
:1019E000E8000E94410B8091E80083FFE4C18091F0
:1019F000990490919A04492F50E04A30510508F01B
:101A0000DAC1FA01E059FF4F0C94A222803821F08C
:101A1000823809F0D0C108C0809196049091970453
:101A2000992389F082600FC080919D048F70873068
:101A300008F0C1C18093E9008091EB0085FB882705
:101A400080F91092E9009091E800977F9093E80068
:101A50008093F1001092F10070C1282F2D7F09F0C2
:101A6000AAC1882319F0823061F0A5C180919B043E
:101A7000813009F0A0C1933009F080E08093970491
:101A80002EC080919B0481112AC080919D048F708B
:101A90002FEF280F263008F08EC18093E9002091A7
:101AA000EB0020FF1CC0933021F48091EB0080629A
:101AB00014C09091EB0090619093EB0021E030E036
:101AC000A90102C0440F551F8A95E2F74093EA002E
:101AD0001092EA008091EB0088608093EB001092F6
:101AE000E9008091E800877F8093E8000E94410B25
:101AF00062C1811160C110919B041F778091E30046
:101B00008078812B8093E3008091E800877F809329
:101B1000E8000E94410B8091E80080FFFCCF80919B
:101B2000E30080688093E300111102C082E001C0ED
:101B300083E08093A5043FC18058823008F03BC108
:101B400020919B0430919C042C3D53E0350779F59E
:101B500083E08A838AE289834FB7F894DE01139683
:101B600020E03EE051E2E32FF0E050935700E49193
:101B700020FF03C0E295EF703F5FEF708E2F90E083
:101B8000EA3010F0C79601C0C0968D939D932F5FE9
:101B9000243149F74FBF8091E800877F8093E800A8
:101BA0006AE270E0CE0101960E94950BB4C080916C
:101BB0009D0490919E04432F552743305105A9F071
:101BC00068F44130510509F405C14230510509F06E
:101BD000F2C084E790E0EAE0F2E04BC04132510508
:101BE00029F14232510589F1E6C0C90199278130B6
:101BF0009105A1F058F0029709F0DDC0E0E9F2E0AC
:101C0000E4918E2F90E0E0E9F2E030C0E2EDF2E006
:101C1000E4918E2F90E0E2EDF2E028C0E8EAF2E0F5
:101C2000E4918E2F90E0E8EAF2E020C08430910544
:101C300008F0C1C0880F991FFC01E75DFE4F0190BD
:101C4000F081E02D89E090E014C08430910508F027
:101C5000B2C0FC01EE0FFF1FEF5DFE4F0190F0815F
:101C6000E02DDC01A35EBE4F8C9190E0009709F45B
:101C7000A2C02091E800277F2093E80020919F04D4
:101C80003091A0042817390708F4C90140E00097F3
:101C900089F12091A504222309F43DC02530D9F112
:101CA0002091E80023FD37C02091E80022FD2FC0DD
:101CB0002091E80020FFEBCF4091F3002091F2004B
:101CC00030E0342B009759F02830310540F444912E
:101CD0004093F100319601972F5F3F4FF3CF41E0E2
:101CE0002830310509F040E02091E8002E7720935C
:101CF000E800CDCF4111CDCF0AC08091A504882343
:101D000051F0853041F08091E80083FD04C080915E
:101D1000E80082FFF2CF8091E8008B778093E800A3
:101D20004AC0803809F047C08091E800877F8093DF
:101D3000E800809198048093F1008091E8008E770C
:101D4000D3CE811138C080919B0490919C04992737
:101D500002978CF58091E800877F8093E8001091CE
:101D60009B04109398040E94410B111106C08091AE
:101D7000E30087FD02C081E001C084E08093A504F8
:101D800042E061EC81E00E94600B42E061EC82E0A5
:101D90000E94600B42E261EC85E00E94600B42E22F
:101DA00061EC83E00E94600B42E260EC84E00E9400
:101DB000600B8091A5048091E80083FF10C08091A2
:101DC000E800877F8093E8008091EB008062809339
:101DD000EB0005C082E190E0EEE7F2E04ACFAA9680
:101DE000E3E00C946B211F920F920FB60F92112417
:101DF0002F933F934F935F936F937F938F939F9313
:101E0000AF93BF93CF93DF93EF93FF93C091E9001C
:101E1000CF708091EC00D82FD17080FDD0E8109267
:101E2000E9008091F000877F8093F00078940E9411
:101E3000230C1092E9008091F00088608093F000FC
:101E4000CD2BCF70C093E900FF91EF91DF91CF913F
:101E5000BF91AF919F918F917F916F915F914F91C2
:101E60003F912F910F900FBE0F901F901895E8EDA6
:101E7000F0E080818E7F80831092E2001092DA0081
:101E80001092E100A0EEB0E08C9181608C93808193
:101E90008F77808319BCA7EDB0E08C918E7F8C93F7
:101EA00080818F7E8083109273040895A0E0B0E05B
:101EB000ECE5FFE00C944A21C8EDD0E088818F7EEC
:101EC0008883E7EDF0E080818160808384E082BFD9
:101ED00081E08093730488818E7F888302EE10E016
:101EE000F80110821092DA0081EEC82ED12CF60192
:101EF000108288818F778883888180688883888131
:101F00008F7D888319BC1092A504109298041092BA
:101F100097041092960490EEE92EF12CF70180813F
:101F20008B7F808388818160888342E060E080E0ED
:101F30000E94600BF60180818E7F8083F801808192
:101F400081608083808188608083F70180818E7FBB
:101F50008083888180618883CDB7DEB7E8E00C9408
:101F600066211F920F920FB60F9211242F933F9369
:101F70004F935F936F937F938F939F93AF93BF9391
:101F8000EF93FF938091E10082FF09C08091E2000E
:101F900082FF05C08091E1008B7F8093E1008091FA
:101FA000DA0080FF2AC08091D80080FF26C080918F
:101FB000DA008E7F8093DA008091D90080FF18C00C
:101FC00080E189BD82E189BD09B400FEFDCF81E0D9
:101FD0008093A5048091730481110FC00E94370F74
:101FE0000E94560F8091E20084608093E20005C059
:101FF00019BC1092A504109273048091E10080FF37
:1020000017C08091E20080FF13C08091E2008E7FB4
:102010008093E2008091E20080618093E2008091F1
:10202000D80080628093D80019BC85E08093A50415
:102030008091E10084FF30C08091E20084FF2CC0D9
:1020400080E189BD82E189BD09B400FEFDCF8091A8
:10205000D8008F7D8093D8008091E1008F7E80939F
:10206000E1008091E2008F7E8093E2008091E200A7
:1020700081608093E20080919804882311F084E0CD
:1020800007C08091E30087FD02C081E001C083E0CA
:102090008093A5048091A5048091E10083FF27C06F
:1020A0008091E20083FF23C08091E100877F8093CD
:1020B000E10082E08093A504109298048091E100F1
:1020C0008E7F8093E1008091E2008E7F8093E2001A
:1020D0008091E20080618093E20042E060E080E075
:1020E0000E94600B8091F00088608093F000FF9167
:1020F000EF91BF91AF919F918F917F916F915F9180
:102100004F913F912F910F900FBE0F901F901895F8
:102110002091E4003091E50095E64091EC00842F99
:10212000817040FF23C08091E80080FD1DC0809138
:10213000A504882399F0853099F08091EB0085FD06
:1021400011C04091E4005091E5002417350729F3B0
:10215000915011F09A01E1CF84E0089582E0089552
:1021600083E0089581E0089580E008954091E800BB
:1021700042FFDDCF0895EF92FF920F931F93CF930D
:10218000DF937C018B010E948810811119C0E70147
:1021900001151105A1F08091E80085FD0AC080912C
:1021A000E8008E778093E8000E948810882381F3EE
:1021B00007C089918093F10001501109E9CF80E0B7
:1021C000CDB7DEB7E6E00C946821CF932091A5044B
:1021D000243029F5C091E900CF703091EC00232F15
:1021E000217030FD20E8C22B23E02093E9002091EC
:1021F000E80020FF11C040E050E060E270E00E9483
:10220000BB10882321F01092A3041092A4048091A3
:10221000E8008E778093E800CF70C093E900CF91FB
:102220000895ACE5B0E0E7E1F1E10C94482185B711
:10223000806885BF85B7806885BF84B7877F84BF86
:102240000FB6F894A8958091600088618093600033
:10225000109260000FBE90E080E80FB6F894809373
:102260006100909361000FBE89EB98E190936F013C
:1022700080936E010E94370F0E94560F8091E200FA
:1022800084608093E20078948091A5048823A1F073
:102290001091E9001F709091EC00892F817090FDE2
:1022A00080E8182B1092E9008091E80083FD0E94DD
:1022B000230C1F701093E90082E084BD93E095BD6C
:1022C0009AEF97BD80936E000E94B70490E09093C0
:1022D0001C0180931B010E94F2050E943806ECEA63
:1022E000F4E0AAEBB4E011921D9224E0EA3BF2077D
:1022F000D1F78EE090E00E94A8228093A6049093EC
:10230000A704FC010E961192E817F907E1F789EA94
:102310008093800089E08093810024982C983F98D6
:102320008AB18F7C8AB96E98479A8BB180638BB9DA
:10233000769A8FE090E00E94EB216093A80470935E
:10234000A9048093AA049093AB0467703FEF639F46
:10235000B0011124759567957595679577277093EA
:1023600089006093880070938B0060938A0070935B
:102370008D0060938C000E942E0580E090E00E940A
:10238000F121883E9E4F11F00E94B11A82E090E048
:102390000E94E3218093C80484E090E00E94E3213E
:1023A000182F82E290E00E94E321212F30E0382BA9
:1023B0003093C1052093C00583E090E00E94E321A3
:1023C000682F70E080E090E00E94AD176091B10549
:1023D0007091B2058091B3059091B4050E94850477
:1023E0008FE091E09093B8058093B70588E1E82EDF
:1023F000F12C90E4D92E8091A504853009F052C0CB
:1024000000E112E18091A504853009F047C0809178
:10241000A504843009F11092BB050FB6F894A89575
:10242000E09260000FBED092600083B7817F84602D
:1024300083BF83B7816083BF7894889583B78E7F8D
:1024400083BF0FB6F894A89580916000886180934F
:102450006000109260000FBE80919704882391F273
:102460000E94B70490E090931C0180931B010E948E
:10247000F2050E943806EAEBF4E0119284E0E83CB1
:10248000F807D9F70E943B1CEAEBF4E08191811137
:102490003DC224E0E83CF207C9F7B4CF0E94B81768
:1024A0000E94B81E0E943B1C882359F08FB7F894F5
:1024B0004091BC055091BD056091BE057091BF056E
:1024C0008FBFA9ECB4E0EAEBF4E000E010E0302FBD
:1024D00021919D919227A1F180E0CC24C394492FB2
:1024E0004C2151F164968FAF649765963FAF659725
:1024F0002C2181E009F480E066968FAF66970E94F8
:102500002F1E8160782F68969FAF8EAF6897649674
:102510004FAD649765965FAD659766966FAD6697AC
:1025200068968FAD68970E949803F801E753FB4FB8
:102530008081C826C0822AC08F5FCC0C863079F695
:102540000F5F1F4F0E30110509F0C1CF8FEF699655
:102550008FAF69976A968FAF6A976B961FAE6B972E
:102560000E942F1E8160782F6D969FAF8EAF6D9762
:1025700069964FAD69976A965FAD6A976B966FAD36
:102580006B976D968FAD6D970E94980385E0ECEA8E
:10259000F5E0DE01119601900D928A95E1F7109217
:1025A000AD051092AE051092AF051092B0051A81DC
:1025B000111104C08B81882309F452C08091AA05AF
:1025C0009091AB050E94201E9C019091A605992335
:1025D00009F4B2C12531310508F442C09F3F19F01A
:1025E0009F5F9093A605112361F00E94DA1F1116D8
:1025F00014F09FEF01C091E0899F802D11248093FA
:10260000AD051B81112361F00E94DA1F111614F031
:102610009FEF01C091E0899F802D11248093AE052A
:102620003091AD053323E1F02091AE052223C1F0B6
:1026300045EB3403C0011124992319F09093AD05A3
:1026400003C081E08093AD0535EB2303C001112465
:10265000992319F09093AE0503C081E08093AE05F5
:102660001C81111104C08D81882309F452C080910E
:10267000A8059091A9050E94201E9C019091A50596
:10268000992309F45DC12531310508F442C09F3F0B
:1026900019F09F5F9093A505112361F00E94BA1F66
:1026A000111614F09FEF01C091E0899F802D112435
:1026B0008093AF051D81112361F00E94BA1F11168E
:1026C00014F09FEF01C091E0899F802D1124809329
:1026D000B0053091AF053323E1F02091B0052223FE
:1026E000C1F045EB3403C0011124992319F09093F4
:1026F000AF0503C081E08093AF0535EB2303C00134
:102700001124992319F09093B00503C081E08093C0
:10271000B00545E050E0BE016F5F7F4F8CEA95E069
:102720000E94C923892BA9F48091AD0581110FC0A6
:102730008091AE0581110BC08091AF05811107C05A
:1027400081E09091B005911103C080E001C081E06B
:1027500080FD0E941C1F85E0FE013196ACEAB5E0C9
:1027600001900D928A95E1F70E94B81E9091D704CE
:1027700089138093D7048091A504843009F03BCE5F
:102780008093E9008091E80082FF35CE8091E800D7
:1027900085FF22C00E94881081111CC000E210E059
:1027A0005E0141E2A40EB11C08C08091F100F50168
:1027B00081935F010150110969F08091E80085FD66
:1027C000F4CF8091E8008B778093E8000E94881016
:1027D000882399F391E001C090E08091E8008B7725
:1027E0008093E800992309F406CE89A18130E9F1AC
:1027F00058F1823021F0843009F47DC0FCCD8BA1EA
:102800009AA19093D8048093D9048DA19CA1909310
:10281000DA048093DB048FA19EA19093DC04809363
:10282000DD0442E150E063E270E0CE018F5B9F4F38
:102830000E94D32184E0898381E08093A4048EEFF9
:102840008A831092A3040CC019828CE0E1E3F1E0CA
:10285000DE01129601900D928A95E1F78EEF8D8739
:10286000CE0101960E94E510C6CD0EED14E00E9447
:10287000FC1EF801819391938F01F4E0043E1F0741
:10288000B1F781E089839091DE049A839091DF040F
:102890009B839091E0049C839091E1049D839091AF
:1028A000E2049E839091E3049F839EEF9887809338
:1028B000A304CE0101960E94E51042E150E063E2DC
:1028C00070E0CE0101960E94D321FE01319682E193
:1028D00083301CF09189928B01C0128A815031970C
:1028E0008F3FB1F742E150E063E270E0CE01019624
:1028F0000E94F72180CD8091A404882309F47BCD28
:102900000E94A7178AA10E94851775CD09BD19BD20
:1029100009B400FEFDCF8091D8008F7D8093D80050
:102920008091E00082608093E0008091E00081FD72
:10293000FCCF0E94B81766CD232B09F051CE90CE64
:102940002139314008F0A5CEE4CE80E090E00E942D
:10295000A21E80E090E00E948C1E109294050E94BE
:102960003A1BECEAF5E085E0DF011D928A95E9F774
:102970001092A6051092A5051092A7050E941C1F93
:102980000895A0E0B0E0E7ECF4E10C9449218C015B
:10299000C090B105D090B205E090B305F090B405B9
:1029A0008091970590919805A0919905B0919A050D
:1029B000C82AD92AEA2AFB2ACFE1D0E0D701C601EA
:1029C0000C2E04C0B695A795979587950A94D2F7D3
:1029D00080FD04C0219790F7B12C09C0BC2EB8012E
:1029E0008C2F0E94FE180E941719019799F38B2DC6
:1029F000CDB7DEB7E9E00C946521CF93DF93EC010E
:102A00000E94C114BE010E94FE180E941719DF9196
:102A1000CF910895FC01808191810E94FD149295CF
:102A20009F70963079F010F4925001C09A50923015
:102A300068F4803F69F018F4883E40F409C0843F90
:102A400029F406C0883E20F0813F11F080E008950F
:102A500081E00895A1E1B0E0E0E3F5E10C944721C5
:102A60008C0185E0F801DE011D9601900D928A959A
:102A7000E1F7F801E28090913B0560913C054091BF
:102A80003E0550913F054115510531F06F3F31F43E
:102A900081E09F3F19F403C081E001C080E0F82F7E
:102AA000F1709F2E80FD1BC1F80130812181C38010
:102AB000D4808BE3A82E85E0B82EF0903D05F6017A
:102AC000E41BF50BFF2009F4C7C080914005E83CEA
:102AD000F10508F092C0482F407F09F051C0621301
:102AE00011C093130FC0FE2CE1100CC08F708061D9
:102AF00080934005C5010E944D0680914005F80174
:102B000085832AC1C114D10431F02F3F31F481E013
:102B10003F3F19F403C081E001C080E080FD03C0A5
:102B200081E08E2502C080E090E0F82FF170FF2E4A
:102B300080FF1CC0809172054091410556E08417CA
:102B400009F4E8C090E0589FF001599FF00D11245E
:102B5000EE5BFA4F6181261306C06081631303C0E8
:102B60006281E61203C001968770E9CFFE2CEE2049
:102B700009F4F2C08091400581608093400549C00E
:102B8000621306C0931304C0E11002C0F80186C0AE
:102B9000C8010E940A15882351F1EE2041F12091CD
:102BA0004005822F82958F7090E0029774F080919B
:102BB0003B0590913C0598878F831986DB86CA86F2
:102BC0002C87CE0107960E944D0686E0F801ABE304
:102BD000B5E001900D928A95E1F70E94D21B0AC0E0
:102BE0006217C9F0C8010E940A1581111EC0C801F0
:102BF0000E944D06FF24F394AFC0482F407F81F719
:102C00008BE395E00E944D0686E0F50111928A95CE
:102C1000E9F7F12CA1C09313E5CFE110E3CFF80160
:102C20008583C8010E944D0654C0EE2001F3209117
:102C30004005822F82958F7090E0029734F2809148
:102C40003B0590913C059A8389831B82DD82CC826F
:102C50002E83CE010196B7CFE83CF105D0F5FE2CCE
:102C6000EE2029F2621327C0931325C0209140055E
:102C700020FD18C0822F82958F70482F50E041159B
:102C8000510581F0F80125834F30510541F08F5FE8
:102C9000982F9295907F822F8F70892B8583C80102
:102CA0000E944D0686E0F801ABE3B5E001900D927D
:102CB0008A95E1F751C0C8010E940A15811185CF9C
:102CC00080914005816080934005C8010E944D06B7
:102CD00043C086E0F50111928A95E9F73DC0EE20E8
:102CE00009F485CFC8010E940A15F82E882309F43B
:102CF0007ECF86E0F801ABE3B5E001900D928A95B6
:102D0000E1F780913B0590913C050E94FD140E94E3
:102D1000D21B22C03D872E878D859E850E94FD1483
:102D2000292F22952F70223028F49F7039F08111BD
:102D300005C00BC0243028F49F7049F4805E8830B1
:102D400020F0C8010E944D069F2CF92C05C0F80107
:102D50009581907F99F7F9CF8F2D6196EBE00C94D8
:102D60006321292F9E3080F5863070F590E036E0A3
:102D7000239F800D911D1124682F677023E0969585
:102D800087952A95E1F725E0289FF001299FF00D0E
:102D90001124EC51FB4F40E050E080E0219130E005
:102DA000062E02C0369527950A94E2F72170332744
:102DB000042E01C0220F0A94EAF7822B4F5F5F4F67
:102DC0004530510559F7089580E00895292F9E3028
:102DD00090F5863080F590E036E0239F800D911DC0
:102DE0001124282F277051E001C0550F2A95EAF7CA
:102DF00023E0969587952A95E1F725E0289FF00135
:102E0000299FF00D1124EC51FB4F20E030E070E0E1
:102E10004081CB01022E02C0969587950A94E2F775
:102E20008170819584278523842781932F5F3F4F6D
:102E30002530310569F70895CF92DF92EF92FF9226
:102E4000CF93DF93CDB7DEB7A0970FB6F894DEBF70
:102E50000FBECDBF0E9485046B017C018091A4044C
:102E60008823B1F02FEF80E792E02150804090401E
:102E7000E1F700C0000085E08983C701B6010E9428
:102E800035048A838EEF8B83CE0101960E94E51074
:102E9000C092B105D092B205E092B305F092B405AC
:102EA0000E94A514A0960FB6F894DEBF0FBECDBF4A
:102EB000DF91CF91FF90EF90DF90CF9008950F9327
:102EC0001F9341E050E060E070E004C0440F551FE4
:102ED000661F771F8A95D2F740955095609570953B
:102EE0008091B1059091B205A091B305B091B40560
:102EF0008A019B01082319232A233B23C901B80116
:102F00000E941C171F910F9108950F931F9341E08A
:102F100050E060E070E004C0440F551F661F771F4B
:102F20008A95D2F78091B1059091B205A091B30531
:102F3000B091B4058A019B01082B192B2A2B3B2B3E
:102F4000C901B8010E941C171F910F91089560E0FC
:102F500070E0CB010E941C17089560939705709351
:102F600098058093990590939A050E94A514089559
:102F70001092950580910E01882331F08091C00553
:102F800087FF02C08EE101C086E0EDE1F5E0DF01E0
:102F90001D928A95E9F70E94A5140895882321F0CF
:102FA0000E94331B0E943A1B0895882339F09091A8
:102FB0009505892B809395050E943A1B08958823D7
:102FC00091F19CEF980F913A30F4682F8BE195E0E6
:102FD0000E94641E0DC090E2980F983060F48770D4
:102FE00091E001C0990F8A95EAF7892F0E94331B5F
:102FF0000E943A1B08959BE5980F933028F480E0D7
:1030000090E00E94A21E089598E5980F973128F449
:1030100080E090E00E948C1E08958D3E20F00E947A
:10302000431F0E941C1F0895CF93882309F49FC05B
:10303000C82F8CEF8C0F813A08F05BC080910E0195
:103040008823E1F08091C00587FF18C0EC2FE6953A
:10305000E695E695F0E0E55EFA4F8281282F30E0B4
:103060004C2F477081E090E002C0880F991F4A956D
:10307000E2F782239323892B59F411C0EDE1F5E0A7
:103080008191C81729F085E0E332F807C9F707C036
:103090006C2F8BE195E00E94641E0E943A1B809188
:1030A0000E018823B1F08091C00587FF12C0EC2F7C
:1030B000E695E695E695F0E0E55EFA4FC77081E0AB
:1030C00090E001C0880FCA95EAF79281892B82832C
:1030D00020C0ADE1B5E0EFEF80E09D91C917C9F0E8
:1030E000EF3F19F4911101C0E82F8F5F8630A9F7E7
:1030F00035C080E28C0F883078F4C77081E090E0B2
:1031000001C0880FCA95EAF790919505892B8093A5
:1031100095050E943A1B2BC0EBE5EC0FE33040F421
:10312000F0E0E35CFE4F808190E00E94A21E1FC091
:10313000E8E5EC0FE73150F4F0E0EE0FFF1FE05C44
:10314000FE4F808191810E948C1E11C0CD3E78F08F
:103150008C2F0E94FD1F0E941C1F09C0EF3FC9F267
:103160000E2E000CFF0BE55EFA4FC283D2CFCF913B
:10317000089580E008959091C00592FF0DC0282F1A
:103180002871283019F4877F846006C0282F2471A5
:10319000243011F48B7F886093FF0DC0282F287195
:1031A000283119F4877E846106C0282F24712431C8
:1031B00011F48B7E88612091C10520FF0DC0382F4E
:1031C0003871383019F4877F816006C0382F31712B
:1031D000313011F48E7F886021FF0DC0282F2871B7
:1031E000283119F4877E816106C0282F2171213191
:1031F00011F48E7E886194FD877E08957E30A0F460
:10320000663090F494E5899FF001112486E0789F60
:10321000E00DF11D1124E60FF11DEE0FFF1FEA5224
:10322000FD4F85919491089580E090E00895CF93AB
:10323000DF938238910569F1B0F48133910509F487
:103240006FC048F48932910509F465C08A3291054E
:1032500009F46BC08AC08533910509F457C08933DE
:103260009105B9F082C0833E910571F138F4803E3A
:103270009105B1F0823E910511F177C0863E91052E
:10328000B9F1873E9105C9F1843E910509F06DC001
:1032900024C02091C00520FD53C021FD51C065C050
:1032A0008091C00580FD46C08091C10580FF48C067
:1032B0008091C00584FD50C183EE90E04FC18091A4
:1032C000C00582FF3AC0F4CF8091C00582FD35C0B1
:1032D0008091C10580FD34C0EBCF8091C10581FF95
:1032E00035C08091C00584FD37C187EE90E036C1BE
:1032F0008091C00583FF27C0F4CF8091C00583FD76
:1033000022C08091C10581FD21C0EBCF8091C00515
:1033100085FD1FC021C08091C00585FD1DC019C05D
:103320008091C00586FD1BC01DC08091C00586FD33
:1033300019C015C089E390E011C182EE90E00EC182
:1033400080EE90E00BC186EE90E008C184EE90E044
:1033500005C189E290E002C185E390E0FFC08AE206
:1033600090E0FCC081E390E0F9C0811531E593075E
:1033700008F069C0811540E59407F0F09C0174E005
:10338000369527957A95E1F7922F9370482F4370E1
:1033900021E030E002C0220F331F4A95E2F73C687B
:1033A000392B982F9F709695969540E2949FC00177
:1033B0001124822B932BD2C0883E910568F5803E64
:1033C000910508F0CBC0883A9105B8F4853A91058B
:1033D00048F0855AE82FF0E0E35CFE4F808190E0F2
:1033E0009064BCC08130910509F4B3C008F4B4C046
:1033F0008430910508F4B0C0B1C08F3B910508F04E
:10340000ABC0885AE82FF0E0EE0FFF1FE05CFE4FE4
:10341000808191819464A2C0811520E2920758F4C2
:10342000811531E0930708F099C08D3E910508F4AD
:1034300093C0906593C0811540E4940708F48CC054
:103440009F70906A8BC0811525E5920708F042C0F5
:10345000811534E5930728F0982F8827846F906AA8
:103460007DC0811543E59407B0F09C01237033279C
:1034700041E050E002C0440F551F2A95E2F7282F83
:103480002695269580E2289F90011124CA01822B5F
:10349000932B9A6863C0811522E5920728F4982F30
:1034A0008827816F906A5AC09C012370332741E0BE
:1034B00050E002C0440F551F2A95E2F7282F2695A9
:1034C000269580E2289F90011124CA01822B932B1C
:1034D0009C6844C0EC01811539E59307A8F4811577
:1034E000984528F09C2F8827806F906A37C0C115B7
:1034F00086E5D80788F58C2F0E94BB188F7190E065
:10350000982F882790622AC081152AE5920790F4A7
:103510008C2F8F700E94BB1894E0D695C7959A9512
:10352000E1F7CF70D0E0DC2FCC27D0699E01282BAB
:10353000C90114C090568115904270F48D2F8F717F
:103540000E94BB18282F2F71CE0199279062922BD1
:1035500005C081E090E002C080E090E0DF91CF9173
:10356000089568EE7EEF80E090E00E94252260E002
:1035700082E090E00E94072260E083E090E00E94F9
:1035800007221092970510929805109299051092B3
:103590009A0560E084E090E00E94072264E082E205
:1035A00090E00E94072260E085E090E00E94072200
:1035B00060E086E090E00E9407226FEF87E090E0F5
:1035C0000E94072240E050E0BA0188E090E00E94AB
:1035D000192260E08DE090E00E94072240E050E078
:1035E000BA0188E190E00E94192260E087E190E052
:1035F0000E94072240E050E0BA018CE190E00E9476
:10360000192260E070E080E290E00E94252240E014
:1036100050E0BA0188E190E00E9419221092A804BB
:103620001092A9041092AA041092AB0484E0809333
:10363000A8044091A8045091A9046091AA04709133
:10364000AB048FE090E00E94192240E050E0BA0104
:1036500083E190E00E9419220895809196058111DE
:1036600010929605089580959091950589238093F1
:10367000950508959091950580919405982B9093C8
:103680001B05809196058823D9F0892B80931B0513
:1036900080910E01882331F08091C00587FF02C020
:1036A0008EE101C086E0EDE1F5E090E0815028F088
:1036B00021912223D9F39F5FF9CF91110E942D1BF5
:1036C00040E250E064E775E08BE195E00E94C92399
:1036D000892B21F180E2EBE1F5E0A4E7B5E0019070
:1036E0000D928A95E1F7E091B705F091B805309712
:1036F000A9F080910E01882359F08091C00587FFC1
:1037000007C080911B0580931C0586E080931B05F4
:103710000280F381E02D8BE195E0099508952091D9
:1037200073058095822380937305982F977099F481
:1037300030E0482F082E000C550B2417350759F0A0
:103740009091C10592FF07C08595859585950E944A
:103750005F17109273050895CF93C091C105C2FB06
:10376000992790F9981791F080FBC2F9C093C10591
:103770006091C00584E090E00E9407226C2F82E2F5
:1037800090E00E94072282E00E948F1BCF91089553
:103790008091720590914105891719F08F5F8770AC
:1037A000FBCF08950F931F93CF93DF938091400534
:1037B00082958F7009F05AC080913D05882309F4E5
:1037C00055C0809172051091410560913B05709143
:1037D0003C05C0913E05D0913F0591E06F3F09F057
:1037E00090E0292F06E0811709F440C0209721F0CE
:1037F0007F3F21F030E003C031E001C0322F90E084
:1038000030FD31C0089FF001099FF00D1124DF0148
:10381000AE5BBA4F11963C911197371324C03C917F
:10382000361321C012963C91129731111CC0139689
:103830004D915C9114974C1B5D0B483C510598F4DD
:10384000809140058F70806180934005E95BFA4F5D
:1038500080818F70806180838BE395E00E944D06AC
:103860000E94C81B03C001968770BDCFDF91CF9126
:103870001F910F910895A0E0B0E0E1E4FCE10C9409
:10388000492180911B0190911C01892B91F080911D
:103890009B058F5F80939B0581110BC00E94B7042D
:1038A00090E090931C0180931B01892B11F40E94DE
:1038B0002E050CEA14E07801B12CC0E087E0C82E98
:1038C000CC0E8C2F0E949E058C2D0E949E058C2F65
:1038D0000E9401068F73F7019081891721F0808380
:1038E000DD24D39401C0D12C8C2D0E9401068F734E
:1038F000F7019781891719F0878381E001C080E083
:10390000D82ABD280E94F205CF5FFFEFEF1AFF0A09
:10391000C730A1F6C0919F05CC23C9F10E942F1E8C
:1039200020919D0530919E05AC01421B530B9A01DD
:1039300090939E0580939D054F3F510509F020F41B
:10394000452B09F4BFC002C02FEF30E010929F0555
:1039500010929C05E091A604F091A704AF01425F8C
:103960005F4F90E030E08081882341F0281718F005
:1039700010829C2F03C0821B80833C2F3196E4175A
:10398000F50789F730939F0590939C059BC0BB205A
:1039900009F48FC00E942F1E90939E0580939D0571
:1039A000E091A604F091A70480919F05AAEBB4E0F2
:1039B0009F01225F3F4F4EE1E80199918E015C919A
:1039C000591731F05081511103C040839C9381E01D
:1039D00031961196E217F30779F780939F052091AE
:1039E000A3048091A3059091A405222309F43FC06C
:1039F000892B31F425982D9826982E9827982F9862
:103A00008091A3059091A4059170892B79F4809100
:103A1000A205882319F026982E9802C0269A2E9A7D
:103A20009091A20581E089278093A2058091A3054A
:103A30009091A4058130984780F01092A304609182
:103A4000B1057091B2058091B3059091B4050E94C3
:103A500085041092A4051092A3058091A30590916E
:103A6000A40501969093A4058093A30510C0892B0B
:103A700071F01092A4051092A3056091B1057091A8
:103A8000B2058091B3059091B4050E9485048091A0
:103A9000A1058823D9F025982D988091A0058F5FE6
:103AA0008093A005853610F0259A2D9A0E942F1E2E
:103AB0000DC080E090919C05992309F490CF81116D
:103AC0006FCF68CFB1106CCF81E0F4CF8B2DCDB725
:103AD000DEB7E9E00C94652180917504089522E039
:103AE0002093E9002FEF3091E800215035FD06C00A
:103AF00035ED3A95F1F700002111F5CF2091E8005E
:103B000025FF0BC040E050E065E070E00E94BB1074
:103B10008091E8008E778093E8000895CF93DF933B
:103B200020910E01222339F02091C00527FF03C008
:103B300060E225E002C068E021E02093E9002FEF79
:103B40003091E800215035FD06C035ED3A95F1F78A
:103B500000002111F5CF2091E80025FF1DC0EC01E8
:103B600080910E01811105C040E050E068E070E0F6
:103B700003C070E040E050E0CE010E94BB10809195
:103B8000E8008E778093E80080E2FE01A6E7B4E0CB
:103B900001900D928A95E1F7DF91CF91089580937E
:103BA000C2057093C4056093C3058091A504843059
:103BB00001F585E08093E9008FEF9091E800815056
:103BC00095FD06C095ED9A95F1F700008111F5CFAE
:103BD0008091E80085FF0DC040E050E063E070E0B8
:103BE00082EC95E00E94BB108091E8008E77809374
:103BF000E800089578941F920F920FB60F92112447
:103C00008F939F93AF93BF938091BC059091BD0517
:103C1000A091BE05B091BF050196A11DB11D809375
:103C2000BC059093BD05A093BE05B093BF05BF91A1
:103C3000AF919F918F910F900FBE0F901F9018958D
:103C40009C014FB7F8948091BC059091BD05A0915F
:103C5000BE05B091BF054FBF821B930B08952FB7D0
:103C6000F8948091BC059091BD05A091BE05B091DE
:103C7000BF052FBF08951F920F920FB60F92112408
:103C80008F939F93AF93BF938091BB05811113C016
:103C90008091BC059091BD05A091BE05B091BF0576
:103CA0004196A11DB11D8093BC059093BD05A093C5
:103CB000BE05B093BF05BF91AF919F918F910F90BB
:103CC0000FBE0F901F90189520910E012223C9F06E
:103CD0002091C00527FF15C0262F269526952695ED
:103CE0002E31C8F4FC01E20FF11D677081E090E015
:103CF00001C0880F6A95EAF78095928189238283B3
:103D00000895FC0106962281621301C01282319649
:103D1000E817F907C1F708952091B9053091BA0560
:103D20002817390771F09093BA058093B905E0918F
:103D3000B705F091B805309721F00084F185E02DAA
:103D4000099508952091B5053091B60528173907D2
:103D500071F09093B6058093B505E091B705F091A9
:103D6000B805309721F00680F781E02D0995089578
:103D7000E091B705F091B805309729F00190F081F6
:103D8000E02D0995089580E008958F929F92AF925B
:103D9000BF92EF92FF920F931F93CF93DF93EC01AB
:103DA0007B01042F8090B1059090B205A090B305DF
:103DB000B090B4050E94B8170E94A71786E00802C9
:103DC00080011124CE15DF0531F0CE010E944D0691
:103DD000C00FD11FF7CF0E94B817C501B4010E94D0
:103DE0001C17DF91CF911F910F91FF90EF90BF9023
:103DF000AF909F908F900895CF93DF930E94C3213F
:103E000066E070E00E948E22D82F0E94C3216EE0EF
:103E100070E00E948E22C82F6D2F782F80E00E94C4
:103E2000FE180497C59718F48D2F9C2F02C00E948E
:103E3000FC1EDF91CF9108950E942F1E2091AD05A9
:103E4000211104C02091AE05222321F09093AB05EF
:103E50008093AA052091AF05211104C02091B005DF
:103E6000222321F09093A9058093A805E091B7053E
:103E7000F091B805309731F00480F581E02D8CEA9F
:103E800095E0099508958D3E39F49091AE0597FF20
:103E900035C01092AE0559C08E3E29F49091AE0502
:103EA0001916BCF32BC09091AD058F3E29F497FFF6
:103EB00025C01092AD0549C0803F19F41916CCF306
:103EC0001DC09091AF05893F29F41916BCF41092DA
:103ED000AF053BC08A3F19F497FF10C0F8CF8B3F66
:103EE00039F49091B00597FF09C01092B0052DC02C
:103EF0008C3F21F49091B0051916BCF39FE0980F08
:103F0000983080F421E030E0A90102C0440F551F31
:103F10009A95E2F7CA0180959091AC058923809328
:103F2000AC0513C08D3F21F48091A7058E7F0BC097
:103F30008E3F21F48091A7058D7F05C08F3F29F426
:103F40008091A7058B7F8093A7058091AD05811196
:103F500006C08091AE05811102C01092A605809125
:103F6000AF05811106C08091B005811102C0109289
:103F7000A50508958091A70580FD18C081FD14C096
:103F800082FD16C08091A505882381F08C3380F4D2
:103F900027E0829FC00111246CE370E00E948E2212
:103FA000862F672B19F005C083E0089581E00895FE
:103FB00087E008958091A70580FD17C081FD17C097
:103FC00082FD19C08091A605882399F08C3398F45E
:103FD00028E3829FC00111246CE370E00E948E22CE
:103FE000862F672B49F481E008958EE008958CE1D7
:103FF000089588E0089588E308958D3E21F40E9495
:10400000DA1F819504C08E3E29F40E94DA1F809346
:10401000AE0508958F3E21F40E94DA1F819504C0F9
:10402000803F29F40E94DA1F8093AD050895893FEF
:1040300019F40E94BA1F05C08A3F31F40E94BA1FCA
:1040400081958093AF0508958B3F21F40E94BA1F9C
:10405000819504C08C3F29F40E94BA1F8093B0055B
:1040600008959FE0980F983078F421E030E0A9019E
:1040700002C0440F551F9A95E2F7CA019091AC0512
:10408000892B8093AC0508958D3F21F48091A7057D
:1040900081600BC08E3F21F48091A705826005C02E
:1040A0008F3F29F48091A70584608093A705089528
:1040B0001092B9008CE08093B8000895A0E0B0E0C1
:1040C000E4E6F0E20C944721B82EEB010E942F1E8B
:1040D0006C01C431D10558F0CF3F8FEFD80759F0AC
:1040E000CE0164E170E00E942C217B0107C0EE2428
:1040F000E394F12C03C025E0E22EF12C84E8A82EF5
:1041000094EA992E1092BC009092BC000E942F1E3F
:104110008C018091BC0087FD08C00E942F1E801B6F
:10412000910B8E159F05A8F32AC08091B900887F56
:10413000883041F08091B900887F803119F00FEF0D
:104140001FEF1FC0B092BB00A092BC000E942F1EA8
:104150008C018091BC0087FD08C00E942F1E801B2F
:10416000910B8E159F05A8F30AC08091B900887F36
:10417000883111F0803419F700E010E00EC00EEF26
:104180001FEFCF3F8FEFD80709F4BCCFC6010E94C5
:10419000201E8C179D0708F4B5CFC801CDB7DEB738
:1041A000EBE00C9463210F931F93CF93DF93EB010C
:1041B0008093BB0084E88093BC000E942F1E8C017A
:1041C0008091BC0087FD0EC0CF3F8FEFD807C1F3B1
:1041D0000E942F1E801B910B8C179D0788F38EEF7A
:1041E0009FEF0CC02091B900287F81E090E0283239
:1041F00011F480E090E0919581959109DF91CF9144
:104200001F910F9108950F931F93CF93DF93EC01AC
:1042100084E88093BC000E942F1E8C018091BC001A
:1042200087FD0EC0CF3F8FEFD807C1F30E942F1E2E
:10423000801B910B8C179D0788F38EEF9FEF03C0B7
:104240008091BB0090E0DF91CF911F910F91089575
:1042500084E98093BC000895AA1BBB1B51E107C0F1
:10426000AA1FBB1FA617B70710F0A61BB70B881F06
:10427000991F5A95A9F780959095BC01CD01089595
:104280002F923F924F925F926F927F928F929F9266
:10429000AF92BF92CF92DF92EF92FF920F931F9354
:1042A000CF93DF93CDB7DEB7CA1BDB0B0FB6F89405
:1042B000DEBF0FBECDBF09942A88398848885F8445
:1042C0006E847D848C849B84AA84B984C884DF80B6
:1042D000EE80FD800C811B81AA81B981CE0FD11D9A
:1042E0000FB6F894DEBF0FBECDBFED0108958F92DB
:1042F0009F92AF92BF92CF92DF92EF92FF92CF93B5
:10430000DF93EC01688179818A819B816115710558
:104310008105910521F464E279ED8BE597E02DE1CB
:1043200033EF41E050E00E942B2249015A019B01EA
:10433000AC01A7EAB1E40E944A226B017C01ACEE19
:10434000B4EFA50194010E945822DC01CB018C0D31
:104350009D1DAE1DBF1DB7FF03C00197A109B04849
:1043600088839983AA83BB839F77DF91CF91FF9046
:10437000EF90DF90CF90BF90AF909F908F90089577
:104380000E947721089580E091E00E9477210895AE
:10439000A0E0B0E08093000190930101A09302019E
:1043A000B09303010895DC01CB01FC01F999FECF24
:1043B00006C0F2BDE1BDF89A319600B40D924150AD
:1043C0005040B8F70895F999FECF92BD81BDF89A93
:1043D000992780B50895A6E1B0E044E050E00C9440
:1043E000D521A8E1B0E042E050E00C94D521DC01F9
:1043F000A40FB51F4150504048F0CB01840F951FCA
:104400002E910E94082241505040D0F70895262F47
:10441000F999FECF92BD81BDF89A019700B40216BA
:1044200039F01FBA20BD0FB6F894FA9AF99A0FBE68
:1044300008950396272F0E9408220E940722252F05
:104440000E940822242F0C9408220196272F0E94F4
:1044500008220C940722052E97FB1EF400940E945C
:10446000422257FD07D00E945D2207FC03D04EF484
:104470000C94422250954095309521953F4F4F4FD7
:104480005F4F089590958095709561957F4F8F4F00
:104490009F4F08950E947F22A59F900DB49F900D7D
:1044A000A49F800D911D11240895B7FF0C944A22FA
:1044B0000E944A22821B930B0895A1E21A2EAA1B86
:1044C000BB1BFD010DC0AA1FBB1FEE1FFF1FA217C4
:1044D000B307E407F50720F0A21BB30BE40BF50BC1
:1044E000661F771F881F991F1A9469F7609570954A
:1044F000809590959B01AC01BD01CF010895A29FCD
:10450000B001B39FC001A39F700D811D1124911DA7
:10451000B29F700D811D1124911D089597FB072EE8
:1045200016F4009407D077FD09D00E942C2107FCD7
:1045300005D03EF4909581959F4F089570956195B3
:104540007F4F0895EE0FFF1F0590F491E02D099421
:104550000F931F93CF93DF938230910510F482E085
:1045600090E0E091C705F091C80520E030E0A0E0C0
:10457000B0E0309719F140815181028113814817D1
:104580005907C8F08417950769F4109731F012960F
:104590000C93129713961C9327C00093C705109392
:1045A000C80522C02115310519F04217530718F428
:1045B0009A01BD01EF01DF01F801DBCF21153105C3
:1045C000F9F0281B390B2430310580F48A819B8156
:1045D0006115710521F0FB019383828304C09093E0
:1045E000C8058093C705FE01329644C0FE01E20F64
:1045F000F31F8193919322503109398328833AC064
:104600002091C5053091C605232B41F42091060168
:10461000309107013093C6052093C5052091040110
:10462000309105012115310541F42DB73EB7409178
:10463000080150910901241B350BE091C505F0914B
:10464000C605E217F307A0F42E1B3F0B2817390706
:1046500078F0AC014E5F5F4F2417350748F04E0FDE
:104660005F1F5093C6054093C5058193919302C087
:10467000E0E0F0E0CF01DF91CF911F910F9108951D
:10468000CF93DF93009709F481C0FC013297138226
:104690001282A091C705B091C805109781F42081BE
:1046A0003181820F931F2091C5053091C6052817CF
:1046B000390751F5F093C605E093C50567C0ED01D4
:1046C00020E030E0CE17DF0740F44A815B819E0195
:1046D00041155105F1F0EA01F5CFD383C283408142
:1046E0005181840F951FC817D90759F48881998182
:1046F000840F951F0296918380838A819B81938387
:1047000082832115310529F4F093C805E093C7058C
:104710003DC0E901FB83EA8349915991C40FD51F3C
:10472000EC17FD0761F480819181840F951F02963B
:10473000E90199838883828193819B838A83E0E066
:10474000F0E012968D919C911397009719F0FD015E
:10475000DC01F7CF8D919C9111979D012E5F3F4F0A
:10476000820F931F2091C5053091C6052817390780
:1047700069F4309729F41092C8051092C70502C059
:1047800013821282B093C605A093C505DF91CF9125
:104790000895FB01DC0104C08D910190801921F482
:1047A00041505040C8F7881B990B0895F894FFCFEB
:1047B000010000000000C90520006B047101016CBC
:1047C0001D8E1D6F1DF90BF40BF30B2000402247CB
:1047D0006DCA01A8016101F4001C02350255026E88
:1047E0000267614164332F6A65594A64008182839C
:1047F000E200E900EA00B500B600B700CD00830191
:10480000CC008A0192019401210223022402250294
:0E481000260227022A02B300B4006F007000D7
:00000001FF
